:020000040800F2
:100000000000022045B40008093900080D39000835
:1000100011390008153900081939000800000000DE
:100020000000000000000000000000001D39000872
:10003000213900080000000025390008293900088E
:1000400095B4000895B4000895B4000895B400086C
:1000500095B4000895B4000895B4000895B400085C
:1000600095B4000895B4000895B400082D3900082F
:1000700095B4000895B4000895B4000895B400083C
:1000800095B4000895B400083939000895B4000803
:1000900095B4000895B4000895B4000895B400081C
:1000A00095B4000895B4000895B4000895B400080C
:1000B00095B4000895B4000895B4000895B40008FC
:1000C00095B4000895B4000895B4000895B40008EC
:1000D00095B4000895B4000895B4000845390008A7
:1000E00095B4000895B400080000000095B400081D
:1000F00095B4000895B400085139000895B400087B
:1001000095B4000895B4000895B4000895B40008AB
:1001100095B4000895B4000895B400085D3900084E
:1001200095B4000895B4000895B4000895B400088B
:1001300095B4000895B4000895B4000895B400087B
:1001400000000000000000000000000000000000AF
:1001500095B4000895B4000895B4000895B400085B
:1001600095B4000895B4000895B4000895B400084B
:1001700095B4000895B4000895B40008000000008C
:1001800095B4000895B4000895B4000895B400082B
:1001900095B4000895B4000895B4000895B400081B
:1001A00095B4000895B4000895B4000895B400080B
:1001B00095B4000895B4000895B4000895B40008FB
:1001C00095B4000895B4000895B4000895B40008EB
:1001D00095B4000895B4000895B4000895B40008DB
:1001E00095B4000895B4000895B4000895B40008CB
:1001F00095B4000895B4000895B4000895B40008BB
:1002000095B4000895B4000895B4000895B40008AA
:1002100095B4000895B4000895B4000895B400089A
:1002200095B4000895B4000895B4000800000000DB
:1002300095B4000895B400080000000095B40008CB
:1002400095B4000895B4000895B4000895B400086A
:1002500095B4000895B4000895B4000895B400085A
:1002600095B4000895B4000895B4000895B400084A
:1002700095B4000895B4000895B40008000000008B
:1002800095B4000895B4000895B40008000000007B
:080290000000000095B4000815
:1002980010B5054C237833B9044B13B10448AFF3B8
:1002A80000800123237010BD10060020000000000C
:1002B80030BE000808B5034B1BB103490348AFF330
:1002C800008008BD000000001406002030BE0008B1
:1002D80053B94AB9002908BF00281CBF4FF0FF31A5
:1002E8004FF0FF3000F06AB9ADF1080C6DE904CEAB
:1002F80000F006F8DDF804E0DDE9022304B07047F9
:100308002DE9F047089D0C46002B4ED194468C45AC
:100318008646B2FA82F262D94AB1C2F1200391400C
:1003280020FA03F30CFA02FC194300FA02FE4FEA22
:100338001C471FFA8CF6B1FBF7F44FEA1E4307FB84
:10034800141143EA014304FB06F199420AD91CEB54
:10035800030304F1FF3080F01281994240F20F81CB
:10036800023C6344591A1FFA8EF3B1FBF7F007FBFE
:10037800101143EA014300FB06F69E420AD91CEB22
:10038800030300F1FF3180F0FC809E4240F2F980C7
:10039800634402389B1B40EA044000211DB1D3404E
:1003A8000022C5E90032BDE8F0878B4205D90DB1BE
:1003B800C5E9000100210846F5E7B3FA83F10029F1
:1003C80046D1A34202D39042C0F0F080861A64EB73
:1003D80003030120002DE6D0C5E90063E3E7002A06
:1003E80040F09080A1EB0C044FEA1C481FFA8CF7F0
:1003F8000121B4FBF8F64FEA1E4308FB164443EA12
:10040800044307FB06F0984208D91CEB030306F1E6
:10041800FF3402D2984200F2CD8026461C1A1FFAF9
:100428008EF3B4FBF8F008FB104443EA044300FBE6
:1004380007F79F4208D91CEB030300F1FF3402D2EF
:100448009F4200F2B0802046DB1B40EA0640A5E749
:10045800C1F120068B4022FA06F71F4320FA06FC5A
:1004680004FA01F343EA0C03F44000FA01F8380CEB
:100478004FEA1349B4FBF0FE1FFA87FC00FB1E4449
:1004880049EA04440EFB0CF9A14502FA01F20AD923
:100498003C190EF1FF3A80F08480A14540F281803A
:1004A800AEF1020E3C44A4EB09041FFA83F9B4FB35
:1004B800F0F300FB134449EA044403FB0CFCA44595
:1004C80007D93C1903F1FF3067D2A44565D9023B2F
:1004D8003C4443EA0E40A0FB0293A4EB0C049C426C
:1004E800CE469C4651D34ED055B1B8EB0E0364EBC3
:1004F8000C0404FA06F6CB401E43CC40C5E9006460
:10050800002150E7C2F1200320FA03F10CFA02FCA3
:1005180024FA03F394400C434FEA1C4800FA02FE05
:100528001FFA8CF7B3FBF8F008FB1031230C43EAF1
:10053800014300FB07F1994208D91CEB030300F1C2
:10054800FF362CD299422AD9023863445B1AA4B2E6
:10055800B3FBF8F108FB113344EA034401FB07F34A
:10056800A34208D91CEB040401F1FF3613D2A342BD
:1005780011D902396444E41A41EA004139E70446D2
:10058800F0E6084606E7C845AED2B9EB020E63EBC3
:10059800070C0138A8E73146EDE7034699E73046EE
:1005A800D4E7D6467FE7634402384DE7064623463C
:1005B80008460FE7023E634430E700BF704700BFBC
:1005C800002310B50446C0E90033C0E90433836052
:1005D80081814366C2818361194608225C3000F03C
:1005E800F4F80D4B63620D4BA3620D4BE3620D4BA8
:1005F80023630D4B24629C4206D003F168029442A7
:1006080002D0D0339C4205D104F15800BDE8104017
:1006180000F04EB910BD00BF4D0700086F07000875
:10062800A7070008CB0700082C060020024A034948
:10063800034800F069B800BF00000020B90B0008AB
:100648001000002041680C4B994210B5044601D0B7
:1006580000F0AEFAA168094B994202D0204600F09A
:10066800A7FAE168064B994204D02046BDE810403D
:1006780000F09EBA10BD00BF2C0600209406002092
:10068800FC06002010B50B4B0B4C0C4A1A60204698
:1006980000220421FFF794FF04F1680001220921D8
:1006A800FFF78EFF04F1D0000222BDE810401221AE
:1006B800FFF786BF640700202C06002035060008D7
:1006C800014800F0F6B800BF6D070020014800F0AF
:1006D800F1B800BF6D07002010B50446FFF7F0FF22
:1006E800236A1BB1BDE81040FFF7F0BF044B23623B
:1006F800044B1B68002BF5D1FFF7C4FFF2E700BFDE
:100708004D060008640700202DE9F843074688468F
:1007180014460026D4E90195B9F1010905D52468E4
:10072800002CF7D13046BDE8F883AB89012B07D9F7
:10073800B5F90E30013303D029463846C047064381
:100748006835E9E710B50C46B1F90E1000F068F805
:100758000028ABBF636DA3891B1823F48053ACBF7B
:100768006365A38110BD2DE9F0411F468B89DB0528
:1007780005460C46164605D5B1F90E10022300228F
:1007880000F03CF8A389B4F90E1023F48053A38138
:1007980032463B462846BDE8F04100F053B810B554
:1007A8000C46B1F90E1000F029F8431CA38915BFB7
:1007B800606523F4805343F48053A38118BFA38159
:1007C80010BDB1F90E1000F009B802440346934277
:1007D80000D1704703F8011BF9E7000038B5064D52
:1007E8000023044608462B6003F0E8F8431C02D1B6
:1007F8002B6803B1236038BD6807002038B5074D62
:1008080004460846114600222A601A4603F0E2F818
:10081800431C02D12B6803B1236038BD6807002050
:1008280038B5074D04460846114600222A601A4684
:1008380003F0A8F8431C02D12B6803B1236038BD2C
:100848006807002038B5074D0446084611460022BF
:100858002A601A4603F0A4F8431C02D12B6803B19E
:10086800236038BD6807002070B50D4D0D4C641B22
:10087800A4100026A64209D10B4D0C4C0BF0D4FA5B
:10088800641BA4100026A64205D170BD55F8043B90
:1008980098470136EEE755F8043B98470136F2E7EA
:1008A80000D8000800D8000800D8000804D80008BC
:1008B800704770477047000038B50546002941D099
:1008C80051F8043C0C1F002BB8BFE41800F0E0F806
:1008D8001D4A136833B9636014602846BDE8384080
:1008E80000F0DCB8A34208D9206821188B4201BF68
:1008F80019685B6809182160EDE71A465B680BB157
:10090800A342FAD911685018A0420BD120680144BB
:10091800501883421160E0D118685B68536008443E
:100928001060DAE702D90C232B60D6E7206821187B
:100938008B4204BF19685B68636004BF09182160B3
:100948005460CAE738BD00BF7407002070B50F4E69
:100958000C463168054611B900F052F9306021465D
:10096800284600F04DF9431C03D14FF0FF342046D0
:1009780070BDC41C24F00304A042F8D0211A2846F4
:1009880000F03EF90130F2D1EFE700BF7007002018
:100998002DE9F843CD1C25F0030508350C2D38BF8B
:1009A8000C25002D064601DBA94204D90C2333602F
:1009B8000020BDE8F883DFF8D48000F069F8D8F8A3
:1009C80000301C4644BB29463046FFF7BFFF431C96
:1009D800044658D1D8F800402746002F43D1002CB0
:1009E8004BD023683946304604EB030900F008F978
:1009F800814542D121686D1A29463046FFF7A6FF86
:100A080001303AD023682B442360D8F800305A6864
:100A180062BBC8F800700FE02268521B20D40B2A72
:100A280017D96119A342256018BF5960636808BFC8
:100A3800C8F8001062514B60304600F02FF804F1FE
:100A48000B00231D20F00700C21A1CBF1B1AA3505D
:100A5800AFE76268A3420CBFC8F800205A60EBE712
:100A680023466468AEE73C467F68B6E71A465B688B
:100A7800A342FBD100235360DEE70C2333603046EA
:100A880000F00CF894E70560D6E700BF7407002073
:100A98000148FFF70EBF00BF6C0700200148FFF7B1
:100AA80009BF00BF6C070020B1F90C202DE9F04107
:100AB800160705460C4654D44B68002B02DC0B6C19
:100AC800002B48DDE66A002E45D0002312F4805240
:100AD8002F68216A2B6030D0626DA389590705D52C
:100AE8006368D21A636B0BB1236CD21A0023E66ACF
:100AF800216A2846B047431CA38906D129681D29C5
:100B08002BD82A4A0A41D60727D400226260D90482
:100B18002269226004D5421C01D12B6803B96065A3
:100B2800616B2F60B9B104F14403994202D02846A1
:100B3800FFF7C2FE002363630DE001232846B04798
:100B48000246501CC9D12B68002BC6D01D2B01D0E2
:100B5800162B1ED12F60002022E043F040031BB269
:100B68001BE00F69002FF6D093070E6808BF4B698A
:100B78000F6018BF0023A6EB07088B60B8F1000FC1
:100B8800E9DD216AA66A43463A462846B047002866
:100B980008DCB4F90C3043F04003A3814FF0FF3078
:100BA800BDE8F0810744A8EB0008E7E7FEFFBFDFD8
:100BB80038B50B6905460C4613B90025284638BDDB
:100BC80018B1036A0BB9FFF787FDB4F90C30002B95
:100BD800F3D0626ED00704D4990502D4A06DFFF754
:100BE80068FE28462146FFF75FFF636EDA07054671
:100BF800E4D4A3899B05E1D4A06DFFF75BFEDDE794
:100C080038B5064D0023044608462B6002F0E4FE82
:100C1800431C02D12B6803B1236038BD680700204C
:100C28000821014808F09EBA880B0020114B0821C2
:100C3800DFED116A1B8807EE103AB8EEC77A10B5D7
:100C4800C7EE267A0D4C2268FCEEE77A17EE903A4A
:100C5800013B5808D362E360D063204608F082FA6B
:100C6800642007F07BFF20460821BDE8104008F00B
:100C780019BB00BF5C00002000803B45880B0020AA
:100C88003C21054808B508F0E1FD3C210348BDE8D2
:100C9800084008F0DBBD00BFD40B00203C0B00204F
:100CA800014B1B68586A7047D40B0020014B1B6826
:100CB800586A70473C0B002070B504460B4E0C4D2B
:100CC80031882246284606F0C7F822467188284609
:100CD80006F0C2F82246B188284606F0BDF822463A
:100CE800F1882846BDE8704006F0B6B860000020DC
:100CF8000008025810B50D4C4021204606F0B0F807
:100D08002046802106F0ACF820464FF4807106F0AA
:100D1800A7F820464FF4007106F0A2F84FF40041FE
:100D28000348BDE8104006F09BB800BF0008025811
:100D3800000C02582DE9F047194E0024DFF86CA08A
:100D480000253046DFF8689009F0B4FBDFF86480CE
:100D580051464FF47A730322124F304609F040FA95
:100D68000520C9E90045C8E90045C7E9004507F07D
:100D7800F5FE514603224FF47A73304609F030FAF3
:100D88000520C9E90045C8E90045C7E9004507F05D
:100D9800E5FE304621220449BDE8F0470AF082BA50
:100DA800100A002088070020900700206C0000200F
:100DB800780700208007002008B5FFF7BBFF212235
:100DC80002490348BDE808400AF06CBA90070020C1
:100DD800100A002000000000026838B53C4B9A4217
:100DE80000D038BD3B4B1A78532A47D13A4A3B4981
:100DF800D2E900459FED2E5BC1E9004598795B7902
:100E080043EA002307EE103ABAEEE87B9FED2A6B1F
:100E180027EE057B82ED007B92ED007B91ED005B78
:100E280037EE457BB4EEC67BF1EE10FA1CDC92ED92
:100E3800007B91ED005B9FED226B37EE457BB4EEB6
:100E4800C67BF1EE10FA08D5254B9FED1F6B93ED8D
:100E5800007B37EE467B83ED007B21221D4921482C
:100E6800BDE838400AF01EBA1D4B9FED176B93ED95
:100E7800007B37EE067B83ED007BEEE71A4C237888
:100E8800552B0AD0174D4FF47A7301222146284674
:100E980009F020FA2378552BF5D1642321220D4936
:100EA80023701048BDE838400AF0FCB9AFF3008061
:100EB80000000000008066400000000000406F4015
:100EC8000000000000406FC0000000000080764075
:100ED8000048004090070020880700208007002075
:100EE80078070020100A00206A000020044A054BF9
:100EF80092ED000B93ED007B30EE470B704700BF7F
:100F0800880700207807002010B5074C204608F015
:100F180033F80021204608F025F920460421BDE8D1
:100F2800104008F01FB900BF200C002038B5044657
:100F3800184D642C286818DC14F1640F0EDA4FF48D
:100F48007A740022202105F087FF012240212868B9
:100F580005F082FF104B1B685C6338BD002C0CDD6C
:100F680004EB84046400A4B201E04FF47A74012213
:100F7800202105F071FF0022E8E705D12246202153
:100F880005F06AFF2246E1E7644204EB840464004A
:100F9800A4B2D6E7F4010020200C002038B504469E
:100FA800184D642C286818DC14F1640F0EDA4FF41D
:100FB8007A740122802105F04FFF00224021286821
:100FC80005F04AFF104B1B689C6338BD002C0CDDF4
:100FD80004EB84046400A4B201E04FF47A740022A4
:100FE800802105F039FF0122E8E705D1224680215A
:100FF80005F032FF2246E1E7644204EB8404640012
:10100800A4B2D6E7F0010020200C0020114B0268A2
:101018001B689A4200D0704710B50F4CFFF766FF67
:10102800002200232046C4E9042384ED000B00F0CD
:101038003BF994ED027BFDEEC77B17EE904A04F175
:101048006400FFF773FFC4F16400BDE81040FFF7C8
:10105800A5BF00BFF00A00207000002070B50E4C3C
:10106800002220210D4D206805F0F6FE20680022A0
:10107800402105F0F1FE00242B688021084E22460D
:101088005C63306805F0E8FE22464021306805F0D0
:10109800E3FE2B689C6370BDF4010020200C002047
:1010A800F001002000000000F8B52DED028BFFF7DD
:1010B8001DFF394CB8EE088B40F2A3679FED347BD7
:1010C80030EE070B84ED040B07F042FD064607F0EF
:1010D8003FFD054607F03CFD831BBB422ED8FFF7BA
:1010E80005FF204684ED000B00F0DEF894ED027B4E
:1010F800FDEEC77B17EE900AFFF718FF94ED027B11
:10110800FDEEC77B17EE900A4042FFF747FFB0EEAF
:10111800085B94ED007B94ED046B37EE467BB5EEEF
:10112800C07BF1EE10FA28DDB4EEC57BF1EE10FAC3
:1011380028D507F00DFD401BC728CBD9174C002236
:101148002021174D206805F087FE206800224021E5
:1011580005F082FE00242B688021124E22465C6333
:10116800306805F079FE22464021306805F074FEAB
:101178002B68BDEC028B9C63F8BDB4EEC87BF1EE26
:1011880010FAD6DC07F0E4FC0546A3E7AFF30080CD
:10119800000000000080564070010020F40100208B
:1011A800200C0020F0010020F8B52DED028BFFF790
:1011B8009DFE394CB8EE088B40F2A3679FED347B57
:1011C80030EE470B84ED040B07F0C2FC064607F02F
:1011D800BFFC054607F0BCFC831BBB422ED8FFF7BB
:1011E80085FE204684ED000B00F05EF894ED027B4E
:1011F800FDEEC77B17EE900AFFF798FE94ED027B91
:10120800FDEEC77B17EE900A4042FFF7C7FEB0EE2F
:10121800085B94ED007B94ED046B37EE467BB5EEEE
:10122800C07BF1EE10FA28DDB4EEC57BF1EE10FAC2
:1012380028D507F08DFC401BC728CBD9174C0022B6
:101248002021174D206805F007FE20680022402164
:1012580005F002FE00242B688021124E22465C63B2
:10126800306805F0F9FD22464021306805F0F4FDAC
:101278002B68BDEC028B9C63F8BDB4EEC87BF1EE25
:1012880010FAD6DC07F064FC0546A3E7AFF300804C
:101298000000000000805640F0000020F40100200B
:1012A800200C0020F001002010B504462DED048B21
:1012B80007F04EFCD4E91623C31A9A4204D9BDECB0
:1012C800048B94ED020B10BD94ED002B94ED044BB0
:1012D80094ED080BB6EE001B07EE903A34EE424B45
:1012E800B8EE677B20EE011B94ED185B94ED1A3B7A
:1012F80021EE071BA7EE045B34EE033B94ED066B6F
:1013080024EE066BA1EE035B94ED143BB4EEC35BD5
:1013180084ED185BF1EE10FA3DDD84ED183BA0EE8C
:10132800036BB0EE475BB0EE003B94ED0C0B94ED15
:101338000A1B94ED1E9B90EE035BA0EE037B31EE3F
:10134800018B32EE499B94ED1C3B94ED100B25EE7E
:10135800035BA8EE095BB1EE455B85EE073BA1EEAA
:10136800036B84ED1C3BB4EEC06B84ED026BF1EEB5
:1013780010FA06DC94ED0E0BB4EEC06BF1EE10FA29
:1013880013D584ED020BBDEC048B84ED1E2B84ED8C
:101398001A4BE06510BD94ED123BB4EEC35BF1EE61
:1013A80010FABAD4B0EE453BB9E7B0EE460BEAE71F
:1013B800054A08B5054B32F81010186805F046FDC7
:1013C800B0FA80F0400908BDF8010020FC010020B7
:1013D80038B5037F082B00D038BD2D4D04462B7837
:1013E800002B32D0012BF7D10C2108F02BFC294A15
:1013F800294912682368904208604FF00001596239
:1014080034D9801A254A106007EE900AB6EE006BB0
:101418001A6AB8EE677B224822F4204221499FEDE0
:101428001A5B1A62026827EE057B186A1862D3688D
:1014380023F0100327EE067BD36000222A70FCEE0F
:10144800C77B17EE903A0B7038BD0C2108F0FAFBF9
:101458002368104A012110601A6A297022F4204278
:101468001A621A6A42F400521A6238BD02D30B4A51
:101478001068C9E74FF6FF71891A084A08441060D6
:10148800C2E700BFAFF300809CC420B07268A13FE0
:10149800B5070020C0070020BC070020B8070020BF
:1014A800A40A0020B40700200C21014808F022B843
:1014B800A40A002010B50C4C012240210B4805F06D
:1014C800CBFC226800235362536A092BFCD90748D6
:1014D8000022402105F0C0FC22680549D36808783D
:1014E80043F01003D36010BDA40A00200000025886
:1014F800B4070020034B00220348C3E9002202F08E
:10150800A9BE00BFF0070020800D002000000000E9
:1015180038B502684A4B9A422DED048B02D0BDECD7
:10152800048B38BD474D02F0E1FA474B2C7823F87D
:10153800140083B2002C3FD008EE103AB0EE081B1E
:101548009FED2D4BB8EEC88B9FED2D5B28EE048BDD
:101558009FED2D6B9FED2E9B28EE058B9FED2E7B2F
:10156800A8EE069B28EE086BB0EE480BA6EE079B8C
:101578000AF096F9B0EE406BB0EE480BB1EE001BE6
:101588009FED277BB0EE498BA6EE078B0AF088F912
:10159800631C2E4ADBB2B2EE047B02EBC402042BBE
:1015A8009FED216BA0EE068B28EE078B82ED008B5A
:1015B80000D100232B70B2E707EE103A9FED0E6BB7
:1015C800B8EEC77B9FED0E0B27EE067B9FED181B31
:1015D80027EE000B0AF064F91C4B0122B2EE047BE3
:1015E8002A709FED156B20EE060B20EE070B83ED9E
:1015F800000B94E7AFF300806666666666660A408D
:10160800000000000000103F00000000006051C012
:101618003333333333F340406666666666264F409D
:1016280066666666666639C0A4703D0AD7A30E4032
:1016380021B0726891EDF0BF295C8FC2F52828406F
:1016480000200240C4070020F0070020C80700203F
:10165800094B9FED077B93ED006BB4EEC76BF1EE82
:1016680010FA4CBF01200020704700BFAFF3008084
:101678000000000000606340C80700200000000070
:10168800094B9FED077B93ED046BB4EEC76BF1EE4E
:1016980010FA4CBF01200020704700BFAFF3008054
:1016A8000000000000804B40C80700200000000038
:1016B800094B9FED077B93ED066BB4EEC76BF1EE1C
:1016C80010FA4CBF01200020704700BFAFF3008024
:1016D8000000000000804B40C807002008B501202A
:1016E80000F02EFD00F0CCFD01F01CFD00F03CFDEB
:1016F80001F024F900221146104600F027FD01F000
:1017080013FC01F08FFD01F019F901F00DFCF8E769
:1017180010B5A0B04C2200210CA8FFF756F82022E3
:10172800002104A8FFF751F8022007F0CBF8374B47
:101738000021374A0191D96A21F00101D962DB6A97
:1017480003F001030193936943F440439361936960
:1017580003F440430193019B93699904FCD52D4BF5
:10176800D3F8F41041F00201C3F8F4100021D3F8C3
:10177800F43003F002030293029B03919169234B17
:1017880041F440419161926902F440420392D96A5E
:101798001F4A41F00101D962DB6A03F00103039398
:1017A800039B93699B04FCD501204FF480310223ED
:1017B800002208241B931C94CDE90C0105210CA8D8
:1017C8001791C021CDE91533CDE919331891CDE929
:1017D8001D2203F099F8034608B172B6FEE73F21CF
:1017E800402206934FF480630491032104A80992D0
:1017F80005910421CDE90742CDE90A3203F004FC42
:1018080008B172B6FEE720B010BD00BF0004005852
:10181800004802580044025800240126AC4D80B507
:10182800A0B0CDE91544CDE9174407F0E1F848F236
:101838001F7315A8ADF85460CDE9164340F20113A3
:10184800189307F0F3F8042007F0E0F807F044F9DC
:10185800FFF75EFF1994224640219E48CDE91544C2
:10186800CDE91744D5F8E03043F01003C5F8E0306F
:10187800D5F8E03003F010030193019BD5F8E03070
:1018880043F08003C5F8E030D5F8E03003F080037A
:101898000293029BD5F8E0303343C5F8E030D5F821
:1018A800E03033400393039BD5F8E03043F0040362
:1018B800C5F8E030D5F8E03003F004030493049B46
:1018C800D5F8E03043F00203C5F8E030D5F8E03051
:1018D80003F002030593059BD5F8E03043F00803B5
:1018E800C5F8E030D5F8E03003F008030693069B0E
:1018F80005F0B2FA224648F2C001774805F0ACFA82
:1019080022464FF4E071754805F0A6FA2246602198
:10191800734805F0A1FA7C2315A97248CDE915345E
:101928000223179305F050F90C2315A9694815935C
:10193800CDE9164405F048F9402315A965481593E3
:101948001894CDE9166405F03FF948F2C00315A9CB
:10195800614815931894CDE9166405F035F94FF4EC
:10196800E07315A95D4815931894CDE9166405F040
:101978002BF9602315A95A4815931894CDE91664D4
:1019880005F022F9D5F8D8302246314633430B20EA
:10199800C5F8D830D5F8D83033400093009B06F00E
:1019A800C7FF0B2007F000F84F48504B036007F0C3
:1019B8009DF908B172B6FEE74D484E4B036007F03B
:1019C80095F908B172B6FEE74B484C4B036007F037
:1019D8008DF908B172B6FEE749484A4B036007F033
:1019E80085F908B172B6FEE74748484B036007F02F
:1019F8007DF908B172B6FEE74548464B036007F02B
:101A080075F908B172B6FEE74348444B036007F026
:101A18006DF908B172B6FEE74148424B036007F022
:101A280065F908B172B6FEE73F48404B036007F01E
:101A38005DF908B172B6FEE73D483E4B036007F01A
:101A480055F908B172B6FEE73B483C4B036007F016
:101A58004DF908B172B6FEE7394B3A48036007F012
:101A680045F9034608B172B6FEE7374C0122042552
:101A780036492377636384F83830E260E2630222F0
:101A88000E901B9021602561A561C4E90933CDE959
:101A98000F334FF48073A3824FF48053CDE91500C0
:101AA800CDE91700CDE919002046C4E90B2302F05F
:101AB80041FD08B172B6FEE74FF4E013A06020467E
:101AC800636002F037FD002842D072B6FEE700BF1F
:101AD8000044025800000258000C0258000802583E
:101AE80000040258001002581C0D002020900052DB
:101AF8000C0D002040900052FC0C00206090005219
:101B0800EC0C002080900052DC0C0020A0900052C9
:101B1800CC0C002020300248BC0C00204030024889
:101B2800AC0C0020603002489C0C00208030024839
:101B38008C0C0020A03002487C0C00202070025839
:101B4800407002586C0C0020800D002000200240DC
:101B58000E900EA9204602F003FE08B172B6FEE709
:101B68000623DFF8BCE24FF005081A908DF86D00E7
:101B780015A920461995CDE915E340F2FF73CDE983
:101B8800178302F0F7F808B172B6FEE7984A0C23FB
:101B980015A92046CDE9152302F0ECF808B172B674
:101BA800FEE7944A122315A92046CDE9152302F031
:101BB800E1F808B172B6FEE78F4B1825204615A943
:101BC800CDE9153502F0D6F8044608B172B6FEE73D
:101BD80001460A9007902C2214900D90CDE90E0032
:101BE800CDE91000CDE91200CDE90B00CDE90800E0
:101BF80015A8FEF7EAFD814880238361804B0360C6
:101C080040F2E733C0E90154C0E90444C36007F077
:101C18000DF908B172B6FEE74FF480530AA9774868
:101C28000A9307F049FF08B172B6FEE7734807F058
:101C3800F3F908B172B6FEE7CDE90700099007A9E4
:101C48006E4808F027FA024608B172B6FEE760232C
:101C5800119014900EA90E93CDE90F00CDE9120052
:101C6800664808F0FDF808B172B6FEE704220EA92E
:101C7800624808F0F5F808B172B6FEE74FF4005272
:101C880015A9CDE919024FF00072CDE91500CDE98B
:101C98001700CDE91B00CDE91E0058481D9208F039
:101CA80053FA044608B172B6FEE7564D4FF0FF36B8
:101CB800524801F059FD2146202216A8FEF785FD5D
:101CC8004FF08043109415A92C612846AC612B6015
:101CD800EE60CDE90E44C5E901440124159417943A
:101CE8001B9407F0E3FC034608B172B6FEE72846EA
:101CF8000EA90E93109308F0CDF908B172B6FEE75D
:101D080004231594179415A91B943F4C19931D93FC
:101D18003E4B169018901A901C9010902061A0616C
:101D28002360E660CDE90E00C4E90100204607F013
:101D3800BDFC034608B172B6FEE720460EA90E9315
:101D4800109308F0A7F908B172B6FEE7304C4FF4CB
:101D5800E133304E2046C4E900630023C4E902336E
:101D68002361A362C4E90633C4E908330C23636121
:101D780009F014FA014608B172B6FEE7204609F0E8
:101D8800D9FA014608B172B6FEE7204609F014FBFD
:101D980008B172B6FEE7204609F0AEFA08B172B68D
:101DA800FEE71D4C1D4BA0602360A3F17863206201
:101DB800A3F57E23A3F24F2363600123C4E9040043
:101DC800C4E906002046E36006F0E0FE014608B1DB
:101DD80072B6FEE7204606F033FF014608B172B638
:101DE800FEE7204606F056FFE0B172B6FEE700BFF8
:101DF8001000C010000180212000F014200C0020E9
:101E080000000140D40B00203C0B0020000C0040D7
:101E1800100A0020004800402C0D00200058004007
:101E28008000501D764C4FF480730C901B90A0607E
:101E3800744DCDE90E00CDE91000CDE90A00CDE9D9
:101E48001500CDE91700CDE919004FF6FF70C4E978
:101E5800030380232046A3614FF4FA63C4E90053C7
:101E680006F0E4FF08B172B6FEE74FF480530EA9FE
:101E780020460E9307F020FE08B172B6FEE7204612
:101E880007F0CAF808B172B6FEE700230AA95C4851
:101E98000A930C9308F0FEF808B172B6FEE77021B9
:101EA80019900822159115A9CDE91600544807F094
:101EB800D7FF044608B172B6FEE7514801F054FC5A
:101EC800514D4FF6FF7317942846EB608023AB61A2
:101ED8004E4BCDE915442B60C5E9014406F0A6FF39
:101EE800034608B172B6FEE7284615A9159317935D
:101EF80008F0D0F808B172B6FEE7454C40F2DF139F
:101F0800444A0C90A060A061C4E900234FF6FE7318
:101F1800CDE90E00CDE91000CDE90A00CDE91500A4
:101F2800CDE91700C4E904002046E36006F07EFF0F
:101F380008B172B6FEE74FF480530EA920460E93FF
:101F480007F0BAFD08B172B6FEE7204607F02CFA92
:101F5800034608B172B6FEE70AA920460C93CDE9FC
:101F68000A3308F097F8034608B172B6FEE7032271
:101F7800012515A92046CDE917320C22CDE91535E2
:101F880007F0C6FC08B172B6FEE7FEF7D3FEDFF82D
:101F98009480FEF711FF204FFEF772FE1F4EFFF7E9
:101FA800A9FA1F4CFEF7B0FFFEF73AFEFFF77CFADE
:101FB8002846FEF781FEFFF77DFAC8F800000020EA
:101FC800FFF7F6F9B8B90120FFF7F2F918B1FEF7F3
:101FD8002DFEFFF743F8FEF789FF87ED000BFEF7AC
:101FE80089FEFEF75DFE3060FEF760FE206005208A
:101FF80006F0B4FDDFE7FEF719FEFFF76FFB00BF41
:10200800880B002000080040F00A0020001400405F
:10201800A40A00200004014090090020880900203B
:102028008C090020F807002072B6FEE708B5054BBA
:102038001D22012104481B68DB6809F08BFA09F0AE
:1020480026FA00BF0C00002048BE0008000000006F
:1020580008B50C2009F022FA30B100229FED087B68
:10206800826080ED007B08BD074B312201210748C3
:102078001B68DB6809F06EFA09F009FAAFF3008013
:1020880000000000000000000C00002068BE0008EE
:1020980038B5044608200D4609F000FA88B1002238
:1020A8002368C0E9005233B163685860A368606070
:1020B8000133A36038BDA3680133C4E90000A360FD
:1020C80038BD054B2C22012104481B68DB6809F048
:1020D80041FA09F0DCF900BF0C0000209CBE0008A2
:1020E80010B5E8B10346006880B15A68824209D049
:1020F80041689A680468013A19609A6009F0D6F94B
:10210800204610BD002211465A60F2E7054B3222E4
:10211800012105481B68DB6809F01CFA09F0B7F9CA
:10212800FFF784FF0C000020CCBE000820B1006837
:10213800B0FA80F04009704708B5FFF777FF00BF95
:10214800014B1860704700BFF80D002010B4044C14
:10215800044B22705DF8044BC3E90001704700BFCF
:10216800EC0D0020F00D0020424B0122012001213E
:1021780003F5F06CC3F86027C3F87426C3F87C290C
:10218800C3F86028C3F88027C3F89827C3F88C27BA
:10219800C3F88426C3F89828C3F88C29C3F8742890
:1021A800C3F87828344A4CE90201127803F5086C20
:1021B800CCE900016AB93148016807291FD008290C
:1021C8000DD1416807290AD1C3F87828C3F86028D7
:1021D8007047012A04D0022A28D0032A17D0704752
:1021E800264A11680729FAD15268072A2DD0082AE9
:1021F800F5D10022C3F88C27C3F8842670474168BC
:102208000729ECD1C3F87827C3F8602770471B4A21
:1022180011680829E3D15268072A25D0082ADED197
:102228000022C3F88428C3F88C29D8E713490A6820
:10223800072A10D0082AD2D14A68082ACFD100220A
:10224800C3F88028C3F8982870470022C3F87C2771
:10225800C3F8742670474A68082AC0D10022C3F818
:102268008027C3F8982770470022C3F87428C3F85A
:102278007C297047000E0020EC0D0020F00D002096
:102288009FED537B564B01224FF0FF30C3F8142FBC
:1022980003F57061C3F8242FC3F8342FC3F8442F13
:1022A800C3F8542FC3F8642FC3F8742FC3F8842FCE
:1022B800DA61C3F80821C3F8F021DA62C3F808220A
:1022C800C3F8F022DA63C3F80823C3F8F023DA640A
:1022D800C3F80824C3F8F024DA65C3F80825C3F85E
:1022E800F025DA66C3F80826C3F8F026DA67C3F8DB
:1022F8000827C3F8F027C3F88C20C3F80828C3F8C8
:10230800F028C3F89C20C3F8942FC3F8A42FC3F86F
:10231800B42FC3F8C42FC3F8D42FC3F8E42FC3F8DD
:102328000829C3F8F029C3F8AC20C3F8082AC3F871
:10233800F02AC3F8BC20C3F8082BC3F8F02BC3F865
:10234800CC20C3F8082CC3F8F02CC3F8DC20C3F861
:10235800082DC3F8F02DC3F8082EC3F8F02EC3F8E3
:10236800FC20C3E93B2283ED027B03F57F6383ED09
:10237800007B1C4BC1E9012203F580624FF0FF315D
:10238800403343E9200143E91E0143E91C0143E9C5
:102398001A0143E9180143E9160143E9140143E925
:1023A80012019A42ECD1104B1B686BB90F4AC2E973
:1023B8008733C2E977339FED087B0D4900220D4B27
:1023C80081ED007B1A707047084B00221A60F2E713
:1023D80001000000010000000000000000000000F3
:1023E800000E002040020020E80D0020000200201E
:1023F800F00D0020EC0D00202DE9F843954B964A8E
:102408001B78D2E90045032B20D8DFE803F0029BB4
:102418006121FFF71DF9002840F0D380FFF730F95C
:10242800002840F0E080FFF743F978B18B4E05EBC8
:10243800041301220F2C06EB03135A6006D0013453
:10244800012305EB041406EB0414E360BDE8F883EC
:10245800FFF7FEF870B1814A05EB04130121002C47
:1024680002EB0313D96005DD631E05EB031302EBD2
:1024780003125160FFF704F9A0B105EB0413774E7E
:102488004FF00109002D06EB03124FEA04174FEA3B
:102498000318C2F8089040F3B9806B1E3B441B0137
:1024A80046F80390FFF704F90028CFD005EB041392
:1024B8006A4E01220F2D4FEA03134FEA0417F25018
:1024C800C4D0013501232F4406EB0716B360BDE7DE
:1024D800FFF7BEF870B1614905EB04130120002D28
:1024E80001EB03134FEA0412986003DD6B1E1A44D4
:1024F80012018850FFF7C4F878B1584E05EB041361
:1025080001270F2C06EB03135F6000F08F80631C1C
:1025180005EB031306EB0313DF60FFF7C9F8002888
:1025280094D04E4E05EB04130122002C06EB031346
:10253800DA608BDD631E012205EB031306EB031340
:102548005A6083E7FFF784F870B1444A05EB041337
:1025580001210F2C02EB0313596005D0631805EB1A
:10256800031302EB0312D160FFF78AF890B105EB71
:1025780004133A4E4FF001080F2D4FEA03134FEAA8
:10258800041746F803805BD06B1C3B4406EB03132F
:10259800C3F80880FFF78CF800283FF457AF2F4E98
:1025A80005EB04130122002D06EB03134FEA041771
:1025B8009A607FF74BAF6B1E01223B441B01F25020
:1025C80044E705EB0413254A01200F2D4FEA0313B6
:1025D8004FEA0411D0503FF421AF2B18194402EBF5
:1025E800011290601AE71D4E05EB04174FF0010821
:1025F800002C06EB0717C7F80C800FDD631E05EBF0
:10260800031306EB0313C3F804800CE7FFF750F835
:1026180000283FF41BAF46F8089052E7FFF748F848
:1026280000283FF413AFC7F8048008E7FFF740F825
:1026380000283FF40BAF06EB0513C3F80C7F79E7CE
:10264800FFF736F800283FF401AF06EB0424C4F87E
:10265800F880B0E7EC0D0020F00D0020000E0020FF
:102668002DE9F843B24B4FF0FF304FF0FF31A3F1A3
:102678004006344606F58862403343E9200143E9C1
:102688001E0143E91C0143E91A0143E9180143E922
:10269800160143E9140143E912019342ECD1A54B19
:1026A8001B68002B40F04181C6E98733C6E97733C0
:1026B800FFF7CEFC0025074631E06368002B38D0D1
:1026C800A368002B3DD0E368002B42D02369002B80
:1026D80047D06369002B4CD0A369002B51D0E36924
:1026E800002B56D0236A002B5BD0636A002B60D086
:1026F800A36A002B65D0E36A002B6AD0236B002BFA
:102708006FD0636B002B74D0A36B002B79D0E36B75
:10271800002B7ED001354034102D00F084802368D2
:10272800002BCAD129463846FFF7B2FC6368002B54
:10273800C6D105F110013846FFF7AAFCA368002BA3
:10274800C1D105F120013846FFF7A2FCE368002B50
:10275800BCD105F130013846FFF79AFC2369002BFC
:10276800B7D105F140013846FFF792FC6369002BA9
:10277800B2D105F150013846FFF78AFCA369002B56
:10278800ADD105F160013846FFF782FCE369002B03
:10279800A8D105F170013846FFF77AFC236A002BAF
:1027A800A3D105F180013846FFF772FC636A002B5C
:1027B8009ED105F190013846FFF76AFCA36A002B09
:1027C80099D105F1A0013846FFF762FCE36A002BB6
:1027D80094D105F1B0013846FFF75AFC236B002B62
:1027E8008FD105F1C0013846FFF752FC636B002B0F
:1027F8008AD105F1D0013846FFF74AFCA36B002BBC
:1028080085D105F1E0013846FFF742FCE36B002B68
:1028180080D105F1F001013538464034FFF738FC26
:10282800102D7FF47CAF444D3846FFF77FFC00281D
:1028380058D13846FFF754FC434200F00F0803F024
:102848000F0358BFC3F1000800284FEA0814B8BFA7
:102858000F304FEA201904EB20100301EB58012B2D
:1028680006D009F10101621856F82230013346D02A
:1028780004EB090305EB03125268012A07D008F19B
:10288800010109EB011056F82020013242D004EB77
:10289800090305EB03129268012A06D009F1FF31FA
:1028A800601856F8202001321ED04C4405EB041362
:1028B800DB68012BB8D008F1FF3809EB081356F88C
:1028C80023200132B0D156F82420384608EB0911EC
:1028D800013246F82320FFF7DBFB3846FFF726FCDA
:1028E8000028A6D0BDE8F88356F8233008EB01117C
:1028F800013346F820303846FFF7CAFBD5E756F8CB
:10290800203008EB01113846013346F82230FFF732
:10291800BFFBADE756F8233001EB0911013346F848
:1029280020303846FFF7B4FBB1E700233360BFE639
:1029380040020020E80D0020000E0020B64B4FF0AA
:10294800FF304FF0FF312DE9F047A3F14006344640
:1029580006F58862403343E9200143E91E0143E953
:102968001C0143E91A0143E9180143E9160143E947
:10297800140143E912019342ECD101230025DFF849
:10298800A0824FF0FF32C6E987553260C6E9775515
:10299800C8E97733C8E98733FFF75AFB074631E0C0
:1029A8006368002B38D0A368002B3DD0E368002B68
:1029B80042D02369002B47D06369002B4CD0A36910
:1029C800002B51D0E369002B56D0236A002B5BD033
:1029D800636A002B60D0A36A002B65D0E36A002BE2
:1029E8006AD0236B002B6FD0636B002B74D0A36B62
:1029F800002B79D0E36B002B7ED001354034102DAD
:102A080000F084802368002BCAD129463846FFF796
:102A18003FFB6368002BC6D105F110013846FFF76C
:102A280037FBA368002BC1D105F120013846FFF719
:102A38002FFBE368002BBCD105F130013846FFF7C6
:102A480027FB2369002BB7D105F140013846FFF772
:102A58001FFB6369002BB2D105F150013846FFF71F
:102A680017FBA369002BADD105F160013846FFF7CC
:102A78000FFBE369002BA8D105F170013846FFF779
:102A880007FB236A002BA3D105F180013846FFF725
:102A9800FFFA636A002B9ED105F190013846FFF7D3
:102AA800F7FAA36A002B99D105F1A0013846FFF780
:102AB800EFFAE36A002B94D105F1B0013846FFF72D
:102AC800E7FA236B002B8FD105F1C0013846FFF7D9
:102AD800DFFA636B002B8AD105F1D0013846FFF786
:102AE800D7FAA36B002B85D105F1E0013846FFF733
:102AF800CFFAE36B002B80D105F1F00101353846A0
:102B08004034FFF7C5FA102D7FF47CAF434C3846AC
:102B1800FFF70CFB00285CD13846FFF7E1FA434287
:102B280000F00F0903F00F0358BFC3F10009002894
:102B38004FEA0915B8BF0F304FEA201A05EB2010ED
:102B480058F82030002BE2D00301E358012B06D0BF
:102B58000AF101016A1856F8223001333BD005EB1F
:102B68000A0304EB03125268012A07D009F1010194
:102B78000AEB011056F82020013237D005EB0A0382
:102B880004EB03129268012A06D00AF1FF31681893
:102B980056F82020013234D0554404EB0513DB6885
:102BA800012BB4D009F1FF310AEB011256F822309B
:102BB8000133ACD156F82530384601EB0A11013300
:102BC80046F82230FFF764FA3846FFF7AFFA0028D4
:102BD800A2D0BDE8F08756F8203009EB011138463D
:102BE800013346F82230FFF753FAB8E756F8233096
:102BF80001EB0A11013346F820303846FFF748FA4E
:102C0800BCE756F8233009EB0111013346F82030B0
:102C18003846FFF73DFABFE740020020000E0020CB
:102C2800001E0020AE4AAF48D2E9003170B501EB72
:102C38000312AD4C012500784FEA031C44F82250DA
:102C4800002849D11201A94CA258AA4207D04A1912
:102C5800A748624450F82220B2F5967F78D903201D
:102C68004FF496728C4404EB0C1CDCF80440DCF83E
:102C78000C50012C19D05C1C9D4E01EB041456F825
:102C88002440944211D80BD2012D07D0013B01EB0F
:102C9800031356F823309C4280F01881022070BD3F
:102CA800944E3668012E00F01481012D0FD0013B9F
:102CB8008F4C01EB031354F82330934207D89A4200
:102CC80000F2BA808B490968032900F00581B2F542
:102CD800967F08BF022070BD01284ED002285DD023
:102CE8000328DBD11201814CA258012A08D04A1CC2
:102CF8007F4D624455F82220B2F5967F40F2E3807A
:102D08004FF496720CEB010504EB051EDEE9024553
:102D1800012C27D04C1E764E644456F82440944229
:102D280020D819D2012D00F08780013B01EB031355
:102D380056F823309C427FD3224600209A4200F264
:102D4800E2806C490968032904BF1A460120BEE7DE
:102D580000F0AF80284685E7664E3668022E01D11E
:102D680022460020012DB2D0013B614C01EB031338
:102D780054F823309342AAD8E0E75C4C1201A258D9
:102D8800012A5BD04A1C5A48624450F82220B2F506
:102D9800967F53D800F0B080002052E0534C04EBEB
:102DA80002125268012A09D05A1C514801EB02123A
:102DB80050F82220B2F5967F40F2828003204FF42B
:102DC80096720CEB010504EB0514D4E90265012E9B
:102DD80025D04C1E464E644456F8244094421ED8D2
:102DE80017D2012D00F08F80013B01EB031356F839
:102DF80023309C42C0F08780224601209A423FF649
:102E08004DAF3C49096803297FF461AF02201A4697
:102E18005DE7384E3668022E01D122460120012D89
:102E28003FF455AF013B324C01EB031354F8233008
:102E380093423FF64CAFE1E7002070BD03204FF40A
:102E480096720CEB010504EB0514D4E90154012D2D
:102E58001AD00133264E01EB031356F8235095423E
:102E680012D80BD2012C4ED04B1E01209C4456F890
:102E78002C309D42FFF413AF2A4610E01D4B1B680F
:102E8800012B04BF18462A46012C3FF420AF4B1EE5
:102E98001749634451F8233093423FF618AF9342E1
:102EA800FFF4FCAE13490968022904BF1A46084614
:102EB8000DE710480068002814BF03202846D1E613
:102EC80023D000207DE727D002201BE722460220DE
:102ED800F5E622460220E8E600201A46F7E600BF9B
:102EE800F00D0020EC0D0020001E0020000E002038
:102EF80000020020F80D00200A480068002814BFCE
:102F0800032000209DE7012070BD064800680128C5
:102F180014BF0320002054E7024D2D68002D08BF80
:102F28000220EFE6F80D00202DE9F84F794D7A4F91
:102F38007A4ED5E9002303EB021357F82330002B10
:102F480037D04FF0000A4FF002090024FFF76AFE5D
:102F5800002863D002283ED0012840F0D58031787F
:102F6800D5E90023032905D8DFE801F02F2C320228
:102F7800013A2A6003EB0213013457F82330002B7F
:102F8800E4D14FF0030B4FF0000808F10108FEF7F9
:102F980065F8A045F9DBBBF1000F49D0BBF1020F82
:102FA8002AD0D5E9002303EB021357F82330002B6E
:102FB800CBD1FEF753F83378032B60D8DFE803F062
:102FC800A05C9C9801322A60D4E701336B60D1E79A
:102FD800013B6B60CEE73378032B0BD8DFE803F0B7
:102FE800160F080286F800A034B14FF0020BCAE7AA
:102FF80003233370002CF8D1FEF7D6F8D1E786F812
:103008000090002CF1D1FEF7CFF8CAE74FF001038A
:103018003370002CE9D1FEF7C7F8C2E73378032BE9
:1030280005D8DFE803F0021C1410032333709CB9A1
:10303800FEF73AF8D5E9002303EB021357F82330DB
:10304800002B82D1B5E786F800902CB9F0E74FF055
:1030580001033370002CEBD04FF0000B93E786F898
:1030680000A0002CF8D1FEF71FF8D5E9002303EBE8
:10307800021357F82330E3E72B6801332B60FEF780
:1030880013F83378032B05D8DFE803F02F2C022937
:1030980001233370FEF708F83378032B05D8DFE8EF
:1030A80003F017100209012333701D4B01221A6027
:1030B800BDE8F88F022301223370194B1A60BDE86E
:1030C800F88F002301223370154B1A60BDE8F88F82
:1030D800032301223370124B1A60BDE8F88F0223D4
:1030E8003370D7E700233370D4E703233370D1E775
:1030F8002B68013B2B60C2E76B68013B6B60BEE746
:103108006B6801336B60BAE7002C3FF44AAF834623
:1031180039E700BFF00D002000020020EC0D002070
:10312800E80D00202DE9F843394C4FF00008394FDD
:10313800394EDFF8EC90394D3068D4E9003202EBB3
:10314800031157F8211020B113430B430AD0BDE8EF
:10315800F88369B9324A0121136831600B4413605E
:10316800BDE8F883D9F8002033600132C9F800209F
:10317800FFF742F9FFF774FAFFF754FD002831D042
:1031880002281AD00128D7D12B78032B06D8DFE8DC
:1031980003F00C0810022368013B2360FDF75EFF73
:1031A800CAE7236801332360F8E763680133636083
:1031B800F4E76368013B6360F0E72B78032B05D8DD
:1031C800DFE803F0070D0A0285F80080FDF7ECFF41
:1031D800B2E701232B70F9E703232B70F6E70223EC
:1031E8002B70F3E72B78032B05D8DFE803F00A07E9
:1031F8000D0202232B70FDF757FF9DE785F800802D
:10320800F9E703232B70F6E701232B70F3E700BFE0
:10321800F00D002000020020E80D0020EC0D002039
:10322800E40D00202DE9F047474D4FF00109474CC8
:103238004FF0000A464F474EDFF81C813068D4E94A
:10324800003202EB031157F8211038B313430B4334
:1032580067D0FFF7D1F8FFF703FAFFF7E3FC002880
:1032680035D002283AD00128E8D12B78032B06D88C
:10327800DFE803F00C1008022368013B2360FDF728
:10328800EDFEDBE76368013B6360F8E763680133E1
:103298006360F4E7236801332360F0E741B12B78DA
:1032A800032B46D0022B4AD000232B70BDE8F087B1
:1032B800D8F80030C6F800900133C8F80030FFF79E
:1032C8009BF8FFF7CDF9FFF7ADFC0028C9D12B78A3
:1032D800032B1AD8DFE803F01F1C22172B78032BC7
:1032E80005D8DFE803F0070D0A0285F800A0FDF70E
:1032F8005BFFA3E785F80090F9E703232B70F6E757
:1033080002232B70F3E702232B70FDF7CDFE95E720
:1033180085F800A0F9E703232B70F6E785F80090FD
:10332800F3E70D4A33601368013313602B78032BDE
:10333800B8D1FDF739FF00232B70BDE8F087FDF702
:1033480033FFFDF731FFF6E7EC0D0020F00D00200C
:1033580000020020E80D0020E40D0020074B82B099
:10336800D3F8F42042F00202C3F8F420D3F8F43082
:1033780003F002030193019B02B070470044025816
:1033880010B5BAB000210446C0220AA80891CDE9B8
:103398000411CDE90611FDF718FA3F4B22689A424D
:1033A80001D03AB010BD9FED387B02230C220AA849
:1033B8000C930F938DED0A7B9FED357BCDE90D23A3
:1033C80020238DED107B129302F0FCF8002856D1D3
:1033D800324B802003210024D3F8D82042F0200269
:1033E800C3F8D820D3F8D82002F020020092009A1F
:1033F800D3F8E02042F00102C3F8E020D3F8E0203F
:1034080002F001020192019AD3F8E02042F004028E
:10341800C3F8E020D3F8E02002F004020292029AF6
:10342800D3F8E02042F00202C3F8E020D3F8E030FD
:10343800069403F00203CDE90401039304A9184894
:10344800039B03F0C1FB3022032304A9154806940B
:10345800CDE9042303F0B8FB0323022204A9124890
:103468000694CDE9042303F0AFFB22460221122083
:1034780005F05EFA122005F097FA3AB010BDFEF793
:10348800D3FDA5E7AFF300800000080000000000AE
:1034980002000000C0000000002002400044025862
:1034A80000000258000802580004025800000000FA
:1034B80010B5B8B000210446C02208A80691CDE98D
:1034C8000211CDE90411FDF780F91F4B22689A42D9
:1034D80001D038B010BD0822002308A8CDE9082380
:1034E80002F070F840BB194C042202A91848D4F81D
:1034F800E03043F00203C4F8E030D4F8E03006923C
:10350800002203F002039FED0E7B0093009B002333
:103518008DED027BCDE9042303F056FBD4F8E830A7
:1035280043F48003C4F8E830D4F8E83003F48003A7
:103538000193019B38B010BDFEF776FDD3E700BFBD
:10354800000C00001200000000580040004402581F
:1035580000040258000000003D4A036810B5934279
:103568008CB04FF00004CDE90644CDE908440A9434
:1035780019D0384A934207D0374A934222D0374A63
:10358800934235D00CB010BD354BD3F8E82042F04B
:103598000402C3F8E820D3F8E83003F004030293E8
:1035A800029B0CB010BD2E4BD3F8F02042F0010264
:1035B800C3F8F020D3F8F03003F001030193019B26
:1035C8000CB010BD264B224621463720D3F8E840E0
:1035D80044F02004C3F8E840D3F8E83003F02003AF
:1035E8000393039B05F0A4F9372005F0DDF9C9E73B
:1035F8001B4B06A91B48D3F8F02042F00202C3F87F
:10360800F020D3F8F02002F002020492049AD3F8D2
:10361800E02042F00402C3F8E020D3F8E03003F0E1
:1036280004039FED097B05930323059A0A938DED07
:10363800067B03F0C9FA224621462E2005F078F9C8
:103648002E2005F0B1F99DE70002000002000000FD
:103658000000014000080040001400400004014040
:103668000044025800080258036830B5B3F1804F8F
:103678008DB04FF00004CDE90644CDE908440A9422
:1036880004D0354A93423ED00DB030BD334B0125AE
:103698003348D3F8E82042F00102C3F8E820D3F811
:1036A800E82002F001020192019AD3F8E02042F0EA
:1036B8000102C3F8E020D3F8E02002F001020292F0
:1036C800029AD3F8E02042F00202C3F8E0204FF457
:1036D8000042D3F8E0300A9503F002030393022373
:1036E800039906A9CDE9062303F06EFA08220223FE
:1036F80006A91C480692CDE90734CDE9094503F02F
:1037080063FA0DB030BD154B022406A91448D3F84E
:10371800E82042F00802C3F8E820D3F8E82002F0D5
:1037280008020492049AD3F8E02042F00102C3F898
:10373800E020D3F8E0300A9403F001039FED047B06
:103748000593059B8DED067B03F03EFA0DB030BD69
:103758000300000002000000000C00400044025872
:10376800000002580004025825490023026810B5D9
:103778008A4288B0CDE90233CDE90433069304D0F8
:10378800204B9A4218D008B010BD1F4B012402A943
:103798001E48D3F8E0202243C3F8E020D3F8E030F5
:1037A800069423409FED127B0093009B8DED027BD6
:1037B80003F00AFA08B010BD134B022402A91448FA
:1037C800D3F8E02042F00802C3F8E020D3F8E03054
:1037D800069403F008039FED087B0193019B8DED90
:1037E800027B03F0F1F908B010BD00BFAFF3008011
:1037F800000300000200000000400000020000007A
:10380800000001400008004000440258000002582F
:10381800000C025830B5B9B000210446C02208A8EF
:103828000691CDE90211CDE90411FCF7CEFF2F4B2B
:1038380022689A4201D039B030BD0222002308A87C
:10384800CDE9082301F0BEFE002848D1284B072007
:1038580002A9D3F8E82042F48022C3F8E820D3F87C
:10386800E82002F480220092009AD3F8E02042F087
:103878000802C3F8E0204FF44072D3F8E030069015
:1038880003F008031B4801930223019D1A4DCDE95B
:10389800022300220023CDE9042303F095F92D2209
:1038A8001649002328466B62C5E900124FF480626E
:1038B800C5E90233C5E905332A61C5E9073303F0D1
:1038C800C1FB78B9002201212720C4F88050AC63DD
:1038D80005F02EF8272005F067F839B030BDFEF75F
:1038E800A3FBB3E7FEF7A0FBECE700BF00480040EE
:1038F80000440258000C02589809002010000240A9
:10390800FEE700BFFEE700BFFEE700BFFEE700BF1F
:10391800FEE700BF704700BF704700BF704700BF99
:1039280005F00AB9014804F077BC00BF98090020E7
:10393800014800F0E3B800BF800D0020014806F000
:10394800C9BE00BF100A0020014806F09BB900BF9D
:10395800A40A0020014806F095B900BFF00A00202B
:103968000120704708B507F0DBFE162203464FF02A
:10397800FF301A6008BD00BF08B507F0D1FE162356
:103988000360FEE770B5161E07DD0C468D19AFF310
:10399800008004F8010BA542F9D1304670BD00BF84
:1039A80070B5161E07DD0C468D1914F8010BAFF320
:1039B8000080AC42F9D1304670BD00BF4FF0FF30F7
:1039C800704700BF4FF4005300204B60704700BFA2
:1039D80001207047002070470D4903460D4A0868CA
:1039E80010B50D4C121B20B10344934207D80B604D
:1039F80010BD0A4C20460C6003449342F7D907F0E7
:103A08008FFE0C2203464FF0FF301A6010BD00BF36
:103A180000220020000002200004000008220020EC
:103A28002749284AD1F8883043F4700310B4C1F804
:103A38008830136803F00F03062B05D8136823F0AA
:103A48000F0343F0070313601F4B00241F4A196834
:103A58001C4841F0010119601C6119680A401A608C
:103A680003681B0705D5036823F00F0343F007031A
:103A78000360154B00221649164C17489A61DA6103
:103A88001A629C62D86219635A639963DA6319648B
:103A98005A641868114C20F48020114918601A667D
:103AA80023681940B1F1005F03D20E4B0122C3F81D
:103AB80008210D4B43F2D2025DF8044B1A6070479F
:103AC80000ED00E000200052004402587FEDF6EAC5
:103AD80080020101000202020000FF010010005CE8
:103AE8000000FFFF00800051004000520368186C7E
:103AF800704700BF704700BF704700BFF8B58E4AD7
:103B08000446036893421D685E6800F0958002F5DC
:103B18008072934200F09080884A9768A90707F05E
:103B28001F0702D5B20700F1AA80690779D5720785
:103B380077D5626DD20603D4626D42F40072626575
:103B4800DA6812F4406F1CD17D4A934200F0E78096
:103B5800DA68910415D41A68120712D59A685007C2
:103B680000F1F2805A6822F00C025A60636D23F467
:103B780080736365636DD90403D4636D43F00103F7
:103B880063652046FDF7C4FC23680C221A60AA0668
:103B98004DD5B0064BD5626DD00603D4626D42F4A4
:103BA800005262656649DA6C8B42D86802F4C072CA
:103BB80073D0D968D2B98A0100F1A9801A68500671
:103BC80014D5890212D49A68120700F1C8805A687D
:103BD80022F060025A60636D23F480536365636D5D
:103BE800D80503D4636D43F001036365204600F0F4
:103BF800ADFD236860221A60290601D532065FD41C
:103C0800E80501D5F10566D4AA0501D5B0054BD460
:103C1800E90601D5F20611D4690501D5720566D405
:103C2800F8BD2807B3D5310783D4AA06B1D46906ED
:103C3800E2D57206E0D5AEE7424A6EE7226B7AB16A
:103C4800002F75D03C4A934200F0878002F58072BD
:103C5800934200F08280394A926812F4404F0BD0A8
:103C6800636D204643F480636365A36D43F00203EC
:103C7800A365FFF741FF236810221A60CCE7636D44
:103C8800D80603D4636D43F400636365204600F0EF
:103C980065FD236802221A6047E7C121F940C90778
:103CA80087D42549C96885E7636D204643F4802396
:103CB800636500F051FD23684FF400721A60A7E7AE
:103CC800636D204643F480336365FFF713FF236871
:103CD80080221A6094E7636D204643F400336365DD
:103CE80000F038FD23684FF480721A608CE7626D2B
:103CF8004FF48061204642F480426265A26D42F032
:103D08000802A2651960BDE8F84000F021BD00F482
:103D1800406001F4005202437FF468AF4EE740F27E
:103D28002122FA40D0073FF513AF034AD26810E7C3
:103D3800DA689007A0D093E7002002400063025899
:103D48000021024000230240636D43F010036365C5
:103D5800A36D43F00103A36513E7054A7CE7636D90
:103D680043F010036365A36D43F00103A3653DE7CA
:103D780000230240F0B5002283B0019290F8502051
:103D8800012A00F0388101240268034680F8504077
:103D98009068450709D55A6D012042F020025A65FE
:103DA800002283F8502003B0F0BD0D68002D4FEAC3
:103DB80095600DDBC5F31306002E00F09A8095FA86
:103DC800A5F515B1B5FA85F5AC40D5692C43D46194
:103DD8004C684FF01F0C02F1300E00F01F00A509CF
:103DE80004EA0C0405F00C050CFA04FCA0405EF88B
:103DF800054024EA0C0C4CEA00004EF805009068D7
:103E080010F0040F906801D100071AD59068C70711
:103E180015D4CE680C6806F01807BD48D2F8C05013
:103E2800F840C4F31307204025EA07052843C2F8E1
:103E3800C000B848864200F09180002C5BDB00206F
:103E4800AEE70C6802F1140C4FF0070E8E68E50D12
:103E5800C4F3045405F004050EFA04FE06FA04F44B
:103E68005CF8050020EA0E0020434CF80500AA483B
:103E78004D69006800F07040B0F1805FD06868D08C
:103E880010F0100FD06864D0400800F0080085409A
:103E98000E690868042E00F0B18002F1600C00F091
:103EA800F8445CF8260000F00040204328434CF812
:103EB80026004C7E0D69A4F101045CF82500B4FAD3
:103EC80084F420F00040640940EAC4704CF82500EE
:103ED800087E0D69A0F10100146905F01F05B0FA0C
:103EE80080F024F4F0444009C002A8402043106147
:103EF8008CE7844069E789498A4200F0BE8001F571
:103F080080718A4200F0B98001F1C051844D01F5F9
:103F180084418868AE68F6073FF53DAF814E00F0F2
:103F2800E077B44200F006817F4EB44200F0E280B0
:103F38007E4DAC4283D1400281D4794882427FF4DD
:103F48007EAF8A6822F0E0723A4342F480028A60C7
:103F580075E7C0F382004000854099E7002F69D0DB
:103F680094FAA4F0002800F0A180B0FA80F00130A3
:103F780000F01F00092840F2998094FAA4F0002864
:103F880000F0FE80B0FA80F00130800600F0F840C2
:103F980094FAA4F5002D00F0F180B5FA85F5012614
:103FA800013505F01F0506FA05F5284394FAA4F42F
:103FB800002C00F0E180B4FA84F46FF01D06651C53
:103FC800032405F01F0514FB0564240544F0007460
:103FD800204302F114060727C50DC0F3045005F06D
:103FE80004058740745924EA07048F6887403C43D6
:103FF80074510C6821E7022003B0F0BD156E8406E9
:1040080005F0F845B5EB806F32D0506E00F0F840FF
:10401800844228D0906E00F0F84084421ED0D06EC2
:1040280000F0F84084427FF4F1AED06E20F00040FA
:10403800D066EBE6A40E0120013404F01F05A406A7
:10404800A84004F0F844092D40EA040005EB4504B3
:104058004ED91E3C240544F00074B9E7906E20F058
:1040680000409066DBE7506E20F000405066D1E7D4
:10407800106E20F000401066C7E7284D2C4905F562
:104088008075886855F8F86CAD68ED073FF583AE24
:10409800F7073FF580AE234DAC423FF4D0AE224D3A
:1040A800AC423FF4CCAE00F0E07741E794FAA4F0DC
:1040B80000286DD0B0FA80F00130800600F0F8409A
:1040C80094FAA4F5002D61D0B5FA85F501260135DD
:1040D80005F01F0506FA05F5284394FAA4F4002C08
:1040E80051D0B4FA84F4013404F01F0404EB4404FE
:1040F80024056DE7C4013FF5A2AEAA427FF49FAE46
:104108008A6822F0E0723A4342F080728A6096E64A
:10411800FFFF0F000000FF470010005C0020024076
:1041280000600258000084CB000052C70000B8CFDE
:104138000023024006023FF582AEAA427FF47FAE1A
:104148008A68154822F0E0723A4342F400028A6015
:10415800026812499209A1FB021292090132520027
:104168000192019A002A3FF46AAE019A013A01923B
:10417800019A002AF9D162E6094C29E7022514E7D9
:104188004FF0806004E74FF4401421E70225A3E7CD
:104198004FF0806094E700BF04060020632D3E05C1
:1041A800000050FE03689A68D10701D500207047C7
:1041B8009968234A114270B504462FD19968214A5B
:1041C8000A4042F001029A6004F0C2FC23681E4AC9
:1041D800054693422CD002F58072934228D002F112
:1041E800C05202F5844292681A68D20714D4154E58
:1041F8009A68D00704D49A68324042F001029A6063
:1042080004F0A6FC431B022B236802D91A68D107C5
:1042180004D51A68D207EBD5002070BD636D012064
:1042280043F010036365A36D43F00103A36570BDFC
:10423800064A9268D606D7D0054A9342D4D1EBE70E
:104248003F000080C0FFFF7F0020024000230240A3
:1042580000210240534A0368934270B5044665D072
:1042680002F58072934261D04F4A96689D6815F0B6
:10427800040561D194F85030012B5DD0012320460C
:1042880084F85030FFF78EFF002857D1636D06F091
:104298001F06464A1A40236842F480726265444AFF
:1042A80093424ED01946626D22F480126265626DA7
:1042B80012F4805263D0A26D22F00602A2651C227D
:1042C80025691A600022082D84F850205A6822F0C7
:1042D8001C025A605A680CBF42F0080242F00402FD
:1042E8005A60226B1AB95A6842F010025A608B421F
:1042F8002BD040F22122F240D60726D4626D42F438
:1043080080126265CA6892010FD5626D082D22F489
:10431800405242F4805262655A683AD022F0400214
:104328005A605A6842F020025A6070BD214A966865
:104338009D6815F004059DD0022070BD84F850508A
:1043480070BD1849002EB2D1ADE7DA6891010FD5DA
:10435800626D082D22F4405242F4805262655A6818
:104368000FD022F040025A605A6842F020025A6088
:104378009968114A0A4042F004029A6070BDA26529
:104388009DE722F020025A605A6842F040025A60C3
:10439800EEE722F020025A605A6842F040025A6062
:1043A80070BD00BF0020024000630258FEF0FFFF0E
:1043B8000021024000230240C0FFFF7F38B5564A63
:1043C80004460368934225D002F58072934221D0B7
:1043D800524B9B6813F4403F21D000F03FFF6368C5
:1043E8000546B3F5003F00F08680B3F5403F6FD037
:1043F800B3F5803F7FD004F0C3FB41F2030398423A
:104408004BD8474A236895422AD99A6842F4807261
:104418009A6038BD434B9B6813F4403FDDD14FF49D
:104428000020002102F008FA63680546B3F5101F62
:104438006BD008D8B3F5E01F54D016D9B3F5001FD8
:10444800D9D14509D7E7B3F5201F49D0B3F5301FB7
:10445800D1D104F095FB41F2030398422ED823688A
:104468009A6822F480729A6038BDB3F5801F06D02E
:104478000AD9B3F5A01F02D0B3F5C01FBBD19B0C5E
:104488005B00B5FBF3F5B6E7B3F5002FF7D023F4DF
:104498000022B2F5802FF2D0ADE7234A2368954277
:1044A80011D9224A95421FD9214A95429A682ED895
:1044B80022F4407242F400729A6038BD1A4BB3EB92
:1044C800152F236810D39A6822F440729A6038BD79
:1044D800850804F055FB41F203039842DDD890E7C4
:1044E800C50988E7050986E79A6822F4407242F40C
:1044F80080729A6038BD1B0CB5FBF3F504F040FBE5
:1045080041F203039842C8D87BE7850973E742F470
:1045180040729A6038BD00BF002002400063025814
:10452800002D31010023024021BCBE0041787D01ED
:1045380081F0FA0270B5002382B00193002800F0E0
:10454800A980456D0446002D00F0AA802268936872
:104558009E0003D59168714B0B4093609368DD0012
:1045680016D46F4B6F491B6890689B09A1FB031316
:104578006D499B090140013341F0805191600193DD
:10458800019B2BB1019B013B0193019B002BF9D1AE
:104598009368D80000F18280636D012543F0100311
:1045A8006365A36D2B43A365936813F0040F636DD4
:1045B8006CD1D9066AD4636D23F4817343F0020386
:1045C80063659368DB070CD4584B9A4200F08180EE
:1045D80003F580739A427CD0554B9B68D90740F10C
:1045E800898004F0CDFA41F20303A1689842237F41
:1045F8005CD894F815C01A04206B42EA4C32024386
:104608000A43012B03D1236A013B42EA4342636A0E
:1046180023B103F47873A16A0B431A43236845490D
:10462800D86801401143D9609A6812F0040F9A685B
:104638001CD112071AD4D8683F4A217D024042EAA9
:104648008132E16A0A43DA6094F83820012A53D0AB
:104658001A6922F001021A611A692046616B22F078
:1046680070420A431A61FFF7A9FE2368E268012A2B
:1046780027D01A6B22F00F021A63636D284623F0C5
:10468800030343F00103636502B070BD636D43F03B
:10469800100363650125284602B070BD002583E735
:1046A800FEF76EFEA56584F850504FE71029A0D19B
:1046B800617D1A0442EA4132216B0A4342F01C022E
:1046C8009FE7196BA26921F00F01013A0A431A63A7
:1046D800D3E7164A194B92689B68DE0781D4D00746
:1046E8003FF57FAF164A9368616823F47C130B4348
:1046F800936076E7134AF6E7D4E90F12666C01393E
:104708001869324342EA0142A16C0A430E4901404A
:104718000A4342F001021A619EE700BFC0FFFF5F33
:1047280004060020632D3E05C0FFFF6F00200240F5
:104738000060025803C0F0FFFCBFFFFF00210240E9
:1047480000230240006302581EF800FC704700BFB7
:10475800704700BF704700BF704700BF704700BF79
:10476800F0B490F850209AB00E68012A38D0034669
:10477800284D002201201C681692AC4283F8500094
:10478800179208D0596D83F8502041F020015965DF
:104798001AB0F0BC7047204A906840070BD5A26851
:1047A8005A6D012042F020025A65002283F85020F9
:1047B8001AB0F0BC7047A0684507F1D4A6B91749EC
:1047C800886820F440408860A0689268D40705D4BF
:1047D800C50703D48868124A02408A600020E4E7CB
:1047E80002201AB0F0BC70470C4F4D68B86820F42E
:1047F80040402843B860A0689268D407EED4C20746
:10480800ECD48A68B8680649324301400A43BA6062
:10481800E4E700BF002002400021024000230240DC
:10482800E0F0FFFF334B30B4996A9C6ADD6A14F4F8
:104838007C7F5A6BC4F3051036D0C2F3CC0205F066
:10484800010501F0030107EE900A05FB02F20129B8
:10485800B8EEE77A06EE902AFAEEE96A02D0022963
:1048680042D019B3DFED247A87EE876A1B6BC3F356
:10487800080307EE903AF7EE005AF8EEE77A77EE7B
:10488800A67A77EEA57A67EE867A1A4B1B6BC3F386
:104898004623013307EE103AF8EEC76A87EEA67A88
:1048A800FCEEC77A17EE900A30BC70471A68920679
:1048B8001DD51968F7EE005A104A1B6BC1F3C101E8
:1048C800C3F30803CA4007EE903A06EE102AF8EE42
:1048D800E77AB8EEC66A77EEA66AC6EE077A36EECB
:1048E800A57A67EE877AD0E7DFED057ABCE7DFEDDA
:1048F800057AB9E7004402580024744A0090D003AE
:1049080020BCBE4B0024744C002800F0E982F8B5A6
:1049180003680446D9072ED597490A69896A02F0BF
:104928003802102A00F0EE80182A00F0E68063684A
:10493800B3F5803F00F01181002B00F06781B3F5DB
:10494800A02F8D4B1A6800F08A8222F480321A60F8
:104958001A6822F480221A6004F0FAF8864E054696
:1049680005E004F0F5F8401B642800F24D81336837
:104978009B03F6D523689D0770D4D90633D57E4AA4
:104988001369926A03F03803082B00F0CB80182BC8
:1049980000F0C380E369784D002B00F06F812B682D
:1049A80043F080032B6004F0D3F8064605E004F0DA
:1049B800CFF8801B022800F227812B68DB05F6D58B
:1049C80004F0DEF841F20303984200F26982226A99
:1049D8006B68202A23F0F8430CBF43F0804343EA76
:1049E80082636B6023681D0716D56369624D002BCF
:1049F80000F022816B6F43F001036B6704F0A8F8A5
:104A0800064605E004F0A4F8801B022800F2FC80AA
:104A18006B6F9807F6D523689A0616D5A369564D85
:104A2800002B00F01A812B6843F480532B6004F0AC
:104A38008FF8064605E004F08BF8801B022800F288
:104A4800E3802B689F04F6D52368590700F18B8013
:104A5800636A002B40F0BF800020F8BD464A136906
:104A6800926A13F038032DD1434BE2681B6859074B
:104A780001D5002A4FD0404D2B6823F0190313436A
:104A88002B6004F065F8064605E004F061F8801B29
:104A9800022800F2B9802B685B07F6D504F070F89D
:104AA80041F20303984200F2108122696B68402AA0
:104AB80023F47C330CBF43F4003343EA02336B60C6
:104AC80023685AE7182B00F0FC802B4DE2682B680E
:104AD800002A00F0E58023F0190313432B6004F04B
:104AE80037F8064605E004F033F8801B022800F288
:104AF8008B802B685F07F6D5D0E701F00301022908
:104B08007FF415AF1C4A126892037FF534AF6268D0
:104B1800002A7FF430AF0120F8BD02F00302012A19
:104B28007FF438AF144B1B68DA0502D5E369802B94
:104B3800F1D104F025F841F20303984200F2CE8047
:104B4800226A202A00F0BB810B494B6823F0F84306
:104B580043EA82634B60236845E7074A136843F4D6
:104B680080331360F8E6054D2B6843F480732B609F
:104B780003F0EEFF064608E00044025800480258D9
:104B880003F0E6FF801B64283ED82B68DA05F7D5CA
:104B9800A368012B00F08D81002B00F06881052BA4
:104BA800854B1A6F00F0948122F001021A671A6F80
:104BB80022F004021A6703F0CBFF7F4E41F28837D8
:104BC800054604E003F0C4FF401BB8421CD8336F0D
:104BD8009B07F7D53CE7784D2A6902F03802182A76
:104BE80000F0F080022B2B6823F080732B607FD0BD
:104BF80003F0AEFF04462B689B017FF52DAF03F051
:104C0800A7FF001B0228F6D90320F8BD6A4D2B68C0
:104C180023F480332B602B6823F480232B6003F06C
:104C280097FF064604E003F093FF801B6428EBD847
:104C38002B689F03F7D49DE66B6F23F001036B6726
:104C480003F086FF064604E003F082FF801B02287B
:104C5800DAD86B6F9907F7D4DDE62B6823F4805315
:104C68002B6003F075FF064604E003F071FF801B1C
:104C78000228C9D82B689804F7D4E5E62B6823F0F6
:104C880080032B6003F064FF064604E003F060FF36
:104C9800801B0228B8D82B68DF05F7D42368A2E662
:104CA80023F001032B6003F053FF064604E003F0F2
:104CB8004FFF801B0228A7D82B685807F7D4236812
:104CC8005BE690077FF401AFCEE66B68226923F0BC
:104CD800FE4343EA02636B6023684EE6364A216A64
:104CE800D36823F07C5343EA0163D36023687AE6F0
:104CF80003F02EFF064604E003F02AFF801B02287B
:104D080082D82B689901F7D4A96A2C4BA26A0B4068
:104D18002B49294E1343E26A43EA0213AB62D4E9F2
:104D28000D32013B013A5B0212049BB202F4FE020F
:104D38001343226B013AC2F308021343E26B013AB0
:104D4800120602F0FE4213432B63EB6A23F00103C1
:104D5800EB626A6BA36C114041EAC3016963EB6AB9
:104D6800226C23F00C031343EB62EB6A626C23F0B2
:104D780002031343EB62EB6A43F48033EB62EB6AA2
:104D880043F40033EB62EB6A43F48023EB62EB6A93
:104D980043F00103EB622B6843F080732B6003F050
:104DA800D7FE044633689A013FF556AE03F0D0FEAD
:104DB800001B0228F6D927E7004402580CFCFFFF25
:104DC8000700FFFF012BAA6A286B3FF4A4AE02F08C
:104DD8000303A16A8B427FF49EAEC2F30512E36A15
:104DE8009A427FF498AE236BC0F30802013B9A42C3
:104DF8007FF491AE636BC0F34622013B9A427FF485
:104E08008AAEA36BC0F30642013B9A427FF483AE9D
:104E1800E36BC0F30660013B98427FF47CAE6B6B9A
:104E2800A26CC3F3CC039A423FF416AE2D4AD36A60
:104E380023F00103D36203F08BFE054603F088FEDE
:104E4800A842FBD0274A284B506BA16C034043EA89
:104E5800C1035363D36A43F00103D362FCE542F410
:104E680080221A601A6842F480321A6074E51D4D77
:104E780041F288372B6F23F001032B672B6F23F048
:104E880004032B6703F064FE064605E003F060FEAA
:104E9800801BB8423FF6B8AE2B6F9807F6D4D7E51B
:104EA800EB68226A23F07C5343EA0263EB602368D1
:104EB80099E50C4A136F43F0010313677BE6094A2F
:104EC800536823F0F84343F08043536023688AE52E
:104ED80042F004021A671A6F42F001021A676AE682
:104EE80001207047004402580700FFFF3F4A13693A
:104EF80003F03803102B04D0182B0DD01BB13C48FD
:104F080070473C4870471368990648D513683A4873
:104F1800C3F3C103D8407047916A30B4946AD56A24
:104F280014F47C7F536BC4F3051036D0C3F3CC0361
:104F380005F0010501F0030107EE900A05FB03F3F4
:104F48000129F8EEE77A06EE903AFAEEE96A02D01D
:104F5800022926D041B39FED297A87EE276A136B81
:104F6800C3F3080307EE103AF7EE005AB8EEC77A13
:104F780037EE267A37EE257A27EE067A1B4B1B6B1F
:104F8800C3F34623013307EE903AF8EEE76AC7EE1B
:104F9800267AFCEEE77A17EE900A30BC704716487E
:104FA80070479FED177AD8E713689B061AD51068E3
:104FB800F7EE005A136B1049C0F3C102C3F308039C
:104FC800D14007EE103A06EE101AB8EEC77AB8EEDE
:104FD800C66A77EE266A86EE277A76EEA57A27EEF7
:104FE800277ACBE79FED077AB7E700BF004402585E
:104FF80000093D0040787D010090D0030024744AE8
:1050080020BCBE4B0024744C002800F00E818D4A51
:10501800136803F00F038B422DE9F04104460D4657
:105028000CD2136823F00F030B431360136803F0CB
:105038000F038B4202D00120BDE8F0812368580796
:105048000BD5814920698A6902F07002904204D91F
:105058008A6922F0700202438A6119070BD57A49DE
:105068006069CA6902F07002904204D9CA6922F0E4
:1050780070020243CA61DA060BD57349A069CA698E
:1050880002F4E062904204D9CA6922F4E062024361
:10509800CA619F060BD56C49E0690A6A02F0700282
:1050A800904204D90A6A22F0700202430A629E07FB
:1050B80003F0010240F1AB80634EE068B16901F092
:1050C8000F01884204D9B16921F00F010143B16190
:1050D800002A30D05C4AA168936923F470630B43BB
:1050E800936161681368022900F0A180032900F028
:1050F8009880012900F0A1805F079CD5524E41F2AB
:105108008838336923F007030B43336103F020FD2C
:10511800074605E003F01CFDC01B404500F28B80EC
:105128003369626803F03803B3EBC20FF2D1236826
:105138009E0706D5E06844498A6902F00F02824258
:1051480069D840490A6802F00F02AA420AD90A68D7
:1051580022F00F022A430A600A6802F00F02AA42EC
:105168007FF469AF58070BD5374920698A6902F07F
:105178007002904204D28A6922F0700202438A6166
:1051880019070BD530496069CA6902F0700290426C
:1051980004D2CA6922F070020243CA61DA060BD54A
:1051A8002949A069CA6902F4E062904204D2CA6936
:1051B80022F4E0620243CA619B060BD5224AE169E8
:1051C800136A03F07003994204D2136A23F0700340
:1051D8000B431362FFF78AFE1B4A03461B4891697B
:1051E8009269C1F303211A4D02F00F02194C415C78
:1051F800825C01F01F01184802F01F02CB400068D2
:105208002B60D3402360BDE8F04103F03FBC002A87
:105218007FF460AF95E78A6922F00F0202438A6142
:105228008FE79A013FF56AAF05E7012070479803B9
:105238003FF564AFFFE60320FEE6DB053FF55EAF12
:10524800F9E600BF002000520044025800BF0008E1
:1052580004060020000600200C060020184A38B575
:10526800136903F03803102B19D0182B22D0C3B1BF
:10527800144B134914488A698969C2F30322134CF1
:1052880001F00F01124D825C405C02F01F0200F039
:105298001F00D34023FA00F02B60206038BD0D4B6F
:1052A800E7E713689B0609D512680B4BC2F3C102E6
:1052B800D340DEE7FFF7B6FA0346DAE7064BD8E74E
:1052C8000044025800093D0000BF00080006002005
:1052D8000406002040787D010090D0031C4A38B5B0
:1052E800136903F03803102B20D0182B29D0FBB1F9
:1052F800184B174A18499069184DC0F30320184CE9
:10530800085C00F01F00C340906900F00F002B609C
:10531800085C00F01F00C3402360D269C2F3021288
:10532800885C00F01F0023FA00F038BD0D4BE0E761
:1053380013689B0609D512680B4BC2F3C102D34010
:10534800D7E7FFF76FFA0346D3E7074BD1E700BF6C
:105358000044025800093D0000BF00080406002070
:105368000006002040787D010090D0031C4A38B523
:10537800136903F03803102B20D0182B29D0FBB168
:10538800184B174A18499069184DC0F30320184C58
:10539800085C00F01F00C340906900F00F002B600C
:1053A800085C00F01F00C3402360D269C2F30222E8
:1053B800885C00F01F0023FA00F038BD0D4BE0E7D1
:1053C80013689B0609D512680B4BC2F3C102D34080
:1053D800D7E7FFF727FA0346D3E7074BD1E700BF24
:1053E8000044025800093D0000BF000804060020E0
:1053F8000006002040787D010090D003F8B5364CB7
:1054080006460F46236823F08063236003F0A0FB61
:10541800054604E003F09CFB401B022856D823688D
:105428001A01F7D4A36A326823F47C3343EA0233BF
:10543800A362D6E90232013B013A5B0212049BB235
:1054480002F4FE0213437268013AC2F308021343DE
:105458003269013A120602F0FE421343A363E36A7B
:10546800726923F0C0031343E362E26AB36922F06E
:1054780020021A43194BE262E26A22F01002E26249
:10548800E16BF2690B4043EAC203E363E36A43F06A
:105498001003E362E36ADFB1012F0CBF43F480130A
:1054A80043F40013E3620C4C236843F080632360E9
:1054B80003F04EFB054604E003F04AFB401B0228BC
:1054C80004D823681B01F7D50020F8BD0320F8BDD8
:1054D80043F40023E362E6E7004402580700FFFFB5
:1054E800F8B5364C06460F46236823F080532360F0
:1054F80003F02EFB054604E003F02AFB401B0228BC
:1055080056D823689A00F7D4A36A326823F07C73CC
:1055180043EA0253A362D6E90232013B013A5B0235
:1055280012049BB202F4FE0213437268013AC2F3FA
:10553800080213433269013A120602F0FE4213438D
:105548002364E36A726923F440631343E362E26A03
:10555800B36922F400721A43194BE262E26A22F438
:105568008072E262616CF2690B4043EAC2036364D1
:10557800E36A43F48073E362E36ADFB1012F0CBF8F
:1055880043F4000343F08073E3620C4C236843F058
:105598008053236003F0DCFA054604E003F0D8FAF0
:1055A800401B022804D823689B00F7D50020F8BDCB
:1055B8000320F8BD43F48003E362E6E700440258A1
:1055C8000700FFFF2DE9F843D0E9003204461D012A
:1055D80003F0006625D5816EB1F5001F00F06086E6
:1055E80014D8002900F0FA86B1F5801F40F06684CF
:1055F800AD49896A01F00301032900F05F840221A3
:105608000830FFF7FBFE064600F056BEB1F5401F16
:1056180040F05484A44D0026286D20F44010014326
:105628002965D8050AD5A16D042906D8DFE811F047
:10563800A8044C066106AD04AD040126354699055B
:1056480024D5E16D802900F0648600F222810029CA
:1056580000F0AC84402940F023819349896A01F025
:105668000301032900F01C81002104F10800FFF761
:10567800C5FE0546D4E90032002D40F01B858A4F4F
:10568800E06D396D21F4E071014339655F0528D576
:10569800D4F8A810B1F5800F00F04F8600F206810B
:1056A800002900F06384B1F5001F40F007817E49AE
:1056B800896A01F00301032900F00081002104F147
:1056C8000800FFF79BFE0546D4E90032002D40F0A4
:1056D800F484754FD4F8A800B96D21F46001014332
:1056E800B965180528D5D4F8AC10B1F1007F00F0E1
:1056F800AC8500F2E680002900F02584B1F1807FB6
:1057080040F0E7806849896A01F00301032900F045
:10571800E080002104F10800FFF770FE0546D4E997
:105728000032002D40F0CC845F4FD4F8AC00B96D46
:1057380021F0E0610143B965990118D5E16C202990
:1057480000F0FF8400F2C88039B1102940F0C7800A
:105758005548C16A41F40031C162002D40F09F8470
:10576800514FE06CF96C21F030010143F964DF041A
:1057780026D5216EB1F5005F00F07B8500F2B2807E
:10578800002900F0EA83B1F5805F40F0B380464914
:10579800896A01F00301032900F0AC80002104F1BB
:1057A8000800FFF72BFE0546D4E90032002D40F033
:1057B8008A843D4F206E396D21F4E04101433965FB
:1057C800980424D5616EB1F5003F00F0168500F20B
:1057D800948091B1B1F5803F40F099803249896A4F
:1057E80001F00301032900F09280012104F108006F
:1057F800FFF704FE0546D4E90032002D40F0768418
:10580800294F606E396D21F4E0210143396559044F
:1058180023D5D4F8B010B1F1005F00F0028579D833
:1058280081B1B1F1805F7DD11F49896A01F003011F
:10583800032977D0012104F10800FFF7DFFD0546B1
:10584800D4E90032002D40F05484174FD4F8B0004A
:10585800B96D21F0E0410143B9651F040DD5216FF1
:10586800B1F1805F00F0E282B1F1005F00F0F083F7
:10587800002900F0E08201263546D8015ED5A16CEA
:10588800032900F2CD85DFE811F05500500093049C
:105898005500C0293FF4F0AEB1F5807F3FF4ECAE7F
:1058A80001263546F2E600BF00440258B1F5C00FA4
:1058B8003FF40CAFB1F5000F3FF408AF01263546B1
:1058C8000FE7B1F1407F3FF42CAFB1F1806F3FF4A7
:1058D80028AF012635462FE730293FF43EAF012691
:1058E800354644E7B1F5405F3FF460AFB1F5804F0E
:1058F8003FF45CAF0126354662E721F48030B0F50D
:10590800802F3FF47AAFB1F5403F3FF476AF0126E0
:1059180035467CE721F08050B0F1804F92D0B1F14C
:10592800405F8FD00126354697E73748C16A41F472
:105938000031C162002D00F0B5832E46590200F1F6
:10594800C082DF072FD5E16F28292AD8DFE811F0B8
:10595800AB02290029002900290029002900290073
:105968009C02290029002900290029002900290072
:105978002D052900290029002900290029002900CE
:10598800AB02290029002900290029002900290043
:10599800AB02290029002900290029002900290033
:1059A800AB020126354698071ED5A16F052900F2DE
:1059B8001C85DFE811F015000600E8041500150045
:1059C80015001149896A01F00301032900F00D85CA
:1059D800012104F10800FFF711FD0546D4E9003262
:1059E800002D00F07B832E46590722D5D4F8941059
:1059F800052900F2FE84DFE811F018000900B4045C
:105A080018001800180000BF00440258B049896AFD
:105A180001F00301032900F0EC84012104F10800DE
:105A2800FFF7ECFC0546D4E90032002D00F0648352
:105A38002E469F0626D5D4F89010B1F1005F00F0ED
:105A48006E8300F2948191B1B1F1805F40F0998149
:105A58009F49896A01F00301032900F0928100211E
:105A680004F10800FFF7CAFC0546D4E90032002D0E
:105A780040F04B83964FD4F89000796D21F0E041C7
:105A880001437965580626D5D4F89C10B1F5006F06
:105A980000F0A18300F2788191B1B1F5806F40F0F8
:105AA8007D818B49896A01F00301032900F0768121
:105AB800002104F10800FFF7A1FC0546D4E90032F3
:105AC800002D40F02883824FD4F89C00B96D21F452
