:020000040800F2
:1000000000000220E91001086D4500087545000850
:100010007D450008854500088D450008000000006A
:1000200000000000000000000000000095450008EE
:10003000A345000800000000B1450008BF450008C6
:100040003911010839110108391101083911010864
:100050003911010839110108391101083911010854
:10006000391101083911010839110108CD4500087D
:100070003911010839110108391101083911010834
:100080003911010839110108E14500083911010849
:100090003911010839110108391101083911010814
:1000A0003911010839110108391101083911010804
:1000B00039110108391101083911010839110108F4
:1000C00039110108391101083911010839110108E4
:1000D000391101083911010839110108F5450008E5
:1000E0003911010839110108000000003911010817
:1000F00039110108391101083911010839110108B4
:1001000039110108391101083911010839110108A3
:10011000391101083911010839110108094600088F
:100120003911010839110108391101083911010883
:100130003911010839110108391101083911010873
:1001400000000000000000000000000000000000AF
:100150003911010839110108391101083911010853
:100160003911010839110108391101083911010843
:100170003911010839110108391101080000000086
:100180003911010839110108391101083911010823
:100190003911010839110108391101083911010813
:1001A0003911010839110108391101083911010803
:1001B00039110108391101083911010839110108F3
:1001C00039110108391101083911010839110108E3
:1001D00039110108391101083911010839110108D3
:1001E00039110108391101083911010839110108C3
:1001F00039110108391101083911010839110108B3
:1002000039110108391101083911010839110108A2
:100210003911010839110108391101083911010892
:1002200039110108391101083911010800000000D5
:1002300039110108391101080000000039110108C5
:100240003911010839110108391101083911010862
:100250003911010839110108391101083911010852
:100260003911010839110108391101083911010842
:100270003911010839110108391101080000000085
:100280003911010839110108391101080000000075
:08029000000000003911010813
:1002980010B5054C237833B9044B13B10448AFF3B8
:1002A80000800123237010BDA0070020000000007B
:1002B8003817010808B5034B1BB103490348AFF3CE
:1002C800008008BD00000000A407002038170108BE
:1002D80053B94AB9002908BF00281CBF4FF0FF31A5
:1002E8004FF0FF3000F06AB9ADF1080C6DE904CEAB
:1002F80000F006F8DDF804E0DDE9022304B07047F9
:100308002DE9F047089D0C46002B4ED194468C45AC
:100318008646B2FA82F262D94AB1C2F1200391400C
:1003280020FA03F30CFA02FC194300FA02FE4FEA22
:100338001C471FFA8CF6B1FBF7F44FEA1E4307FB84
:10034800141143EA014304FB06F199420AD91CEB54
:10035800030304F1FF3080F01281994240F20F81CB
:10036800023C6344591A1FFA8EF3B1FBF7F007FBFE
:10037800101143EA014300FB06F69E420AD91CEB22
:10038800030300F1FF3180F0FC809E4240F2F980C7
:10039800634402389B1B40EA044000211DB1D3404E
:1003A8000022C5E90032BDE8F0878B4205D90DB1BE
:1003B800C5E9000100210846F5E7B3FA83F10029F1
:1003C80046D1A34202D39042C0F0F080861A64EB73
:1003D80003030120002DE6D0C5E90063E3E7002A06
:1003E80040F09080A1EB0C044FEA1C481FFA8CF7F0
:1003F8000121B4FBF8F64FEA1E4308FB164443EA12
:10040800044307FB06F0984208D91CEB030306F1E6
:10041800FF3402D2984200F2CD8026461C1A1FFAF9
:100428008EF3B4FBF8F008FB104443EA044300FBE6
:1004380007F79F4208D91CEB030300F1FF3402D2EF
:100448009F4200F2B0802046DB1B40EA0640A5E749
:10045800C1F120068B4022FA06F71F4320FA06FC5A
:1004680004FA01F343EA0C03F44000FA01F8380CEB
:100478004FEA1349B4FBF0FE1FFA87FC00FB1E4449
:1004880049EA04440EFB0CF9A14502FA01F20AD923
:100498003C190EF1FF3A80F08480A14540F281803A
:1004A800AEF1020E3C44A4EB09041FFA83F9B4FB35
:1004B800F0F300FB134449EA044403FB0CFCA44595
:1004C80007D93C1903F1FF3067D2A44565D9023B2F
:1004D8003C4443EA0E40A0FB0293A4EB0C049C426C
:1004E800CE469C4651D34ED055B1B8EB0E0364EBC3
:1004F8000C0404FA06F6CB401E43CC40C5E9006460
:10050800002150E7C2F1200320FA03F10CFA02FCA3
:1005180024FA03F394400C434FEA1C4800FA02FE05
:100528001FFA8CF7B3FBF8F008FB1031230C43EAF1
:10053800014300FB07F1994208D91CEB030300F1C2
:10054800FF362CD299422AD9023863445B1AA4B2E6
:10055800B3FBF8F108FB113344EA034401FB07F34A
:10056800A34208D91CEB040401F1FF3613D2A342BD
:1005780011D902396444E41A41EA004139E70446D2
:10058800F0E6084606E7C845AED2B9EB020E63EBC3
:10059800070C0138A8E73146EDE7034699E73046EE
:1005A800D4E7D6467FE7634402384DE7064623463C
:1005B80008460FE7023E634430E700BF704700BFBC
:1005C80002440346934200D1704703F8011BF9E740
:1005D80070B50D4D0D4C641BA4100026A64209D120
:1005E8000B4D0C4C11F0A4F8641BA4100026A64275
:1005F80005D170BD55F8043B98470136EEE755F82C
:10060800043B98470136F2E75030010850300108A2
:10061800503001085430010880B500AF0821024865
:100628000DF0AEF800BF80BDF40B002080B500AF20
:10063800082102480DF0B2F900BF80BDF40B00207C
:1006480080B584B000AF87ED010A03467B80D7ED03
:10065800017A9FED1F7AF4EEC77AF1EE10FA02DD07
:100668001C4B7B600AE0D7ED017AB3EE0E7AF4EE0C
:10067800C77AF1EE10FA01D5174B7B60174B1B8830
:1006880007EE903AF8EEE76A97ED017AC6EE877AB8
:10069800FCEEE77A17EE903A013BFB60104B1B68C3
:1006A800FA68DA620E4AFB68D3600D4B1B68FA6879
:1006B8005208DA6308210A480DF062F87B88184668
:1006C8000CF0ECFCFFF7B2FF00BF1037BD4680BD51
:1006D80000401C4600401C460000F041500000202D
:1006E800F40B002080B500AF64209FED030AFFF7EC
:1006F800A7FF00BF80BD00BF00803B4580B500AFAD
:100708003C2104480DF086FA3C2103480DF082FA9A
:1007180000BF80BDA80B0020400C002080B400AFB3
:10072800034B1B685B6A1846BD465DF8047B70473F
:10073800A80B002080B400AF034B1B685B6A184607
:10074800BD465DF8047B7047400C002080B582B040
:1007580000AF0346FB71FB790A4A32F813300122D5
:100768001946094809F0E4FBFB79064A32F81330C8
:1007780001221946054809F0DBFB00BF0837BD46D2
:1007880080BD00BF5400002000080258000C025829
:1007980080B582B000AF0346FB71FB790A4A32F894
:1007A800133000221946094809F0C2FBFB79064AB2
:1007B80032F8133000221946054809F0B9FB00BF8A
:1007C8000837BD4680BD00BF54000020000802580D
:1007D800000C025880B582B000AF0346FB71134B82
:1007E8001B89FA791946124809F0A2FB0F4BDB88DE
:1007F800FA7919460E4809F09BFB0C4B9B88FA794D
:1008080019460B4809F094FB084B5B88FA7919469E
:10081800074809F08DFB054B1B88FA7919460548EE
:1008280009F086FB00BF0837BD4680BD5400002094
:1008380000080258000C025880B500AF23480EF09B
:100848000FFD4FF47A730322214920480EF066FB0E
:1008580020494FF000024FF00003C1E900231E4970
:100868004FF000024FF00003C1E900231B494FF08D
:1008780000024FF00003C1E9002305200CF00EFC34
:100888004FF47A730322124910480EF047FB1149BE
:100898004FF000024FF00003C1E900230E494FF06A
:1008A80000024FF00003C1E900230C494FF0000299
:1008B8004FF00003C1E9002305200CF0EFFB2122D3
:1008C800074902480EF080FC00BF80BDD80C00200C
:1008D80060000020280900202009002018090020B5
:1008E800F408002080B400AF074B93ED006B074B72
:1008F80093ED007B36EE477B054B83ED007B00BF15
:10090800BD465DF8047B70471809002028090020BF
:100918003009002080B500AFFFF78EFF2122034980
:1009280003480EF051FC00BF80BD00BFF408002052
:10093800D80C002080B500AF06E04FF47A7301228E
:10094800084909480EF078FB064B1B78552BF4D163
:10095800044B64221A702122044903480EF034FC27
:1009680000BF80BD63000020D80C0020F4080020E0
:1009780080B582B000AF78607B681B683A4A9342C2
:1009880059D13A4B1B78532B02D0FFF7D3FF52E0D3
:10099800374BD3E900233749C1E90023334B9B790F
:1009A8001B02324A5279134307EE903AB8EEE76BCE
:1009B8009FED235B86EE057B9FED236B27EE067B81
:1009C8002B4B83ED007B2A4B93ED006B294B93ED6A
:1009D800007B36EE477B9FED1E6BB4EEC67BF1EED7
:1009E80010FA0ADD244B93ED007B9FED1B6B37EE6D
:1009F800067B214B83ED007B18E01D4B93ED006BCC
:100A08001C4B93ED007B36EE477B9FED156BB4EEE8
:100A1800C67BF1EE10FA09D5174B93ED007B9FEDDD
:100A28000E6B37EE467B144B83ED007B21220F497A
:100A380012480EF0C9FB0837BD4680BDAFF30080F1
:100A4800000000000000E040000000000080664058
:100A58000000000000406F40000000000080764069
:100A68000000000000406FC000480040F40800206B
:100A7800180900202009002028090020D80C00208F
:100A880080B400AF094B93ED006B094B93ED007BED
:100A980036EE476B074B93ED007B36EE477BB0EEA7
:100AA800470BBD465DF8047B704700BF180900205E
:100AB800280900203009002080B582B000AF786096
:100AC8007B681A68044B1B689A4201D100F0E0F970
:100AD80000BF0837BD4680BD8C0C002080B500AF34
:100AE80002480CF045FD00BF80BD00BF8C0C002003
:100AF80080B500AF06480CF0B3FD0020FFF76AFE92
:100B08000420FFF745FE0020FFF742FE00BF80BD2E
:100B18008C0C002080B400AF00BFBD465DF8047B9C
:100B28007047000080B500AF07480CF0B1FC002109
:100B380005480CF025FE042103480CF021FEFFF7C0
:100B4800E9FF00BF80BD00BF5C0B002080B483B00C
:100B580000AF87ED000B084B93ED006B97ED007B22
:100B680036EE077B044B83ED007B00BF0C37BD4698
:100B78005DF8047B704700BF3809002080B582B05B
:100B880000AF78607B68642B02DD64237B6006E03D
:100B98007B6813F1640F02DA6FF063037B607B6894
:100BA800002B18DD274B1B6800228021184609F00E
:100BB800BFF9244B1B6801224021184609F0B8F9F7
:100BC8007B689BB21A46920013445B009AB21E4B94
:100BD8001B689A6331E07B68002B19DA194B1B6894
:100BE80001228021184609F0A3F9164B1B68002240
:100BF8004021184609F09CF97B685B429BB21A4673
:100C0800920013445B009AB20F4B1B689A6314E07E
:100C18007B68002B11D10B4B1B68002280211846E2
:100C280009F086F9074B1B6800224021184609F095
:100C38007FF9054B1B6800229A6300BF0837BD4641
:100C480080BD00BF680000205C0B002080B582B02A
:100C580000AF78607B68642B02DD64237B6006E06C
:100C68007B6813F1640F02DA6FF063037B607B68C3
:100C7800002B18DD274B1B6801222021184609F09C
:100C880057F9244B1B6800224021184609F050F9F7
:100C98007B689BB21A46920013445B009AB21E4BC3
:100CA8001B685A6331E07B68002B19DA194B1B6803
:100CB80000222021184609F03BF9164B1B68012237
:100CC8004021184609F034F97B685B429BB21A460A
:100CD800920013445B009AB20F4B1B685A6314E0EE
:100CE8007B68002B11D10B4B1B6800222021184672
:100CF80009F01EF9074B1B6800224021184609F02D
:100D080017F9054B1B6800225A6300BF0837BD4618
:100D180080BD00BF640000205C0B002080B582B05D
:100D280000AF786039607868FFF728FF3868FFF708
:100D38008DFF00BF0837BD4680BD80B500AF6FF09E
:100D480018016FF01800FFF7E9FF32200CF0A6F940
:100D580000210020FFF7E2FF00BF80BD80B582B010
:100D680000AF87ED000BFFF78BFEB0EE407B124B18
:100D780083ED007B1049D7E90023C1E904230E481D
:100D880000F0EAFA0C4B93ED027BFDEEC77B17EE01
:100D9800903AC3F12D03084A92ED027BFDEEC77B22
:100DA80017EE902A2D3211461846FFF7B7FF00BFFD
:100DB8000837BD4680BD00BF7801002080B582B0ED
:100DC80000AF022000F074FDB0EE407B134B83EDC2
:100DD800007B12494FF00002114BC1E904230F4870
:100DE80000F0BAFA0D4B93ED027BFDEEC77B17EED0
:100DF800903A2D337B60094B93ED027BFDEEC77B68
:100E080017EE903AC3F12D033B6039687868FFF715
:100E180085FF00BF0837BD4680BD00BFF801002030
:100E28000040554080B582B000AF012000F040FD81
:100E3800B0EE407B134B83ED007B12494FF000026C
:100E4800114BC1E904230F4800F086FA0D4B93EDCE
:100E5800027BFDEEC77B17EE903AC3F12D037B6052
:100E6800084B93ED027BFDEEC77B17EE903A2D33CE
:100E78003B6039687868FFF751FF00BF0837BD4607
:100E880080BD00BF780200200040554000000000EF
:100E980080B500AF022000F00BFDB0EE407B9FED67
:100EA800166BB4EEC67BF1EE10FA05D8FFF786FF95
:100EB8000420FFF74BFC1CE0012000F0F9FCB0EE29
:100EC800407B9FED0D6BB4EEC67BF1EE10FA05D8B2
:100ED800FFF7A8FF0020FFF739FC0AE00120FFF721
:100EE80079FCFFF7CDFDB0EE407BB0EE470BFFF786
:100EF80035FF00BF80BD00BF000000000000594062
:100F080080B584B000AF87ED000B0CF0BBF8F8603B
:100F180024E0FFF7B5FDB0EE407B204B83ED007B6E
:100F28001E49D7E90023C1E904231C4800F014FA3C
:100F38001A4B93ED027BFDEEC77B17EE902A6FF0FC
:100F48003B039B1A154A92ED027BFDEEC77B17EE19
:100F5800902A3C3A11461846FFF7E0FE0CF092F84A
:100F68000246FB68D31AB3F57A7FD2D30CF08AF81D
:100F7800B86000BF0CF086F80246BB68D31A632B32
:100F8800F8D9FFF7AFFC06494FF000024FF0000315
:100F9800C1E9002300BF1037BD4680BDF80200201C
:100FA800380900200000000080B586B000AF00239B
:100FB800FB7500F0CDFC0346002B07D00123FB7521
:100FC8005B4955A3D3E90023C1E9002340F2145338
:100FD8007B81584B93ED007B9FED516B37EE067B81
:100FE800554B83ED047B0CF04DF878600CF04AF813
:100FF80038613B69FB605AE0FFF742FDB0EE407B89
:101008004D4B83ED007B4C4800F0A6F94A4B93ED1D
:10101800027BFDEEC77B17EE903A5B421846FFF75E
:10102800ADFD454B93ED027BFDEEC77B17EE900AB5
:10103800FFF70CFE404B93ED006B3F4B93ED047BA9
:1010480036EE477BB5EEC07BF1EE10FA12DD3A4B77
:1010580093ED006B384B93ED047B36EE477BB0EE97
:10106800086BB4EEC67BF1EE10FA4CBF01230023E7
:10107800DBB211E0304B93ED006B2F4B93ED047B0B
:1010880036EE477BB8EE086BB4EEC67BF1EE10FA8D
:10109800CCBF01230023DBB2002B03D00BF0F2FFFF
:1010A800386104E00BF0EEFF38613B69FB603A6998
:1010B800FB68D31AB3F5AF7F07D20BF0E3FF024604
:1010C8007B68D21A7B899A4296D39FED150BFFF75E
:1010D8003DFDFB7D002B11D000210020FFF71EFEF7
:1010E800144B93ED007BB0EE470BFFF709FF00218F
:1010F8000020FFF713FE0023FB7509E00021002004
:10110800FFF70CFE0A4908A3D3E90023C1E900232D
:1011180000BF1837BD4680BD0000000000207740A2
:1011280000000000008056400000000000A074404D
:10113800700000203809002078000020000000001E
:1011480080B586B000AF0023FB7500F0E5FB0346D1
:10115800002B07D00123FB755D4955A3D3E9002374
:10116800C1E9002340F214537B815A4B93ED007B75
:101178009FED516B37EE467B574B83ED047B0BF0AD
:1011880081FF78600BF07EFF38613B69FB605AE0B5
:10119800FFF776FCB0EE407B4F4B83ED007B4E486B
:1011A80000F0DAF84C4B93ED027BFDEEC77B17EEAF
:1011B800903A5B421846FFF7E1FC474B93ED027B00
:1011C800FDEEC77B17EE900AFFF740FD424B93ED0B
:1011D800006B414B93ED047B36EE477BB5EEC07B4D
:1011E800F1EE10FA12DD3C4B93ED006B3A4B93EDA8
:1011F800047B36EE477BB0EE086BB4EEC67BF1EEAF
:1012080010FA4CBF01230023DBB211E0324B93EDFF
:10121800006B314B93ED047B36EE477BB8EE086BE1
:10122800B4EEC67BF1EE10FACCBF01230023DBB28B
:10123800002B03D00BF026FF386104E00BF022FFEF
:1012480038613B69FB603A69FB68D31AB3F5AF7F35
:1012580007D20BF017FF02467B68D21A7B899A42A5
:1012680096D39FED170BFFF771FCFB7D002B11D078
:1012780000210020FFF752FD164B93ED007BB0EEE6
:10128800470BFFF73DFE00210020FFF747FD002335
:10129800FB7509E00E490CA3D3E90023C1E900233B
:1012A80000210020FFF73AFD00BF1837BD4680BD7A
:1012B8000000000000207740000000000080564039
:1012C80000000000008056C00000000000A074402C
:1012D8007000002038090020F800002000000000FD
:1012E80080B582B000AFFFF719FA7860FFF7F6FB18
:1012F80009E0FFF713FA0346154AD360FFF71AFA15
:101308000346134A1361FFF709FA02467B68D31AAA
:1013180007EE903AB8EEE76B0E4B93ED007BB4EE18
:10132800C76BF1EE10FAE4D4FFF7E2FBFFF705FD17
:10133800FFF7D8F9074904A3D3E90023C1E900233B
:1013480000BF0837BD4680BD0000000000A0744003
:10135800F80D00207000002080B58CB000AF7860D8
:101368000BF090FEF8627B68DB6DFA6AD31ABB62F9
:101378007B689B6DBA6A9A42C0F0ED807B6893EDFA
:10138800046B7B6893ED007B36EE477B87ED087B2B
:101398007B6893ED067B97ED086B26EE077B87ED60
:1013A800067B7B6893ED186BBB6A07EE903AB8EE44
:1013B800675B97ED087B25EE077B36EE077B7B683E
:1013C80083ED187B7B6893ED186B7B6893ED087B46
:1013D800B6EE005B27EE055BBB6A07EE903AB8EE07
:1013E800677B25EE075B7B6893ED1A4B97ED087BCF
:1013F80034EE077B25EE077B36EE077B7B6883EDB3
:10140800187B7B6893ED186B7B6893ED147BB4EEC7
:10141800C76BF1EE10FA06DD7B68D3E9142379680F
:10142800C1E9182310E07B6893ED186B7B6893ED96
:10143800127BB4EEC76BF1EE10FA05D57B68D3E9E1
:1014480012237968C1E918237B6893ED086B7B68E0
:1014580093ED187B26EE077B87ED047B7B6893ED85
:101468000A7B37EE076B7B6893ED005B7B6893ED37
:101478001E7B35EE477B26EE076B7B6893ED0C7B76
:1014880037EE075BBB6A07EE903AB8EE677B35EE3E
:10149800475B7B6893ED1C7B25EE077B36EE077B6D
:1014A800B1EE475B7B6893ED0C7B37EE076BBB6A4D
:1014B80007EE903AB8EE677B36EE076B85EE067B53
:1014C8007B6883ED1C7B7B6893ED0A6B7B6893EDEF
:1014D8001C7B26EE077B87ED027B97ED066B97ED6D
:1014E800047B36EE076B97ED027B36EE077B7B6855
:1014F80083ED027B7B6893ED026B7B6893ED107B39
:10150800B4EEC76BF1EE10FA06DD7B68D3E9102361
:101518007968C1E9022310E07B6893ED026B7B6870
:1015280093ED0E7BB4EEC76BF1EE10FA05D57B6830
:10153800D3E90E237968C1E902237B68D3E9002344
:101548007968C1E91E237968D7E90823C1E91A2314
:101558007B68FA6ADA657B68D3E9022343EC172BC8
:10156800B0EE470B3037BD4680BD000080B582B075
:1015780000AF0346FB71074B1A68FB79064931F83F
:1015880013301946104608F0BBFC034618460837C6
:10159800BD4680BD780300207C03002080B582B062
:1015A80000AF0346FB710A4B1A68FB79094931F809
:1015B80013301946104608F0A3FC0346002B0CBF55
:1015C80001230023DBB218460837BD4680BD00BFA3
:1015D800880300208C03002080B500AF282200215A
:1015E8000B48FEF7EDFF282200210A48FEF7E8FF26
:1015F800282200210848FEF7E3FF28220021074897
:10160800FEF7DEFF064803F025FC00BF80BD00BFE3
:10161800400900206809002090090020B80900202E
:10162800E40900200000000080B52DED028B82B097
:1016380000AF78607B681B68974A934240F0F88057
:10164800786803F045FD07EE900A944B93F9003053
:10165800B8EE677B924ADB00134483ED007B8F4B27
:1016680093F90030002B76DD8C4B93F900308C4ACF
:10167800DB00134493ED007B9FED716B27EE066B47
:101688009FED715B86EE057B9FED716B27EE067B08
:101698009FED716B37EE068B804B93F90030804AD3
:1016A800DB00134493ED007B9FED656B27EE067B13
:1016B8009FED655B87EE056BB0EE001BB0EE460B49
:1016C8000FF072FDB0EE407B9FED656B27EE067B59
:1016D80038EE078B714B93F90030714ADB001344E5
:1016E80093ED007B9FED566B27EE067B9FED565BD7
:1016F80087EE056BB0EE081BB0EE460B0FF054FDFD
:10170800B0EE407B9FED586B27EE067B38EE078BDB
:10171800624B93F90030624ADB00134493ED007B7F
:101728009FED476B27EE067B9FED475B87EE056BCA
:10173800B1EE001BB0EE460B0FF036FDB0EE407B6D
:101748009FED4B6B27EE067B38EE077BB2EE046B02
:1017580027EE067B1FE0514B93F90030504ADB001F
:10176800134493ED007B9FED366B27EE067B9FEDD0
:10177800365B87EE056B9FED401BB0EE460B0FF016
:1017880013FDB0EE407B9FED3E6B27EE067BB2EE7D
:10179800046B27EE067B414B93F90030414ADB008E
:1017A800134483ED007B3D4B93F900303D4ADB0049
:1017B800134493ED007B9FED346B27EE066B374B9C
:1017C80093F90030384ADB00134493ED007B9FED1A
:1017D800305B27EE057B314B93F9003036EE077B03
:1017E800324ADB00134483ED007B2C4B93F9003025
:1017F80018462A4B93F9003019462C4AC300134463
:10180800D3E900232848C9000144C1E90023234B38
:1018180093F90030DBB20133DBB25AB21F4B1A70B6
:101828001E4B93F90030052B02D11C4B00221A7075
:1018380000BF0837BD46BDEC028B80BDAFF300800A
:101848006666666666660A40000000000000F040B2
:1018580000000000006051C03333333333F340409D
:101868006666666666264F4066666666666639C060
:10187800A4703D0AD7A30E4021B0726891EDF0BF65
:10188800295C8FC2F52828409A9999999999993F86
:10189800333333333333EF3F00200240E009002075
:1018A8004009002068090020B8090020900900209C
:1018B80080B483B000AF0346FB71FB79064ADB00B6
:1018C8001344D3E9002343EC172BB0EE470B0C3736
:1018D800BD465DF8047B70476809002000000000E1
:1018E80080B400AF0A4B93ED007B9FED076BB4EE1D
:1018F800C67BF1EE10FA4CBF01230023DBB2184679
:10190800BD465DF8047B704700000000002062407F
:10191800900900200000000080B400AF0A4B93ED4E
:10192800087B9FED076BB4EEC67BF1EE10FA4CBF57
:1019380001230023DBB21846BD465DF8047B7047DF
:1019480000000000008056409009002000000000C0
:1019580080B400AF0A4B93ED067B9FED076BB4EEA6
:10196800C67BF1EE10FA4CBF01230023DBB2184608
:10197800BD465DF8047B70470000000000805640BB
:101988009009002080B500AFFFF7AAFF0346002B9F
:1019980003D00220FEF7DAFE02E00220FEF7F8FE8E
:1019A800FFF7BAFF0346002B03D00420FEF7CEFE54
:1019B80002E00420FEF7ECFEFFF7CAFF0346002B07
:1019C80003D00020FEF7C2FE02E00020FEF7E0FE92
:1019D80000BF80BD80B582B000AF284B1B78012BBB
:1019E80003D1002000F06EFF1AE0254B1B78012B75
:1019F80003D1012000F066FF12E0224B1B78012B77
:101A080003D1022000F05EFF0AE01F4B1B78012B78
:101A180003D1032000F056FF02E0002000F052FF3F
:101A280000220021002001F01BF801F055F900F018
:101A380059FF01F02FF801F009FD00BF0020FFF762
:101A4800ADFD0346002BF9D00123FB7100220021D4
:101A5800002001F005F8FEF745FF00F0A9FF05E0BA
:101A680000F06AFF01F0F2FC00F0A2FFFB79002B06
:101A7800F6D100BF00BF0837BD4680BD880F0020E3
:101A8800890F00208A0F00208B0F002080B582B0BC
:101A980000AF00F051FE0BF06FFA00F097F800F07D
:101AA80081FD00F05FFD00F045FA00F03DF900F01F
:101AB800F9FA00F0B1FB00F07DFC00F007FD00F042
:101AC800F9F900F0FDFB00F0CBFCFEF7B5FEFEF7E0
:101AD80021FFFEF713FEFFF77FFDFFF723F8FEF760
:101AE8009BFDFEF7FFFD0023FB711DE00023BB718A
:101AF80010E0BB791846FEF729FE64200BF0CEFAF9
:101B0800BB791846FEF744FE97F90630DBB201337D
:101B1800DBB2BB7197F90630042BEADD97F9073081
:101B2800DBB20133DBB2FB7197F90730012BDDDD46
:101B38000020FFF71BFD0346002B02D0FFF7D0FB68
:101B480007E00120FFF712FD0346002B01D0FFF745
:101B580019FF0120FFF722FD0346002B16D0FEF7E0
:101B6800C1FD0220FFF702FD0346002B03D0124BF4
:101B780001221A7008E00320FFF7F8FC0346002B47
:101B880002D00E4B01221A70FFF724FFFEF778FFF0
:101B9800B0EE407B0A4B83ED007BFEF7BFFD0346AA
:101BA800084A1360FEF7C6FD0346074A1360322051
:101BB8000BF074FABCE700BF890F00208B0F0020E0
:101BC800E80D0020F40D0020F00D002080B59EB037
:101BD80000AF07F12C034C2200211846FEF7F0FC59
:101BE80007F10C03202200211846FEF7E9FC022029
:101BF8000BF000F80023BB60484BDB6A474A23F030
:101C08000103D362454BDB6A03F00103BB60444B1D
:101C18009B69434A43F440439361414B9B6903F4F6
:101C28004043BB60BB6800BF3D4B9B6903F4005356
:101C3800B3F5005FF8D13B4BD3F8F430394A43F0A1
:101C48000203C2F8F430374BD3F8F43003F0020340
:101C58007B607B6800233B60314B9B69304A43F4CF
:101C6800404393612E4B9B6903F440433B602B4BED
:101C7800DB6A2A4A43F00103D362284BDB6A03F08C
:101C880001033B603B6800BF254B9B6903F400538D
:101C9800B3F5005FF8D10123FB624FF480333B6357
:101CA80002233B6502237B650523BB65C023FB65D7
:101CB80002233B6602237B660223BB660823FB667E
:101CC80000233B6700237B6707F12C03184604F0C9
:101CD80083FA0346002B01D000F05AFD3F23FB6036
:101CE80003233B6100237B610823BB614023FB6125
:101CF80040233B624FF480637B624023BB6207F161
:101D08000C030421184604F0C1FE0346002B01D041
:101D180000F03EFD00BF7837BD4680BD0004005886
:101D2800004802580044025880B58AB000AF07F155
:101D38001C0300221A605A609A603B4600221A600F
:101D48005A609A60DA601A615A619A61524B534A32
:101D58001A60514B0122DA604F4B04221A614E4B34
:101D680000221A754C4B01225A754B4B05229A6179
:101D7800494B00221A77484B00225A62464B0022F0
:101D88009A62454B0022DA62434B4FF480521A6341
:101D9800414B00225A63404B002283F838203E4BC7
:101DA8000122DA633C4802F0B3FE0346002B01D05F
:101DB80000F0EEFC384B4FF430125A60364B0022DC
:101DC8009A60354802F0A4FE0346002B01D000F0CB
:101DD800DFFC0023FB6107F11C0319462E4804F0C1
:101DE8001DF90346002B01D000F0D2FC2C4B3B60C0
:101DF80006237B600523BB6040F2FF73FB6004236E
:101E08003B6100237B6100237B763B4619462248D1
:101E180003F0BAFB0346002B01D000F0B9FC214BBC
:101E28003B600C237B603B4619461B4803F0ACFB28
:101E38000346002B01D000F0ABFC1B4B3B60122388
:101E48007B603B461946144803F09EFB0346002B73
:101E580001D000F09DFC154B3B6018237B603B468E
:101E680019460D4803F090FB0346002B01D000F003
:101E78008FFC0F4B3B604FF480737B603B461946E9
:101E8800054803F081FB0346002B01D000F080FCDD
:101E980000BF2837BD4680BDE4090020002002406D
:101EA8000800900C8000501D1000C0100001802117
:101EB8002000F01480B500AF1B4B1C4A1A601A4B67
:101EC8001B4A5A60184B00229A60174B0122DA60AD
:101ED800154B00221A61144B00225A61124B002242
:101EE8009A61114B0022DA610F4B00221A620E48E8
:101EF8000BF004F90346002B01D000F049FC002147
:101F080009480BF097F90346002B01D000F040FC7C
:101F1800002105480BF0D9F90346002B01D000F049
:101F280037FC00BF80BD00BF480A002000580040B1
:101F3800B175703080B500AF424B434A1A604148D2
:101F48000BF00FFA0346002B01D000F021FC3F4BA9
:101F58003F4A1A603D480BF004FA0346002B01D0B3
:101F680000F016FC3B4B3C4A1A603A480BF0F9F972
:101F78000346002B01D000F00BFC384B384A1A609E
:101F880036480BF0EEF90346002B01D000F000FCB8
:101F9800344B354A1A6033480BF0E3F90346002BFB
:101FA80001D000F0F5FB314B314A1A602F480BF095
:101FB800D8F90346002B01D000F0EAFB2D4B2E4A3E
:101FC8001A602C480BF0CDF90346002B01D000F025
:101FD800DFFB2A4B2A4A1A6028480BF0C2F903464D
:101FE800002B01D000F0D4FB264B274A1A60254865
:101FF8000BF0B7F90346002B01D000F0C9FB234BC7
:10200800234A1A6021480BF0ACF90346002B01D093
:1020180000F0BEFB1F4B204A1A601E480BF0A1F9C6
:102028000346002B01D000F0B3FB1C4B1C4A1A607E
:102038001A480BF096F90346002B01D000F0A8FBD4
:1020480000BF80BD9C0A002020900052AC0A0020EE
:1020580040900052BC0A002060900052CC0A002038
:1020680080900052DC0A0020A0900052EC0A002068
:1020780020300248FC0A0020403002480C0B0020A7
:10208800603002481C0B0020803002482C0B0020D6
:10209800A03002483C0B0020207002584C0B002056
:1020A8004070025880B59AB000AF07F1580300227B
:1020B8001A605A609A60DA6007F14C0300221A60CD
:1020C8005A609A6007F1300300221A605A609A60D9
:1020D800DA601A615A619A613B1D2C220021184668
:1020E800FEF76EFA4A4B4B4A1A60494B18225A605F
:1020F800474B00229A60464B40F2E732DA60444B85
:102108004FF480721A61424B00225A61404B802280
:102118009A613F480BF065F90346002B01D000F0A7
:1021280037FB4FF48053BB6507F15803194638480D
:102138000CF01AF80346002B01D000F029FB3448B4
:102148000BF0BDFA0346002B01D000F021FB002361
:10215800FB6400233B6500237B6507F14C031946AC
:102168002B480CF061FD0346002B01D000F010FB5A
:1021780060233B6300237B630023BB630023FB6373
:1021880000233B6400237B640023BB6407F1300316
:10219800002219461E480BF0D3FE0346002B01D03F
:1021A80000F0F6FA07F130030422194618480BF03C
:1021B800C7FE0346002B01D000F0EAFA00237B603B
:1021C8000023BB600023FB6000233B6100237B618D
:1021D8004FF40053BB610023FB6100233B624FF0C7
:1021E80000737B620023BB620023FB623B1D194620
:1021F80007480CF0A7FD0346002B01D000F0C8FAF1
:10220800034802F0A5F800BF6837BD4680BD00BF8F
:102218005C0B00200000014080B58CB000AF07F1D6
:102228000C03242200211846FEF7CAF93B46002277
:102238001A605A609A60214B4FF080421A601F4B17
:1022480000225A601D4B00229A601C4B4FF0FF324F
:10225800DA601A4B00221A61184B00229A61012396
:10226800FB6000233B6101237B610023BB610023EA
:10227800FB6100233B6201237B620023BB620023D6
:10228800FB6207F10C0319460C480BF01DFC0346D2
:10229800002B01D000F07CFA00233B600023BB60D8
:1022A8003B46194605480CF0BFFC0346002B01D0FD
:1022B80000F06EFA00BF3037BD4680BDA80B002085
:1022C80080B58EB000AF07F1280300221A605A606B
:1022D8009A60DA6007F11C0300221A605A609A605B
:1022E8003B4600221A605A609A60DA601A615A61A5
:1022F8009A612E4B2E4A1A602C4B4FF4FA625A60A0
:102308002A4B00229A60294B4FF6FF72DA60274B5E
:102318004FF480721A61254B80229A6123480BF092
:1023280060F80346002B01D000F032FA4FF48053D6
:10233800BB6207F1280319461C480BF015FF03463A
:10234800002B01D000F024FA18480BF0B8F9034626
:10235800002B01D000F01CFA0023FB6100237B62F4
:1023680007F11C03194611480CF05EFC0346002BCC
:1023780001D000F00DFA70233B6000237B6000233E
:10238800BB6000233B613B460822194607480BF017
:10239800D7FD0346002B01D000F0FAF9034801F0FD
:1023A800D7FF00BF3837BD4680BD00BFF40B002003
:1023B8000008004080B58CB000AF07F10C03242260
:1023C80000211846FEF7FCF83B4600221A605A60C6
:1023D8009A60214B214A1A601F4B00225A601E4BFB
:1023E80000229A601C4B4FF0FF32DA601A4B002231
:1023F8001A61194B00229A610123FB6000233B619B
:1024080001237B610023BB610423FB6100233B6242
:1024180001237B620023BB620423FB6207F10C03E8
:1024280019460D480BF050FB0346002B01D000F075
:10243800AFF900233B600023BB603B4619460648C2
:102448000CF0F2FB0346002B01D000F0A1F900BF0D
:102458003037BD4680BD00BF400C0020000C004056
:1024680080B584B000AF3B1D00221A605A609A60A4
:10247800144B154A1A60134B45F6C0525A60114B5B
:1024880000229A600F4BC722DA600E4B80229A61B5
:102498000C480AF0A6FF0346002B01D000F078F99B
:1024A80000237B600023FB603B1D194605480CF0A8
:1024B800BBFB0346002B01D000F06AF900BF1037C0
:1024C800BD4680BD8C0C00200014004080B500AFD4
:1024D800224B234A1A60214B4FF4E1325A601F4BBA
:1024E80000229A601D4B0022DA601C4B00221A6100
:1024F8001A4B0C225A61194B00229A61174B002281
:10250800DA61164B00221A62144B00225A62134BEE
:1025180000229A6211480CF0B1FC0346002B01D04E
:1025280000F036F900210D480EF00FFD0346002B90
:1025380001D000F02DF9002108480EF044FD0346B3
:10254800002B01D000F024F904480EF0C5FC034626
:10255800002B01D000F01CF900BF80BDD80C002072
:102568000048004080B582B000AF0D4BD3F8D8309A
:102578000B4A43F00103C2F8D830094BD3F8D830DE
:1025880003F001037B607B68002201210B200AF025
:1025980046FC0B200AF05DFC00BF0837BD4680BD35
:1025A8000044025880B58CB000AF07F11C0300222C
:1025B8001A605A609A60DA601A61594BD3F8E030B1
:1025C800574A43F01003C2F8E030554BD3F8E030D7
:1025D80003F01003BB61BB69514BD3F8E030504A9C
:1025E80043F08003C2F8E0304D4BD3F8E03003F0FD
:1025F80080037B617B694A4BD3F8E030484A43F05B
:102608000103C2F8E030464BD3F8E03003F0010391
:102618003B613B69424BD3F8E030414A43F0040345
:10262800C2F8E0303E4BD3F8E03003F00403FB601F
:10263800FB683B4BD3F8E030394A43F00203C2F859
:10264800E030374BD3F8E03003F00203BB60BB68DF
:10265800334BD3F8E030324A43F00803C2F8E03095
:102668002F4BD3F8E03003F008037B607B6800222F
:1026780048F2C0012B4807F05BFC00224FF4707150
:10268800294807F055FC00226021284807F050FC33
:102698007C23FB6100233B6202237B6207F11C035E
:1026A8001946234807F07CFA0C23FB6100233B62A0
:1026B80000237B6207F11C0319461E4807F070FAD5
:1026C80048F2C003FB6101233B6200237B620023C5
:1026D800BB6207F11C031946124807F061FA4FF470
:1026E8007073FB6101233B6200237B620023BB62A2
:1026F80007F11C0319460C4807F052FA6023FB61E6
:1027080001233B6200237B620023BB6207F11C03A9
:102718001946064807F044FA00BF3037BD4680BD69
:1027280000440258000C02580008025800040258DD
:10273800001002580000025880B584B000AF3B4634
:1027480000221A605A609A60DA600AF09DFB012341
:102758003B7000237B7000237B601F233B72872321
:102768007B720023BB720023FB7201233B7301239E
:102778007B730023BB730023FB733B4618460AF0A8
:10278800BBFB04200AF098FB00BF1037BD4680BD94
:1027980080B400AF72B600BF00BFFDE780B483B05D
:1027A80000AF00237B6007E00E4A7B68002142F8F7
:1027B80023107B6801337B607B68FF2BF4DD094BBA
:1027C8000022C3F80024074B0022C3F80424054B59
:1027D8000022C3F8082400BF0C37BD465DF8047B0F
:1027E800704700BF8C0F002080B483B000AF7860C2
:1027F800134BD3F80834B3F5807F1AD0104BD3F8B5
:1028080004340F497A6841F823200D4BD3F8043477
:1028180001335A42DBB2D2B258BF5342084AC2F817
:102828000434074BD3F808340133054AC2F8083496
:1028380000E000BF0C37BD465DF8047B704700BF61
:102848008C0F002080B483B000AF144BD3F8083449
:10285800002B02D14FF0FF331AE0104BD3F80034AD
:102868000E4A52F823307B600C4BD3F80034013306
:102878005A42DBB2D2B258BF5342084AC2F80034B7
:10288800064BD3F80834013B044AC2F808347B6885
:1028980018460C37BD465DF8047B70478C0F002046
:1028A80080B400AF064BD3F80834002B0CBF0123CB
:1028B8000023DBB21846BD465DF8047B704700BFB5
:1028C8008C0F002080B483B000AF7860044A7B6826
:1028D800136000BF0C37BD465DF8047B704700BF2E
:1028E8009827002080B582B000AF1AE000F0E4FF1E
:1028F8000346FB71FB79032B13D801A252F823F08E
:102908001F29000819290008252900082B29000873
:10291800FEF7E6FC05E0FEF747FB02E0FEF710FCD9
:1029280000BF00F075FF0346002BDFD000BF00BFDB
:102938000837BD4680BD00BF80B582B000AF1AE041
:1029480000F0BAFF0346FB71FB79032B13D801A2F1
:1029580052F823F0732900086D2900087929000826
:102968007F290008FEF7BCFC05E0FEF71DFB02E02E
:10297800FEF7E6FB00BF00F04BFF0346002BDFD15C
:102988000A4B1B78032B02D1FEF7DAFB07E0074B53
:102998001B78022B03D1FEF7D3FBFEF7D1FB034BC9
:1029A80000221A7000BF0837BD4680BDA42700204A
:1029B80080B584B000AF2CE000237B600323BB60AC
:1029C8000DE000F091FF0346FB73FB7B012B03D165
:1029D8007B6801337B6002E0FB7BBB600AE01D4B38
:1029E8001A681C4B5B681C491201134451F82330C8
:1029F800002BE6D17B68184600F05CFEBB68002B14
:102A080002D1FEF7D1FA04E0BB68022B01D1FEF730
:102A180097FB104B1A680F4B5B680F491201134460
:102A280051F82330002BC7D1FEF75AFC012000F0E3
:102A3800B3FEFEF7B9FA002000F052FEFEF7B4FA32
:102A4800002000F04DFE054B01221A7000BF103720
:102A5800BD4680BD9C27002090030020A5270020AC
:102A680080B485B000AFF860B9607A60074AFB6847
:102A78001360064ABB6853607B68DAB2044B1A706D
:102A880000BF1437BD465DF8047B70479C270020C3
:102A9800A427002080B400AF6E4B0122C3F878272A
:102AA8006C4B0122C3F860276A4B0122C3F87C27CC
:102AB800684B0122C3F87426664B0122C3F87428B8
:102AC800644B0122C3F87C29624B0122C3F87828A1
:102AD800604B0122C3F860285E4B0122C3F88027AF
:102AE8005C4B0122C3F898275A4B0122C3F88C2764
:102AF800584B0122C3F88426564B0122C3F880287C
:102B0800544B0122C3F89828524B0122C3F8842859
:102B1800504B0122C3F88C294F4B1B78002B21D135
:102B28004E4B1B68072B0CD14C4B5B68072B08D10D
:102B3800484B0022C3F87827464B0022C3F8602789
:102B480082E0464B1B68082B7ED1444B5B68072B01
:102B58007AD1404B0022C3F878283E4B0022C3F8B4
:102B6800602871E03C4B1B78012B21D13B4B1B6843
:102B7800072B0CD1394B5B68072B08D1354B00224A
:102B8800C3F87C27334B0022C3F874265CE0334B30
:102B98001B68072B58D1314B5B68082B54D12D4B40
:102BA8000022C3F88C272B4B0022C3F884264BE065
:102BB800294B1B78022B21D1284B1B68072B0CD1E2
:102BC800264B5B68082B08D1224B0022C3F88027CC
:102BD800204B0022C3F8982736E0204B1B68082BAF
:102BE80032D11E4B5B68082B2ED11A4B0022C3F83A
:102BF8008028184B0022C3F8982825E0164B1B782C
:102C0800032B21D1154B1B68082B0CD1134B5B6888
:102C1800072B08D10F4B0022C3F874280D4B002254
:102C2800C3F87C2910E00D4B1B68082B0CD10B4B0B
:102C38005B68082B08D1074B0022C3F88428054B92
:102C48000022C3F88C29FFE700BFBD465DF8047B6E
:102C5800704700BF98170020A42700209C27002059
:102C680080B483B000AF0023FB7127E00023BB7161
:102C78001CE000237B7111E097F9071097F90620F3
:102C880097F90530134809010A44920013440022B9
:102C980040F823207B790133DBB27B7197F905304B
:102CA800032BE9DDBB790133DBB2BB7197F9063041
:102CB8000F2BDEDDFB790133DBB2FB7197F90730AF
:102CC8000F2BD3DD00BF00BF0C37BD465DF8047B7A
:102CD800704700BF9817002080B582B000AFFFF79B
:102CE800BFFF0023FB7126E097F90730284A1B0134
:102CF80013440C3301221A6097F90730244A1B0247
:102D08001344083301221A6097F90730204A1B023E
:102D18001344F03301221A6097F907301C4A1B014B
:102D2800134403F6047301221A6097F90730DBB2E3
:102D38000133DBB2FB7197F907300E2BD4DD144B4E
:102D480001229A60124B0122DA60114B0122C3F86A
:102D5800F0200F4B0122C3F8FC200D4B0122C3F8D1
:102D6800042F0B4B0122C3F8082F094B0122C3F88B
:102D7800F02F074B0122C3F8F42F00F0C9F9002205
:102D880000210020FFF76CFE00BF0837BD4680BD5C
:102D98009817002080B582B000AF8F4B1B687B600E
:102DA8008D4B5B683B608D4B1B78032B00F2778162
:102DB80001A252F823F000BFD12D0008832E00088D
:102DC800332F0008ED2F0008FEF78AFD0346002B7D
:102DD80016D083497B681A013B6813441B010B44D6
:102DE80001221A603B680F2B0AD03B6801337C49EB
:102DF8007A68120113441B010B44083301221A603C
:102E0800FEF78AFD0346002B17D075497B681A0127
:102E18003B6813441B010B440C3301221A607B6886
:102E2800002B0ADD7B68013B6D491A013B6813449E
:102E38001B010B44043301221A60FEF789FD034687
:102E4800002B00F0258166497B681A013B68134412
:102E58001B010B44043301221A607B680F2B00F01E
:102E680017817B6801335E491A013B6813441B01D3
:102E78000B440C3301221A600AE1FEF731FD0346C8
:102E8800002B17D056497B681A013B6813441B0175
:102E98000B44043301221A607B680F2B0AD07B682D
:102EA80001334F491A013B6813441B010B440C338F
:102EB80001221A60FEF730FD0346002B16D0484960
:102EC8007B681A013B6813441B010B4401221A60FA
:102ED8003B680F2B0AD03B68013341497A681201DD
:102EE80013441B010B44083301221A60FEF730FD1E
:102EF8000346002B00F0CE8039497B681A013B68F5
:102F080013441B010B44083301221A603B68002B51
:102F180040F3C0803B68013B31497A681201134491
:102F28001B010B4401221A60B4E0FEF7D9FC0346EA
:102F3800002B16D02A497B681A013B6813441B01F1
:102F48000B44083301221A603B68002B09DD3B68FB
:102F5800013B23497A68120113441B010B440122E7
:102F68001A60FEF7D9FC0346002B17D01C497B6872
:102F78001A013B6813441B010B44043301221A60F5
:102F88007B680F2B0AD07B68013315491A013B680F
:102F980013441B010B440C3301221A60FEF7D8FCC2
:102FA8000346002B78D00E497B681A013B6813440E
:102FB8001B010B440C3301221A607B68002B6BDD6C
:102FC8007B68013B06491A013B6813441B010B440B
:102FD800043301221A605FE09C270020A427002008
:102FE80098170020FEF77CFC0346002B17D02E49CB
:102FF8007B681A013B6813441B010B440C33012204
:103008001A607B68002B0ADD7B68013B26491A01A0
:103018003B6813441B010B44043301221A60FEF77A
:103028007BFC0346002B16D01F497B681A013B68BE
:1030380013441B010B44083301221A603B68002B20
:1030480009DD3B68013B18497A68120113441B01EA
:103058000B4401221A60FEF77BFC0346002B1DD0AF
:1030680011497B681A013B6813441B010B44012278
:103078001A603B680F2B11D03B6801330A497A6804
:10308800120113441B010B44083301221A6005E0A6
:1030980000BF04E000BF02E000BF00E000BF00BFC7
:1030A8000837BD4680BD00BF9817002080B483B0A4
:1030B80000AF786039603B681A017B681344184692
:1030C8000C37BD465DF8047B704780B485B000AF0F
:1030D800786039603B685A4203F00F0302F00F0230
:1030E80058BF5342BB603B68002B00DA0F331B11FB
:1030F800FB607B681A4607F1080393E8030082E83F
:10310800030078681437BD465DF8047B70470000FB
:1031180080B483B000AF0023FB711DE00023BB71B6
:1031280010E097F9072097F906301D49120113445A
:103138004FF0FF3241F8232097F90630DBB2013314
:10314800DBB2BB7197F906300F2BEADD97F9073030
:10315800DBB20133DBB2FB7197F907300F2BDDDDF2
:10316800104B93F90030002B10D10D4B0022C3F8FF
:1031780020220B4B0022C3F8E021094B0022C3F8A0
:103188001C22074B0022C3F8DC2102E0044B00227A
:103198001A6000BF0C37BD465DF8047B704700BF5E
:1031A80090030020A527002080B485B000AFF86008
:1031B800B9601346FB71FB79032B45D801A252F87D
:1031C80023F000BFDD310008F53100080F32000898
:1031D800293200082049FB681A01BB6813441B0107
:1031E8000B441B68012B28D101232EE01A49FB68E8
:1031F8001A01BB6813441B010B4404331B68012BE1
:103208001DD1012321E01449FB681A01BB6813444E
:103218001B010B4408331B68012B12D1012314E056
:103228000D49FB681A01BB6813441B010B440C339E
:103238001B68012B07D1012307E000BF04E000BF92
:1032480002E000BF00E000BF002318461437BD4667
:103258005DF8047B704700BF9817002080B586B0E2
:1032680000AFFFF755FFFFF799FA00237B611CE0D9
:1032780000233B6113E074497B691A013B691344DD
:1032880051F82330002B07D139697869FFF70EFF11
:1032980003461846FFF7A8FA3B6901333B613B69CF
:1032A8000F2BE8DD7B6901337B617B690F2BDFDD49
:1032B800BFE0FFF7C7FA02463B4611461846FFF73C
:1032C80004FF3B68FB607B68BB600022B968F86854
:1032D800FFF76AFF0346002B24D1BB6801335A4924
:1032E800FA681201134451F82330B3F1FF3F19D1A2
:1032F8005549FB681A01BB68134451F82320BB6881
:10330800013301325048F96809010B4440F8232081
:10331800BB6801331946F868FFF7C8FE034618462C
:10332800FFF762FA0122B968F868FFF73DFF034624
:10333800002B24D1FB68013343491A01BB681344AD
:1033480051F82330B3F1FF3F19D13F49FB681A0107
:10335800BB68134451F82320FB68013301323A4813
:103368001901BB680B4440F82320FB680133B96896
:103378001846FFF79BFE03461846FFF735FA022268
:10338800B968F868FFF710FF0346002B24D1BB6823
:10339800013B2D49FA681201134451F82330B3F167
:1033A800FF3F19D12849FB681A01BB68134451F83B
:1033B8002320BB68013B01322348F96809010B440B
:1033C80040F82320BB68013B1946F868FFF76EFEFA
:1033D80003461846FFF708FA0322B968F868FFF7AA
:1033E800E3FE0346002B24D1FB68013B16491A0172
:1033F800BB68134451F82330B3F1FF3F19D1124988
:10340800FB681A01BB68134451F82320FB68013B91
:1034180001320D481901BB680B4440F82320FB68B2
:10342800013BB9681846FFF741FE03461846FFF707
:10343800DBF9FFF735FA0346002B3FF43AAF00BF3C
:1034480000BF1837BD4680BD9003002080B586B008
:1034580000AFFFF75DFE954B0022C3F82022934B87
:103468000022C3F8E021914B0022C3F81C228F4BA5
:103478000022C3F8DC218D4B4FF0FF321A608C4BD1
:103488000122C3F8DC218A4B0122C3F81C22884B95
:103498000122C3F8E021864B0122C3F82022FFF75E
:1034A8007DF90023FB7525E00023BB751AE097F929
:1034B800172097F916307D491201134451F823302B
:1034C800002B0BD197F9173097F91620114618469B
:1034D800FFF7ECFD03461846FFF786F9BB7D01337D
:1034E800DBB2BB7597F916300F2BE0DDFB7D01339E
:1034F800DBB2FB7597F917300F2BD5DDCBE0FFF763
:10350800A1F902463B1D11461846FFF7DEFD7B6810
:103518003B61BB68FB6066493B691A01FB68134461
:1035280051F82330002B00F0B5800022F968386983
:10353800FFF73AFE0346002B24D1FB6801335B49B1
:103548003A691201134451F82330B3F1FF3F19D1FE
:1035580056493B691A01FB68134451F82320FB685C
:10356800013301325148396909010B4440F82320DD
:10357800FB68013319463869FFF798FD034618467A
:10358800FFF732F90122F9683869FFF70DFE0346A3
:10359800002B24D13B69013344491A01FB681344C9
:1035A80051F82330B3F1FF3F19D140493B691A0163
:1035B800FB68134451F823203B69013301323B482F
:1035C8001901FB680B4440F823203B690133F96873
:1035D8001846FFF76BFD03461846FFF705F9022268
:1035E800F9683869FFF7E0FD0346002B24D1FB6832
:1035F800013B2E493A691201134451F82330B3F1C3
:10360800FF3F19D129493B691A01FB68134451F856
:103618002320FB68013B01322448396909010B4426
:1036280040F82320FB68013B19463869FFF73EFD47
:1036380003461846FFF7D8F80322F9683869FFF7F8
:10364800B3FD0346002B26D13B69013B17491A01FC
:10365800FB68134451F82330B3F1FF3F1BD11349E2
:103668003B691A01FB68134451F823203B69013B6D
:1036780001320E481901FB680B4440F823203B69CE
:10368800013BF9681846FFF711FD03461846FFF796
:10369800ABF800E000BFFFF703F90346002B3FF447
:1036A8002EAF00BF00BF1837BD4680BD9003002075
:1036B8009813002080B584B000AF78600023FB60C9
:1036C80004E0FDF70DFEFB680133FB60FA687B68D8
:1036D8009A42F6DB00BF00BF1037BD4680BD000030
:1036E80080B483B000AF0346FB71FB79012B47D050
:1036F800FB79032B44D0FB79002B1FD1254B1B787A
:10370800032B3FD801A252F823F000BF2537000849
:103718002D370008353700083D3700081D4B0322B8
:103728001A7032E01B4B00221A702EE0194B01224E
:103738001A702AE0174B02221A7026E0FB79022B36
:1037480023D1144B1B78032B1ED801A252F823F067
:103758006937000871370008793700088137000891
:103768000C4B01221A7010E00A4B02221A700CE06E
:10377800084B03221A7008E0064B00221A7004E076
:1037880000BF02E000BF00E000BF0C37BD465DF897
:10379800047B7047A427002080B483B000AF0346A1
:1037A800FB71FB79012B27D1174B1B78032B25D8ED
:1037B80001A252F823F000BFD1370008E93700080A
:1037C800DD370008F5370008104B5B6801330F4AF6
:1037D800536014E00D4B5B68013B0C4A53600EE0EC
:1037E8000A4B1B680133094A136008E0074B1B6842
:1037F800013B064A136002E000BF00E000BF0C373F
:10380800BD465DF8047B7047A42700209C27002054
:1038180080B400AF244B93F90030002B17D1234B11
:103828001A68224B5B6822491201134451F823306D
:10383800002B0CD11C4B01221A701E4B93F900303F
:10384800DBB20133DBB25AB21A4B1A7023E0164BC3
:1038580093F90030002B1ED0144B1A68134B5B6889
:1038680013491201134451F82330002B13D10F4B85
:103878001B68002B0FD10D4B5B68002B0BD10A4B3B
:1038880000221A700B4B93F90030DBB20133DBB224
:103898005AB2084B1A70044B93F900301846BD46CB
:1038A8005DF8047B704700BFA52700209C270020F7
:1038B80090030020A627002080B582B000AFFFF754
:1038C80069FAFFF7CBFC00F023F80346FB71FB799C
:1038D8001846FFF705FFFB791846FFF75DFFFB79F0
:1038E80018460837BD4680BD80B582B000AF00F0ED
:1038F8000FF80346FB71FB791846FFF7F1FEFB79D9
:103908001846FFF749FFFB7918460837BD4680BDC2
:1039180080B582B000AF4FF496737B600323FB70D1
:103928005A4B1A68594B5B685949120113440122D2
:1039380041F82320574B1B78002B40F0B180534BA4
:103948001B68524A516800221846FFF72DFC0346AF
:10395800002B2AD14D4B1A684C4B5B6801334E49FA
:103968001201134451F823307A689A421DDB474B01
:103978001A68464B5B68013347491201134451F8F2
:1039880023307A689A4203DC444B1B68002B0CD125
:103998003E4B1A683D4B5B6801333F4912011344A3
:1039A80051F823307B600123FB70384B1B68374A82
:1039B800516801221846FFF7F7FB0346002B2AD16E
:1039C800324B1B685A1C314B5B6833491201134454
:1039D80051F823307A689A421DDB2C4B1B685A1C1D
:1039E8002A4B5B682C491201134451F823307A683A
:1039F8009A4203DC294B1B68012B0CD1234B1B6813
:103A08005A1C224B5B6824491201134451F8233095
:103A18007B600223FB701D4B1B681C4A5168032204
:103A28001846FFF7C1FB0346002B40F04882174BAE
:103A38001B685A1E154B5B6817491201134451F84D
:103A480023307A689A42C0F23A82104B1B685A1E99
:103A58000E4B5B6810491201134451F823307A6801
:103A68009A4204DC0D4B1B68032B40F02882074B5D
:103A78001B685A1E054B5B6807491201134451F82D
:103A880023307B600023FB7019E200BF9C270020D5
:103A980098130020A42700209003002098270020D6
:103AA800554B1B78012B40F0AF80544B1B68534A91
:103AB800516800221846FFF777FB0346002B2AD1EE
:103AC8004E4B1A684D4B5B6801334D491201134444
:103AD80051F823307A689A421DDB484B1A68474BE5
:103AE8005B68013346491201134451F823307A6860
:103AF8009A4203DC434B1B68002B0CD13F4B1A68DE
:103B08003E4B5B6801333E491201134451F82330A0
:103B18007B600023FB70394B1B68384A51680122CF
:103B28001846FFF741FB0346002B2AD1334B1B688D
:103B38005A1C324B5B6832491201134451F8233046
:103B48007A689A421DDB2D4B1B685A1C2B4B5B680D
:103B58002B491201134451F823307A689A4203DC46
:103B6800284B1B68012B0CD1244B1B685A1C234B78
:103B78005B6823491201134451F823307B60012309
:103B8800FB701E4B1B681D4A516802221846FFF73E
:103B98000BFB0346002B40F09281184B1A68174B19
:103BA8005B68013B16491201134451F823307A68C7
:103BB8009A42C0F28481114B1A68104B5B68013B32
:103BC8000F491201134451F823307A689A4204DCF1
:103BD8000C4B1B68022B40F07281084B1A68074B8C
:103BE8005B68013B06491201134451F823307B609E
:103BF8000223FB7063E100BFA42700209C2700205C
:103C08009003002098270020554B1B78022B40F08A
:103C1800AF80544B1B68534A516801221846FFF77E
:103C2800C3FA0346002B2AD14E4B1B685A1C4D4B36
:103C38005B684D491201134451F823307A689A425F
:103C48001DDB484B1B685A1C464B5B6846491201F2
:103C5800134451F823307A689A4203DC434B1B68BB
:103C6800012B0CD13F4B1B685A1C3E4B5B683E49ED
:103C78001201134451F823307B600023FB70394B49
:103C88001B68384A516802221846FFF78DFA034626
:103C9800002B2AD1334B1A68324B5B68013B3249FF
:103CA8001201134451F823307A689A421DDB2D4BD8
:103CB8001A682C4B5B68013B2B491201134451F8DD
:103CC80023307A689A4203DC284B1B68022B0CD1FC
:103CD800244B1A68234B5B68013B234912011344A8
:103CE80051F823307B600123FB701E4B1B681D4A73
:103CF800516803221846FFF757FA0346002B40F095
:103D0800DE80184B1B685A1E164B5B681649120159
:103D1800134451F823307A689A42C0F2D080114B8C
:103D28001B685A1E0F4B5B680F491201134451F868
:103D380023307A689A4204DC0C4B1B68032B40F052
:103D4800BE80084B1B685A1E064B5B680649120169
:103D5800134451F823307B600223FB70AFE000BFAF
:103D6800A42700209C2700209003002098270020EB
:103D7800584B1B78032B40F0A280574B1B68564AC0
:103D8800516800221846FFF70FFA0346002B2AD184
:103D9800514B1A68504B5B68013350491201134468
:103DA80051F823307A689A421DDB4B4B1A684A4B0C
:103DB8005B68013349491201134451F823307A688A
:103DC8009A4203DC464B1B68002B0CD1424B1A6805
:103DD800414B5B68013341491201134451F82330C8
:103DE8007B600223FB703C4B1B683B4A51680222F4
:103DF8001846FFF7D9F90346002B2AD1364B1A6823
:103E0800354B5B68013B35491201134451F82330A7
:103E18007A689A421DDB304B1A682F4B5B68013B6E
:103E28002E491201134451F823307A689A4203DC70
:103E38002B4B1B68022B0CD1274B1A68264B5B684F
:103E4800013B26491201134451F823307B600023BB
:103E5800FB70214B1B68204A516803221846FFF764
:103E6800A3F90346002B2AD11B4B1B685A1E1A4B79
:103E78005B681A491201134451F823307A689A4250
:103E88001DDB154B1B685A1E134B5B681349120147
:103E9800134451F823307A689A4203DC104B1B68AC
:103EA800032B0CD10C4B1B685A1E0B4B5B680B4940
:103EB8001201134451F823307B600123FB707B68A7
:103EC800B3F5967F01D10223FB70FB7818460837BB
:103ED800BD4680BDA42700209C2700209003002019
:103EE8009827002080B483B000AF0A4BD3F8F43091
:103EF800084A43F00203C2F8F430064BD3F8F43012
:103F080003F002037B607B6800BF0C37BD465DF899
:103F1800047B70470044025880B5BCB000AF78609D
:103F280007F1DC0300221A605A609A60DA601A61AD
:103F380007F11803C02200211846FCF741FB7B68F3
:103F48001B684E4A934240F094804FF400224FF091
:103F58000003C7E9062302233B620C237B6202238A
:103F6800BB620223FB6202233B63C0237B632023E3
:103F7800BB630023FB630023C7F8BC3007F11803B9
:103F8800184603F00FF90346002B01D0FEF700FC9A
:103F98003B4BD3F8D8303A4A43F02003C2F8D83024
:103FA800374BD3F8D83003F020037B617B69344B5F
:103FB800D3F8E030324A43F00103C2F8E030304B26
:103FC800D3F8E03003F001033B613B692C4BD3F895
:103FD800E0302B4A43F00403C2F8E030284BD3F812
:103FE800E03003F00403FB60FB68254BD3F8E030B6
:103FF800234A43F00203C2F8E030214BD3F8E03003
:1040080003F00203BB60BB68C023C7F8DC3003239E
:10401800C7F8E0300023C7F8E43007F1DC0319469D
:10402800184805F0BDFD3023C7F8DC300323C7F876
:10403800E0300023C7F8E43007F1DC0319461248E2
:1040480005F0AEFD0223C7F8DC300323C7F8E030E3
:104058000023C7F8E43007F1DC0319460B4805F0E4
:104068009FFD00220021122008F0D9FE122008F03E
:10407800F0FE00BFF037BD4680BD00BF0020024003
:104088000044025800000258000802580004025870
:1040980080B5BAB000AF786007F1D40300221A6087
:1040A8005A609A60DA601A6107F11003C022002191
:1040B8001846FCF785FA7B681B68274A934246D165
:1040C8004FF008024FF00003C7E904230023C7F8A4
:1040D800943007F11003184603F064F80346002BE8
:1040E80001D0FEF755FB1D4BD3F8E0301B4A43F0D7
:1040F8000203C2F8E030194BD3F8E03003F00203B2
:10410800FB60FB684FF44063C7F8D4301223C7F84C
:10411800D8300023C7F8DC300023C7F8E030042388
:10412800C7F8E43007F1D40319460D4805F038FD07
:104138000A4BD3F8E830094A43F48003C2F8E83060
:10414800064BD3F8E83003F48003BB60BB6800BFBC
:10415800E837BD4680BD00BF005800400044025803
:104168000004025880B586B000AF78607B681B6891
:10417800234A93420FD1234BD3F8F030214A43F01E
:104188000103C2F8F0301F4BD3F8F03003F00103FD
:104198007B617B6930E07B681B681B4A93420FD1C7
:1041A800184BD3F8E830174A43F00403C2F8E83054
:1041B800144BD3F8E83003F004033B613B691BE080
:1041C8007B681B68114A934216D10E4BD3F8E8302E
:1041D8000C4A43F02003C2F8E8300A4BD3F8E83021
:1041E80003F02003FB60FB6800220221372008F05F
:1041F80016FE372008F02DFE00BF1837BD4680BDDB
:10420800000001400044025800080040001400402B
:1042180080B58CB000AF786007F11C0300221A60EB
:104228005A609A60DA601A617B681B68B3F1804F44
:104238004ED1434BD3F8E830414A43F00103C2F86A
:10424800E8303F4BD3F8E83003F00103BB61BB69AA
:104258003B4BD3F8E0303A4A43F00103C2F8E03070
:10426800374BD3F8E03003F001037B617B69344BB3
:10427800D3F8E030324A43F00203C2F8E030304B62
:10428800D3F8E03003F002033B613B694FF400438D
:10429800FB6102233B6200237B620023BB62012394
:1042A800FB6207F11C031946264805F079FC082330
:1042B800FB6102233B6200237B620023BB62012374
:1042C800FB6207F11C0319461F4805F069FC32E040
:1042D8007B681B681D4A93422DD1194BD3F8E830EF
:1042E800174A43F00803C2F8E830154BD3F8E83012
:1042F80003F00803FB60FB68114BD3F8E030104A69
:1043080043F00103C2F8E0300D4BD3F8E03003F07E
:104318000103BB60BB680323FB6102233B620023EC
:104328007B620023BB620223FB6207F11C03194670
:10433800044805F035FC00BF3037BD4680BD00BFDE
:10434800004402580000025800040258000C0040C3
:1043580080B58AB000AF786007F1140300221A60B4
:104368005A609A60DA601A617B681B68264A934231
:1043780020D1264BD3F8E030244A43F00103C2F899
:10438800E030224BD3F8E03003F001033B613B6996
:104398004FF440737B610223BB610023FB61002360
:1043A8003B6201237B6207F114031946184805F0A4
:1043B800F7FB24E07B681B68164A93421FD1134B16
:1043C800D3F8E030114A43F00803C2F8E0300F4B4D
:1043D800D3F8E03003F00803FB60FB684FF4804338
:1043E8007B610223BB610023FB6100233B62022344
:1043F8007B6207F114031946074805F0D1FB00BF9B
:104408002837BD4680BD00BF000001400044025867
:104418000000025800080040000C025880B5BAB0ED
:1044280000AF786007F1D40300221A605A609A60DE
:10443800DA601A6107F11003C02200211846FCF760
:10444800BFF87B681B68424A93427CD14FF0020256
:104458004FF00003C7E904230023C7F8883007F1A9
:104468001003184602F09EFE0346002B01D0FEF70B
:104478008FF9384BD3F8E830364A43F48023C2F832
:10448800E830344BD3F8E83003F48023FB60FB6852
:10449800304BD3F8E0302F4A43F00803C2F8E0303D
:1044A8002C4BD3F8E03003F00803BB60BB684FF433
:1044B8004073C7F8D4300223C7F8D8300023C7F8B0
:1044C800DC300023C7F8E0300723C7F8E43007F1F1
:1044D800D4031946204805F063FB204B204A1A6094
:1044E8001E4B2D225A601D4B00229A601B4B002246
:1044F800DA601A4B4FF480621A61184B00225A6135
:10450800164B00229A61154B0022DA61134B0022E8
:104518001A62124B00225A62104805F023FD034626
:10452800002B01D0FEF734F97B680C4AC3F88020D1
:104538000A4A7B68936300220021272008F06FFC59
:10454800272008F086FC00BFE837BD4680BD00BFC5
:104558000048004000440258000C02586C0D00202E
:104568001000024080B400AF00BFFDE780B400AF88
:1045780000BFFDE780B400AF00BFFDE780B400AF27
:1045880000BFFDE780B400AF00BFFDE780B400AF17
:1045980000BFBD465DF8047B704780B400AF00BF24
:1045A800BD465DF8047B704780B400AF00BFBD46D0
:1045B8005DF8047B704780B500AF08F04FFD00BF81
:1045C80080BD000080B500AF024806F0F5FF00BFCF
:1045D80080BD00BF6C0D002080B500AF024800F020
:1045E80085FD00BF80BD00BFE409002080B500AF95
:1045F80002480AF0CBFE00BF80BD00BFD80C0020E7
:1046080080B500AF024809F093FB00BF80BD00BF32
:104618008C0C002080B400AF374BD3F88830364A72
:1046280043F47003C2F88830344B1B6803F00F035F
:10463800062B07D8314B1B6823F00F032F4A43F092
:10464800070313602E4B1B682D4A43F001031360C8
:104658002B4B00221A612A4B1A682949294B13400F
:104668000B60264B1B6803F00803002B07D0234B75
:104678001B6823F00F03214A43F007031360204B04
:1046880000229A611E4B0022DA611D4B00221A6239
:104698001B4B1D4A9A621A4B1C4ADA62184B1C4A79
:1046A8001A63174B00225A63154B194A9A63144B25
:1046B8000022DA63124B164A1A64114B00225A641C
:1046C8000F4B1B680E4A23F4802313600C4B002207
:1046D8001A66104B1A68104B1340B3F1005F02D2F0
:1046E8000E4B01221A600E4B43F2D2021A6000BF31
:1046F800BD465DF8047B704700ED00E000200052E5
:10470800004402587FEDF6EA000202020000FF01B1
:10471800800201010010005C0000FFFF08810051C9
:104728000040005280B483B000AF786039607B6885
:104738009B6823F47C123B681A437B689A6000BF2D
:104748000C37BD465DF8047B704780B483B000AF7A
:10475800786039607B689B6823F0E0723B681A4395
:104768007B689A6000BF0C37BD465DF8047B7047D4
:1047780080B483B000AF78607B689B6803F0E07317
:1047880018460C37BD465DF8047B704780B487B087
:1047980000AFF860B9607A603B60FB6860331A4626
:1047A800BB689B0013447B617B691B6803F0004274
:1047B8007B6803F0F8413B680B431A437B691A6036
:1047C80000BF1C37BD465DF8047B704780B485B0D8
:1047D80000AFF860B9607A60FB681B6923F4F042A7
:1047E800BB6803F01F03796801FA03F31A43FB68F7
:1047F8001A6100BF1437BD465DF8047B704780B46A
:1048080087B000AFF860B9607A60FB6860331A4619
:10481800BB689B0013447B617B691B6823F00042E3
:104828007B681A437B691A6000BF1C37BD465DF878
:10483800047B704780B483B000AF78607B68DB6826
:1048480003F44063002B01D1012300E00023184644
:104858000C37BD465DF8047B704780B487B000AF65
:10486800F860B9607A60FB6830331A46BB681B0A87
:104878009B0003F00C0313447B617B691A68BB68D7
:1048880003F01F031F2101FA03F3DB431A407B687F
:104898009B0E03F01F01BB6803F01F0301FA03F32B
:1048A8001A437B691A6000BF1C37BD465DF8047B5C
:1048B800704780B483B000AF78607B68DB6C03F42A
:1048C800C073002B01D1012300E0002318460C37E8
:1048D800BD465DF8047B704780B487B000AFF860D0
:1048E800B9607A60FB6814331A46BB685B0E9B009C
:1048F80003F0040313447B617B691A68BB681B0DD2
:1049080003F01F03072101FA03F3DB431A40BB68D6
:104918001B0D03F01F03796801FA03F31A437B693F
:104928001A6000BF1C37BD465DF8047B7047000065
:1049380080B485B000AFF860B9607A60FB68D3F8DE
:10494800C020BB68C3F31303DB431A407B6803F042
:1049580018030849D940BB680B40C3F313031A4333
:10496800FB68C3F8C02000BF1437BD465DF8047B60
:10497800704700BFFFFF0F0080B483B000AF7860BE
:104988007B689B6803F01F0318460C37BD465DF82B
:10499800047B704780B483B000AF78607B689B6805
:1049A80003F4404318460C37BD465DF8047B704756
:1049B80080B483B000AF78607B689A68044B13407A
:1049C8007A68936000BF0C37BD465DF8047B70477A
:1049D800C0FFFF5F80B483B000AF78607B689B68DE
:1049E80003F00053B3F1005F01D1012300E000237D
:1049F80018460C37BD465DF8047B704780B483B019
:104A080000AF78607B689A68054B134043F080528A
:104A18007B689A6000BF0C37BD465DF8047B704721
:104A2800C0FFFF6F80B483B000AF78607B689B687D
:104A380003F08053B3F1805F01D1012300E000232C
:104A480018460C37BD465DF8047B704780B483B0C8
:104A580000AF78607B689A68054B134043F0010209
:104A68007B689A6000BF0C37BD465DF8047B7047D1
:104A7800C0FFFF7F80B483B000AF78607B689B681D
:104A880003F00103012B01D1012300E000231846A4
:104A98000C37BD465DF8047B7047000080B483B0D6
:104AA80000AF78607B689A68054B134043F00402B6
:104AB8007B689A6000BF0C37BD465DF8047B704781
:104AC800C0FFFF7F80B483B000AF78607B689B68CD
:104AD80003F00403042B01D1012300E0002318464E
:104AE8000C37BD465DF8047B704780B483B000AFD7
:104AF80078607B689B6803F00803082B01D10123C9
:104B080000E0002318460C37BD465DF8047B70476B
:104B180090B589B000AF78600023FB770023BB60B5
:104B28007B68002B01D101238FE17B68DB68002BB8
:104B38007B685B6D002B09D17868FFF7EDF97B681E
:104B480000229A657B68002283F850207B681B68E6
:104B58001846FFF73FFF0346002B04D07B681B680D
:104B68001846FFF725FF7B681B681846FFF75AFFB2
:104B78000346002B14D17B681B681846FFF73EFFDD
:104B8800874B1B689B09874AA2FB03239B090133B8
:104B9800BB6002E0BB68013BBB60BB68002BF9D17E
:104BA8007B681B681846FFF73DFF0346002B0DD1B5
:104BB8007B685B6D43F010027B685A657B689B6D70
:104BC80043F001027B689A650123FB777B681B68C9
:104BD8001846FFF777FF78617B685B6D03F0100379
:104BE800002B40F029817B69002B40F025817B68F0
:104BF8005B6D23F4817343F002027B685A657B681E
:104C08001B681846FFF736FF0346002B36D17B6832
:104C18001B68654A934204D07B681B68634A9342C9
:104C28000ED16148FFF726FF04466048FFF722FFD0
:104C380003462343002B0CBF01230023DBB208E00B
:104C48005B48FFF717FF0346002B0CBF0123002327
:104C5800DBB2002B12D07B681B68534A934204D006
:104C68007B681B68514A934201D1524A00E0524A7C
:104C78007B685B6819461046FFF754FD08F032FA66
:104C8800034641F20302934214D97B689B68102BB8
:104C980010D17B685B7D5A037B681B6B1A437B686A
:104CA8009B681A437B681B7F1B04134343F00C0368
:104CB800BB610DE07B685B7D5A037B681B6B1A4305
:104CC8007B689B681A437B681B7F1B041343BB618B
:104CD8007B681B7F012B06D17B681B6A013B5B0449
:104CE800BA691343BB617B685B6A002B09D07B6898
:104CF8005B6A03F478727B689B6A1343BA6913434F
:104D0800BB617B681B68DA682C4B13407A681268B1
:104D1800B9690B43D3607B681B681846FFF7D2FE5E
:104D280038617B681B681846FFF7DFFEF8603B694F
:104D3800002B5FD1FB68002B5CD17B681B7D9A033D
:104D48007B68DB6A1343BB617B681B68DA681C4BB2
:104D580013407A681268B9690B43D3607B6893F88B
:104D68003830012B30D17B685B6A002B7B681B686D
:104D78001A69144B13407A68D26B013A11047A68A5
:104D8800126C11437A68526C11437A68926C0A4328
:104D98001A437B681B6842F001021A611CE000BFDD
:104DA80090070020632D3E050020024000210240AC
:104DB80000600258002302400063025803C0F0FF5D
:104DC800FCBFFFFF1EF800FC7B681B681A697B6844
:104DD8001B6822F001021A617B681B681B6923F0BB
:104DE80070417B685A6B7B681B680A431A61786854
:104DF80000F0B0FF7B68DB68012B0CD17B681B6877
:104E08001B6B23F00F017B689B695A1E7B681B682C
:104E18000A431A6307E07B681B681A6B7B681B6888
:104E280022F00F021A637B685B6D23F0030343F0E3
:104E380001027B685A6507E07B685B6D43F01002EE
:104E48007B685A650123FB77FB7F18462437BD46EC
:104E580090BD00BF80B586B000AF78607B681B68E6
:104E6800924A934204D07B681B68914A934201D1CD
:104E7800904B00E0904B1846FFF77EFD38617B6849
:104E88001B681846FFF71EFE0346002B40F01881EA
:104E98007B6893F85030012B01D1022313E17B6822
:104EA800012283F85020786800F0CAFE0346FB759B
:104EB800FB7D002B40F0F5807B685A6D7F4B1340DB
:104EC80043F480727B685A657B681B68784A934212
:104ED80002D07B681B6800E0744B7A6812689342C2
:104EE80002D03B69002B05D17B685B6D23F48012EF
:104EF8007B685A657B685B6D03F48053002B06D092
:104F08007B689B6D23F006027B689A6502E07B68EC
:104F180000229A657B681B681C221A607B68002245
:104F280083F850207B681B685A687B681B6822F0EE
:104F38001C025A607B681B69082B08D17B681B68B8
:104F48005A687B681B6842F008025A6008E07B6870
:104F58001B685A687B681B6842F004025A6000BFED
:104F68007B681B6B002B07D17B681B685A687B68C2
:104F78001B6842F010025A607B681B684C4A9342D7
:104F880002D07B681B6800E0484B7A68126893423D
:104F980008D03B69002B05D03B69052B02D03B6943
:104FA800092B3AD17B681B68DB6803F00073002B80
:104FB8002DD07B685B6D23F4405343F480527B68AB
:104FC8005A657B681B69082B10D17B681B685A6877
:104FD8007B681B6822F020025A607B681B685A684D
:104FE8007B681B6842F040025A6010E07B681B68CF
:104FF8005A687B681B6822F040025A607B681B680D
:105008005A687B681B6842F020025A6000BF7B68C0
:105018001B681846FFF742FD54E07B685B6D43F45C
:1050280080127B685A657B681B68214A934202D0CC
:105038007B681B6800E01D4BFB60FB68DB6803F0C6
:105048000073002B3ED07B685B6D23F4405343F420
:1050580080527B685A657B681B69082B10D17B6876
:105068001B685A687B681B6822F020025A607B68BC
:105078001B685A687B681B6842F040025A6021E04E
:105088007B681B685A687B681B6822F040025A607C
:105098007B681B685A687B681B6842F020025A606C
:1050A80010E07B68002283F850200BE000200240CB
:1050B800002102400023024000630258FEF0FFFF77
:1050C8000223FB75FB7D18461837BD4680BD00BF1F
:1050D80080B483B000AF78607B681B681B6C18468F
:1050E8000C37BD465DF8047B7047000080B58AB078
:1050F80000AF786000237B627B681B681B68FB61DC
:105108007B681B685B68BB617B681B68874A934246
:1051180004D07B681B68864A934201D1854B00E026
:10512800854B1846FFF728FC7861FB6903F00203FA
:10513800002B17D0BB6903F00203002B12D07B6849
:105148005B6D03F01003002B05D17B685B6D43F4A6
:1051580000627B685A65786800F056FF7B681B68B8
:1051680002221A60FB6903F00403002B04D0BB6918
:1051780003F00403002B0AD1FB6903F00803002B9A
:1051880000F08380BB6903F00803002B7DD07B68A7
:105198005B6D03F01003002B05D17B685B6D43F456
:1051A80000727B685A657B681B681846FFF742FBEC
:1051B8000346002B62D07B681B685D4A934202D08D
:1051C8007B681B6800E0594B7A681268934208D0E4
:1051D8007B69002B05D07B69052B02D07B69092BE5
:1051E80004D17B681B68DB683B620CE07B681B684A
:1051F8004F4A934202D07B681B6800E04B4B3B61EF
:105208003B69DB683B623B6A03F40053002B35D1F2
:105218007B681B681B6803F00803082B2ED17B688A
:105228001B681846FFF74EFC0346002B1AD17B6813
:105238001B685A687B681B6822F00C025A607B68FE
:105248005B6D23F480727B685A657B685B6D03F441
:105258008053002B12D17B685B6D43F001027B68A1
:105268005A650BE07B685B6D43F010027B685A65FA
:105278007B689B6D43F001027B689A657868FCF750
:10528800D3F97B681B680C221A60FB6903F02003C2
:10529800002B04D0BB6903F02003002B0BD1FB6962
:1052A80003F04003002B00F0A080BB6903F040032B
:1052B800002B00F09A807B685B6D03F01003002BD5
:1052C80005D17B685B6D43F400527B685A657B6847
:1052D8001B681846FFF7EDFAF8607B681B681846EC
:1052E800FFF7A8FAB8607B681B68114A934202D09E
:1052F8007B681B6800E00D4B7A681268934208D0FF
:105308007B69002B05D07B69062B02D07B69072BB4
:1053180004D17B681B68DB683B6214E07B681B6810
:10532800034A93420AD07B681B6808E000200240C9
:10533800002102400023024000630258844B3B6175
:105348003B69DB683B62FB68002B47D03B6A03F094
:105358000073002B07D0BB68002B3FD03B6A03F4D7
:105368000053002B3AD17B681B681B6803F040038D
:10537800402B33D13B6A03F40013002B2ED17B68FA
:105388001B681846FFF7B1FB0346002B1AD17B6850
:105398001B685A687B681B6822F060025A607B6849
:1053A8005B6D23F480527B685A657B685B6D03F400
:1053B8008073002B12D17B685B6D43F001027B6820
:1053C8005A650BE07B685B6D43F010027B685A6599
:1053D8007B689B6D43F001027B689A65786800F0F2
:1053E800EBFD7B681B6860221A60FB6903F0800391
:1053F800002B11D0BB6903F08003002B0CD07B6815
:105408005B6D43F480327B685A65786800F0A8F8D1
:105418007B681B6880221A60FB6903F48073002B89
:1054280012D0BB6903F48073002B0DD07B685B6DD1
:1054380043F400327B685A65786800F0D1FD7B68D8
:105448001B684FF480721A60FB6903F40073002B29
:1054580012D0BB6903F40073002B0DD07B685B6D21
:1054680043F480227B685A65786800F0C3FD7B6846
:105478001B684FF400721A60FB6903F01003002BDD
:1054880043D0BB6903F01003002B3ED07B681B6B35
:10549800002B02D101237B6221E07B69002B15D010
:1054A8007B681B682A4A934204D07B681B68294A98
:1054B800934201D1284B00E0284B1846FFF76AFABF
:1054C8000346002B0BD001237B6208E07B681B6836
:1054D800DB6803F00303002B01D001237B627B6AA6
:1054E800012B0ED17B685B6D43F480627B685A6543
:1054F8007B689B6D43F002027B689A65786800F0D0
:1055080039F87B681B6810221A60FB6903F4806312
:10551800002B18D0BB6903F48063002B13D07B6881
:105528005B6D43F480427B685A657B689B6D43F0F2
:1055380008027B689A657B681B684FF480621A6072
:10554800786800F043FD00BF2837BD4680BD00BF26
:10555800002002400021024000230240006302585C
:1055680080B483B000AF786000BF0C37BD465DF8EB
:10557800047B704780B483B000AF786000BF0C37FD
:10558800BD465DF8047B704790B5A1B000AF786068
:105598003960002387F87F300023BB603B68DB68F5
:1055A800654A93427B6893F85030012B01D102235E
:1055B8002EE37B68012283F850207B681B6818461D
:1055C800FFF780FA0346002B40F013833B681B6803
:1055D800002B2CDB3B681B68C3F31303002B08D19B
:1055E8003B681B689B0E03F01F03012202FA03F3BA
:1055F80016E03B681B687B667B6E93FAA3F33B66F9
:105608003B6EBB66BB6E002B01D1202303E0BB6E53
:10561800B3FA83F3DBB203F01F03012202FA03F3A8
:105628007A681268D1697A6812680B43D3617B681B
:1056380018683B6859683B681B681A46FFF70DF9FC
:105648007B681B681846FFF73DFAB8677B681B68DC
:105658001846FFF74AFA7867BB6F002B40F0B8800E
:105668007B6F002B40F0B4807B6818683B68196832
:105678003B689B681A46FFF72FF9304B1B6803F00D
:105688007043B3F1805F0BD13B685A697B681B6834
:10569800DB689B0803F007035B0002FA03F31DE0D5
:1056A8007B681B68DB6803F01003002B0BD13B6899
:1056B8005A697B681B68DB689B0803F007035B007B
:1056C80002FA03F30AE03B685A697B681B68DB68E7
:1056D8009B0803F004035B0002FA03F33B673B6893
:1056E8001B69042B2CD07B6818683B6819693B68D8
:1056F8001A683B6FFFF74AF87B6818683B681969B6
:105708003B685B7E012B02D14FF0004300E0002391
:105718001A46FFF774F87B6818683B6819693B6894
:105728001B7E012B02D14FF4006300E000231A46D0
:10573800FFF74CF84CE000BF0000FF470010005C8A
:105748007B681B681B6E03F0F8423B681B689B066E
:105758009A4207D17B681B681A6E7B681B6822F027
:1057680000421A667B681B685B6E03F0F8423B6870
:105778001B689B069A4207D17B681B685A6E7B6838
:105788001B6822F000425A667B681B689B6E03F018
:10579800F8423B681B689B069A4207D17B681B68E6
:1057A8009A6E7B681B6822F000429A667B681B68C9
:1057B800DB6E03F0F8423B681B689B069A4207D1F0
:1057C8007B681B68DA6E7B681B6822F00042DA6629
:1057D8007B681B681846FFF74DF90346002B40F01D
:1057E80011827B6818683B6819683B68DB681A4651
:1057F800FFF79EF83B68DB68A14A934240F02E8190
:105808007B6818683B681B68C3F31303002B0BD134
:105818003B681B689B0E013303F01F03092B94BFE1
:1058280001230023DBB219E03B681B68BB65BB6D35
:1058380093FAA3F37B657B6DFB65FB6D002B01D1B0
:10584800202303E0FB6DB3FA83F3DBB2013303F0EB
:105858001F03092B94BF01230023DBB2002B79D04F
:105868003B681B68C3F31303002B07D13B681B6815
:105878009B0E01339B0603F0F84215E03B681B685A
:10588800FB64FB6C93FAA3F3BB64BB6C3B653B6D99
:10589800002B01D1202303E03B6DB3FA83F3DBB285
:1058A80001339B0603F0F8423B681B68C3F31303FC
:1058B800002B09D13B681B689B0E013303F01F03C3
:1058C800012101FA03F317E03B681B683B643B6C5A
:1058D80093FAA3F3FB63FB6B7B647B6C002B01D116
:1058E800202303E07B6CB3FA83F3DBB2013303F0CC
:1058F8001F03012101FA03F342EA03013B681B6815
:10590800C3F31303002B0AD13B681B689B0E0133BA
:1059180003F01F0213465B0013441B0518E03B68A5
:105928001B687B637B6B93FAA3F33B633B6BBB63A3
:10593800BB6B002B01D1202303E0BB6BB3FA83F3CD
:10594800DBB2013303F01F0213465B0013441B054F
:105958000B437EE03B681B68C3F31303002B07D19E
:105968003B681B689B0E01339B0603F0F84215E069
:105978003B681B68BB62BB6A93FAA3F37B627B6AD2
:10598800FB62FB6A002B01D1202303E0FB6AB3FA18
:1059980083F3DBB201339B0603F0F8423B681B68D4
:1059A800C3F31303002B09D13B681B689B0E01331B
:1059B80003F01F03012101FA03F317E03B681B689A
:1059C800FB61FB6993FAA3F3BB61BB693B623B6A6A
:1059D800002B01D1202303E03B6AB3FA83F3DBB247
:1059E800013303F01F03012101FA03F342EA030123
:1059F8003B681B68C3F31303002B0DD13B681B687E
:105A08009B0E013303F01F0213465B0013441E3B39
:105A18001B0543F000731BE03B681B683B613B6957
:105A280093FAA3F3FB60FB687B617B69002B01D1D0
:105A3800202303E07B69B3FA83F3DBB2013303F07D
:105A48001F0213465B0013441E3B1B0543F0007303
:105A58000B433A6892681946FEF73EFF3B681B689D
:105A6800002B80F2CF807B681B68064A934204D0E3
:105A78007B681B68044A93420AD1044B09E000BFC3
:105A88000000FF470020024000210240002302409E
:105A9800614B1846FEF76CFEF8667B681B685F4A28
:105AA800934204D07B681B685D4A93420ED15B48E1
:105AB800FEF7E0FF04465A48FEF7DCFF034623439F
:105AC800002B0CBF01230023DBB208E05548FEF78A
