:020000040800F2
:10000000000002200DF10008A9260008B126000812
:10001000B9260008C1260008C92600080000000013
:10002000000000000000000000000000D1260008D1
:10003000DF26000800000000ED260008FB2600086F
:100040005DF100085DF100085DF100085DF1000858
:100050005DF100085DF100085DF100085DF1000848
:100060005DF100085DF100085DF100080927000856
:100070005DF100085DF100085DF100085DF1000828
:100080005DF100085DF100081D2700085DF1000822
:100090005DF100085DF100085DF100085DF1000808
:1000A0005DF100085DF100085DF100085DF10008F8
:1000B0005DF100085DF100085DF100085DF10008E8
:1000C0005DF100085DF100085DF100085DF10008D8
:1000D0005DF100085DF100085DF1000831270008BE
:1000E0005DF100085DF10008000000005DF100080E
:1000F0005DF100085DF100085DF100085DF10008A8
:100100005DF100085DF100085DF100085DF1000897
:100110005DF100085DF100085DF100084527000869
:100120005DF100085DF100085DF100085DF1000877
:100130005DF100085DF100085DF100085DF1000867
:1001400000000000000000000000000000000000AF
:100150005DF100085DF100085DF100085DF1000847
:100160005DF100085DF100085DF100085DF1000837
:100170005DF100085DF100085DF10008000000007D
:100180005DF100085DF100085DF100085DF1000817
:100190005DF100085DF100085DF100085DF1000807
:1001A0005DF100085DF100085DF100085DF10008F7
:1001B0005DF100085DF100085DF100085DF10008E7
:1001C0005DF100085DF100085DF100085DF10008D7
:1001D0005DF100085DF100085DF100085DF10008C7
:1001E0005DF100085DF100085DF100085DF10008B7
:1001F0005DF100085DF100085DF100085DF10008A7
:100200005DF100085DF100085DF100085DF1000896
:100210005DF100085DF100085DF100085DF1000886
:100220005DF100085DF100085DF1000800000000CC
:100230005DF100085DF10008000000005DF10008BC
:100240005DF100085DF100085DF100085DF1000856
:100250005DF100085DF100085DF100085DF1000846
:100260005DF100085DF100085DF100085DF1000836
:100270005DF100085DF100085DF10008000000007C
:100280005DF100085DF100085DF10008000000006C
:08029000000000005DF1000810
:1002980010B5054C237833B9044B13B10448AFF3B8
:1002A80000800123237010BD080200200000000018
:1002B80060F7000808B5034B1BB103490348AFF3C7
:1002C800008008BD000000000C02002060F7000854
:1002D80053B94AB9002908BF00281CBF4FF0FF31A5
:1002E8004FF0FF3000F06AB9ADF1080C6DE904CEAB
:1002F80000F006F8DDF804E0DDE9022304B07047F9
:100308002DE9F047089D0C46002B4ED194468C45AC
:100318008646B2FA82F262D94AB1C2F1200391400C
:1003280020FA03F30CFA02FC194300FA02FE4FEA22
:100338001C471FFA8CF6B1FBF7F44FEA1E4307FB84
:10034800141143EA014304FB06F199420AD91CEB54
:10035800030304F1FF3080F01281994240F20F81CB
:10036800023C6344591A1FFA8EF3B1FBF7F007FBFE
:10037800101143EA014300FB06F69E420AD91CEB22
:10038800030300F1FF3180F0FC809E4240F2F980C7
:10039800634402389B1B40EA044000211DB1D3404E
:1003A8000022C5E90032BDE8F0878B4205D90DB1BE
:1003B800C5E9000100210846F5E7B3FA83F10029F1
:1003C80046D1A34202D39042C0F0F080861A64EB73
:1003D80003030120002DE6D0C5E90063E3E7002A06
:1003E80040F09080A1EB0C044FEA1C481FFA8CF7F0
:1003F8000121B4FBF8F64FEA1E4308FB164443EA12
:10040800044307FB06F0984208D91CEB030306F1E6
:10041800FF3402D2984200F2CD8026461C1A1FFAF9
:100428008EF3B4FBF8F008FB104443EA044300FBE6
:1004380007F79F4208D91CEB030300F1FF3402D2EF
:100448009F4200F2B0802046DB1B40EA0640A5E749
:10045800C1F120068B4022FA06F71F4320FA06FC5A
:1004680004FA01F343EA0C03F44000FA01F8380CEB
:100478004FEA1349B4FBF0FE1FFA87FC00FB1E4449
:1004880049EA04440EFB0CF9A14502FA01F20AD923
:100498003C190EF1FF3A80F08480A14540F281803A
:1004A800AEF1020E3C44A4EB09041FFA83F9B4FB35
:1004B800F0F300FB134449EA044403FB0CFCA44595
:1004C80007D93C1903F1FF3067D2A44565D9023B2F
:1004D8003C4443EA0E40A0FB0293A4EB0C049C426C
:1004E800CE469C4651D34ED055B1B8EB0E0364EBC3
:1004F8000C0404FA06F6CB401E43CC40C5E9006460
:10050800002150E7C2F1200320FA03F10CFA02FCA3
:1005180024FA03F394400C434FEA1C4800FA02FE05
:100528001FFA8CF7B3FBF8F008FB1031230C43EAF1
:10053800014300FB07F1994208D91CEB030300F1C2
:10054800FF362CD299422AD9023863445B1AA4B2E6
:10055800B3FBF8F108FB113344EA034401FB07F34A
:10056800A34208D91CEB040401F1FF3613D2A342BD
:1005780011D902396444E41A41EA004139E70446D2
:10058800F0E6084606E7C845AED2B9EB020E63EBC3
:10059800070C0138A8E73146EDE7034699E73046EE
:1005A800D4E7D6467FE7634402384DE7064623463C
:1005B80008460FE7023E634430E700BF704700BFBC
:1005C80002440346934200D1704703F8011BF9E740
:1005D80070B50D4D0D4C641BA4100026A64209D120
:1005E8000B4D0C4C0FF0B8F8641BA4100026A64263
:1005F80005D170BD55F8043B98470136EEE755F82C
:10060800043B98470136F2E7781001087810010892
:10061800781001087C10010880B500AF0821024855
:100628000BF0C0F800BF80BDD405002080B500AF36
:10063800082102480BF0C4F900BF80BDD405002092
:1006480080B584B000AF87ED010A03467B80D7ED03
:10065800017A9FED1F7AF4EEC77AF1EE10FA02DD07
:100668001C4B7B600AE0D7ED017AB3EE0E7AF4EE0C
:10067800C77AF1EE10FA01D5174B7B60174B1B8830
:1006880007EE903AF8EEE76A97ED017AC6EE877AB8
:10069800FCEEE77A17EE903A013BFB60104B1B68C3
:1006A800FA68DA620E4AFB68D3600D4B1B68FA6879
:1006B8005208DA6308210A480BF074F87B88184658
:1006C8000AF0A4FDFFF7B2FF00BF1037BD4680BD9A
:1006D80000401C4600401C460000F041500000202D
:1006E800D405002080B500AF64209FED030AFFF712
:1006F800A7FF00BF80BD00BF00803B4580B500AFAD
:100708003C2104480BF098FA3C2103480BF094FA7A
:1007180000BF80BD880500202006002080B400AFFF
:10072800034B1B685B6A1846BD465DF8047B70473F
:100738008805002080B400AF034B1B685B6A18462D
:10074800BD465DF8047B70472006002080B582B066
:1007580000AF0346FB71104B1B88FA7919460F4806
:1007680007F084FC0C4B5B88FA7919460B4807F0B4
:100778007DFC094B9B88FA791946084807F076FCF6
:10078800054BDB88FA791946044807F06FFC00BF6F
:100798000837BD4680BD00BF54000020000802583D
:1007A80080B500AF40210C4807F079FC80210A4849
:1007B80007F075FC4FF48071074807F070FC4FF4A0
:1007C8000071054807F06BFC4FF40041034807F03F
:1007D80066FC00BF80BD00BF00080258000C02582C
:1007E80080B500AF23480CF04DFD4FF47A73032217
:1007F800214920480CF0A4FB20494FF000024FF09B
:100808000003C1E900231E494FF000024FF0000326
:10081800C1E900231B494FF000024FF00003C1E972
:10082800002305200AF0F2FC4FF47A7303221249E0
:1008380010480CF085FB11494FF000024FF00003FF
:10084800C1E900230E494FF000024FF00003C1E94F
:1008580000230C494FF000024FF00003C1E90023C8
:1008680005200AF0D3FC2122074902480CF0BEFCFF
:1008780000BF80BDB8060020600000209003002063
:1008880088030020800300205C03002080B500AFAF
:10089800FFF7A6FF2122034903480CF0A7FC00BF7D
:1008A80080BD00BF5C030020B806002080B500AF03
:1008B80006E04FF47A73012209490A480CF0CEFB8E
:1008C800074B1B78DBB2552BF3D1054B64221A700A
:1008D8002122054903480CF089FC00BF80BD00BFF8
:1008E80063000020B80600205C0300200000000020
:1008F80080B582B000AF78607B681B683C4A934241
:100908005CD13C4B1B78DBB2532B02D0FFF7CEFFF8
:1009180054E0394BD3E900233849C1E90023354B6A
:100928009B79DBB21B02334A5279D2B2134307EEEA
:10093800903AB8EEE76B9FED245B86EE057B9FED62
:10094800246B27EE067B2C4B83ED007B2A4B93ED23
:10095800006B2A4B93ED007B36EE477B9FED1E6BB9
:10096800B4EEC67BF1EE10FA0ADD254B93ED007B61
:100978009FED1B6B37EE067B214B83ED007B18E068
:100988001D4B93ED006B1D4B93ED007B36EE477BC3
:100998009FED156BB4EEC67BF1EE10FA09D5184B36
:1009A80093ED007B9FED0E6B37EE467B144B83ED8A
:1009B800007B21220F4913480CF018FC0837BD466C
:1009C80080BD00BFAFF30080000000000000E040E1
:1009D80000000000008066400000000000406F40FA
:1009E80000000000008076400000000000406FC05A
:1009F800004800405C03002080030020880300209A
:100A080090030020B806002080B400AF064B93ED99
:100A1800006B064B93ED007B36EE477BB0EE470B41
:100A2800BD465DF8047B70478003002090030020DA
:100A380080B582B000AF78607B681A68084B1B6885
:100A48009A4203D19FED040B00F010F900BF08375C
:100A5800BD4680BDAFF3008000000000000000002C
:100A68006C06002080B400AF00BFBD465DF8047B73
:100A78007047000080B500AF07480AF0C1FD0021AB
:100A880005480AF08FFE042103480AF08BFEFFF7A1
:100A9800E9FF00BF80BD00BF3C05002080B582B0E3
:100AA80000AF78607B68642B02DD64237B6006E01E
:100AB8007B6813F1640F02DA6FF063037B607B6875
:100AC800002B18DD274B1B6801222021184607F050
:100AD800CDFA244B1B6800224021184607F0C6FABD
:100AE8007B689BB21A46920013445B009AB21E4B75
:100AF8001B685A6331E07B68002B19DA194B1B68B5
:100B080000222021184607F0B1FA164B1B68012273
:100B18004021184607F0AAFA7B685B429BB21A4646
:100B2800920013445B009AB20F4B1B685A6314E09F
:100B38007B68002B11D10B4B1B6800222021184623
:100B480007F094FA074B1B6800224021184607F06B
:100B58008DFA054B1B6800225A6300BF0837BD4653
:100B680080BD00BF640000203C05002080B582B035
:100B780000AF78607B68642B02DD64237B6006E04D
:100B88007B6813F1640F02DA6FF063037B607B68A4
:100B9800002B18DD274B1B6800228021184607F020
:100BA80065FA244B1B6801224021184607F05EFABB
:100BB8007B689BB21A46920013445B009AB21E4BA4
:100BC8001B689A6331E07B68002B19DA194B1B68A4
:100BD80001228021184607F049FA164B1B680022AB
:100BE8004021184607F042FA7B685B429BB21A46DE
:100BF800920013445B009AB20F4B1B689A6314E08F
:100C08007B68002B11D10B4B1B68002280211846F2
:100C180007F02CFA074B1B6800224021184607F002
:100C280025FA054B1B6800229A6300BF0837BD46AA
:100C380080BD00BF680000203C05002080B582B060
:100C480000AF786039607868FFF728FF3868FFF7E9
:100C58008DFF00BF0837BD4680BD80B500AF0021BD
:100C68000020FFF7EBFF00BF80BD000080B582B019
:100C780000AF87ED000BFFF7C7FEB0EE407B124BCD
:100C880083ED007B1049D7E90023C1E904230E480E
:100C980000F03CF90C4B93ED027BFDEEC77B17EEA1
:100CA800903A2833084A92ED027BFDEEC77B17EE97
:100CB800902AC2F1280211461846FFF7BFFF00BF6D
:100CC8000837BD4680BD00BF70010020000000004D
:100CD80080B584B000AF40F2DC53FB80FFF794FE90
:100CE800B0EE407B9FED3E6B37EE067B3E4B83EDCF
:100CF800047B0AF07FFA38600AF07CFAF860FB6837
:100D0800BB605AE0FFF780FEB0EE407B364B83EDC8
:100D1800007B354800F0FAF8334B93ED027BFDEE8B
:100D2800C77B17EE900AFFF7B9FE2F4B93ED027BB6
:100D3800FDEEC77B17EE903A5B421846FFF716FFA9
:100D4800294B93ED006B284B93ED047B36EE477BE4
:100D5800B5EEC07BF1EE10FA12DD234B93ED006B7C
:100D6800214B93ED047B36EE477BB0EE086BB4EE77
:100D7800C67BF1EE10FA4CBF01230023DBB211E071
:100D8800194B93ED006B184B93ED047B36EE477BC4
:100D9800B8EE086BB4EEC67BF1EE10FACCBF0123B7
:100DA8000023DBB2002B03D00AF024FAF86004E039
:100DB8000AF020FAF860FB68BB60FA68BB68D31ACF
:100DC800C72B07D80AF016FA02463B68D21AFB88E6
:100DD8009A4297D3FFF741FF00BF1037BD4680BD49
:100DE8000000000000805640700000200000000055
:100DF80080B584B000AF40F2DC53FB80FFF704FEFF
:100E0800B0EE407B9FED3E6B37EE467B3E4B83ED6D
:100E1800047B0AF0EFF938600AF0ECF9F860FB6837
:100E2800BB605AE0FFF7F0FDB0EE407B364B83ED38
:100E3800007B354800F06AF8334B93ED027BFDEEFA
:100E4800C77B17EE900AFFF729FE2F4B93ED027B25
:100E5800FDEEC77B17EE903A5B421846FFF786FE19
:100E6800294B93ED006B284B93ED047B36EE477BC3
:100E7800B5EEC07BF1EE10FA12DD234B93ED006B5B
:100E8800214B93ED047B36EE477BB0EE086BB4EE56
:100E9800C67BF1EE10FA4CBF01230023DBB211E050
:100EA800194B93ED006B184B93ED047B36EE477BA3
:100EB800B8EE086BB4EEC67BF1EE10FACCBF012396
:100EC8000023DBB2002B03D00AF094F9F86004E0A9
:100ED8000AF090F9F860FB68BB60FA68BB68D31A3F
:100EE800C72B07D80AF086F902463B68D21AFB8856
:100EF8009A4297D3FFF7B1FE00BF1037BD4680BDB9
:100F08000000000000805640F000002080B58CB042
:100F180000AF78600AF06EF9F8627B68DB6DFA6AF8
:100F2800D31ABB627B689B6DBA6A9A42C0F0ED80A7
:100F38007B6893ED046B7B6893ED007B36EE477B13
:100F480087ED087B7B6893ED067B97ED086B26EEB3
:100F5800077B87ED067B7B6893ED186BBB6A07EE12
:100F6800903AB8EE675B97ED087B25EE077B36EE87
:100F7800077B7B6883ED187B7B6893ED186B7B6838
:100F880093ED087BB6EE005B27EE055BBB6A07EEC8
:100F9800903AB8EE677B25EE075B7B6893ED1A4BBA
:100FA80097ED087B34EE077B25EE077B36EE077B53
:100FB8007B6883ED187B7B6893ED186B7B6893EDFA
:100FC800147BB4EEC76BF1EE10FA06DD7B68D3E94B
:100FD80014237968C1E9182310E07B6893ED186B36
:100FE8007B6893ED127BB4EEC76BF1EE10FA05D572
:100FF8007B68D3E912237968C1E918237B6893EDEC
:10100800086B7B6893ED187B26EE077B87ED047BE6
:101018007B6893ED0A7B37EE076B7B6893ED005B8B
:101028007B6893ED1E7B35EE477B26EE076B7B686E
:1010380093ED0C7B37EE075BBB6A07EE903AB8EE90
:10104800677B35EE475B7B6893ED1C7B25EE077B62
:1010580036EE077BB1EE475B7B6893ED0C7B37EE92
:10106800076BBB6A07EE903AB8EE677B36EE076B04
:1010780085EE067B7B6883ED1C7B7B6893ED0A6BB2
:101088007B6893ED1C7B26EE077B87ED027B97ED53
:10109800066B97ED047B36EE076B97ED027B36EE19
:1010A800077B7B6883ED027B7B6893ED026B7B6833
:1010B80093ED107BB4EEC76BF1EE10FA06DD7B689A
:1010C800D3E910237968C1E9022310E07B6893ED26
:1010D800026B7B6893ED0E7BB4EEC76BF1EE10FAF2
:1010E80005D57B68D3E90E237968C1E902237B68BB
:1010F800D3E900237968C1E91E237968D7E9082371
:10110800C1E91A237B68FA6ADA657B68D3E90223A6
:1011180043EC172BB0EE470B3037BD4680BD0000BF
:1011280080B582B000AF0346FB710A4B1A68FB79A1
:10113800094931F813301946104606F07FFF034677
:10114800002B0CBF01230023DBB218460837BD462D
:1011580080BD00BFF0010020F401002080B500AF81
:10116800142200210648FFF72BFA14220021054813
:10117800FFF726FA044801F00BFF00BF80BD00BF4F
:1011880098030020AC030020C403002000000000E6
:1011980080B52DED028B82B000AF78607B681B684C
:1011A800774A934240F0C180786802F02FF80246EF
:1011B800744B1B681146744A42F82310714B1B6824
:1011C800002B7CDD6F4B1B686F4A52F8233007EE0B
:1011D800903AB8EEE77B9FED586B27EE066B9FEDD4
:1011E800585B86EE057B9FED586B27EE067B9FEDDF
:1011F800586B37EE068B634B1B68634A52F82330F3
:1012080007EE903AB8EEE77B9FED4B6B27EE067B37
:101218009FED4B5B87EE056BB0EE001BB0EE460B07
:101228000DF0D6FFB0EE407B9FED4B6B27EE067BB3
:1012380038EE078B534B1B68534A52F8233007EE9E
:10124800903AB8EEE77B9FED3C6B27EE067B9FED6F
:101258003C5B87EE056BB0EE081BB0EE460B0DF05D
:10126800B7FFB0EE407B9FED3E6B27EE067B38EE76
:10127800078B444B1B68444A52F8233007EE903AD8
:10128800B8EEE77B9FED2C6B27EE067B9FED2C5B82
:1012980087EE056BB1EE001BB0EE460B0DF098FF24
:1012A800B0EE407B9FED306B27EE067B38EE077B78
:1012B800B2EE046B27EE067BFDEEC77B22E0314BD6
:1012C8001B68314A52F8233007EE903AB8EEE77BB4
:1012D8009FED196B27EE067B9FED195B87EE056B7B
:1012E8009FED231BB0EE460B0DF072FFB0EE407B76
:1012F8009FED216B27EE067BB2EE046B27EE067B93
:10130800FDEEC77B1F4B1B68204A17EE901A42F868
:1013180023101C4B1B6801331A4A1360194B1B68B6
:10132800052B02D1174B00221A6000BF0837BD46B3
:10133800BDEC028B80BD00BF6666666666660A40C5
:10134800000000000000F04000000000006051C0F4
:101358003333333333F340406666666666264F4060
:1013680066666666666639C0A4703D0AD7A30E40F5
:1013780021B0726891EDF0BF295C8FC2F528284032
:1013880000200240C003002098030020AC03002086
:1013980080B500AF00F012FE09F0A6FE00F05AF882
:1013A80000F042FD00F020FD00F008FA00F000F91E
:1013B80000F0BCFA00F072FB00F03EFC00F0C8FC44
:1013C80000F0BCF900F0BEFB00F08CFCFFF708FA57
:1013D800FFF75CFAFFF792F9FFF7C0FEFFF74AFB49
:1013E800FFF71AF90120FFF7B1F90020FFF798FE7F
:1013F8000346002B04D0FFF775F9FFF769FC0BE0F3
:101408000120FFF78DFE0346002B05D0FFF76AF990
:10141800FFF7EEFCFFF721FCFFF7F6FAB0EE407B92
:10142800094B83ED007BFFF7BBF9FFF777F903461C
:10143800064A1360FFF77EF90346054A1360052044
:1014480009F0E4FED1E700BFC8070020D407002058
:10145800D007002080B59EB000AF07F12C034C22C6
:1014680000211846FFF7ACF807F10C0320220021F1
:101478001846FFF7A5F8022009F074FC0023BB60AA
:10148800484BDB6A474A23F00103D362454BDB6ACA
:1014980003F00103BB60444B9B69434A43F4404358
:1014A8009361414B9B6903F44043BB60BB6800BF39
:1014B8003D4B9B6903F40053B3F5005FF8D13B4BF8
:1014C800D3F8F430394A43F00203C2F8F430374B0A
:1014D800D3F8F43003F002037B607B6800233B60A1
:1014E800314B9B69304A43F4404393612E4B9B69CF
:1014F80003F440433B602B4BDB6A2A4A43F0010369
:10150800D362284BDB6A03F001033B603B6800BFF2
:10151800254B9B6903F40053B3F5005FF8D1012311
:10152800FB624FF480333B6302233B6502237B65F8
:101538000523BB65C023FB6502233B6602237B664C
:101548000223BB660823FB6600233B6700237B67F7
:1015580007F12C03184602F0DDFE0346002B01D0EC
:1015680000F058FD3F23FB6003233B6100237B61B0
:101578000823BB614023FB6140233B624FF4806337
:101588007B624023BB6207F10C030421184603F079
:101598001BFB0346002B01D000F03CFD00BF783751
:1015A800BD4680BD00040058004802580044025857
:1015B80080B58AB000AF07F11C0300221A605A6098
:1015C8009A603B4600221A605A609A60DA601A6193
:1015D8005A619A61524B534A1A60514B0122DA60A0
:1015E8004F4B04221A614E4B00221A754C4B0122B4
:1015F8005A754B4B05229A61494B00221A77484B82
:1016080000225A62464B00229A62454B0022DA6257
:10161800434B4FF480521A63414B00225A63404BAC
:10162800002283F838203E4B0122DA633C4801F05F
:101638000DFB0346002B01D000F0ECFC384B4FF4B7
:10164800E0125A60364B00229A60354801F0FEFAE3
:101658000346002B01D000F0DDFC0023FB6107F1FD
:101668001C0319462E4802F077FD0346002B01D0D3
:1016780000F0D0FC2C4B3B6006237B600523BB604D
:1016880040F2FF73FB6004233B6100237B6100236E
:101698007B763B461946224802F014F80346002B95
:1016A80001D000F0B7FC214B3B600C237B603B462C
:1016B80019461B4802F006F80346002B01D000F03B
:1016C800A9FC1B4B3B6012237B603B461946144820
:1016D80001F0F8FF0346002B01D000F09BFC154BEE
:1016E8003B6018237B603B4619460D4801F0EAFF32
:1016F8000346002B01D000F08DFC0F4B3B604FF4EC
:1017080080737B603B461946054801F0DBFF0346C2
:10171800002B01D000F07EFC00BF2837BD4680BDFD
:10172800C4030020002002400800900C8000501DD7
:101738001000C010000180212000F01480B500AF17
:101748001B4B1C4A1A601A4B1B4A5A60184B002242
:101758009A60174B0122DA60154B00221A61144B6C
:1017680000225A61124B00229A61114B0022DA6161
:101778000F4B00221A620E4809F078FD0346002B31
:1017880001D000F047FC0021094809F00BFE034690
:10179800002B01D000F03EFC0021054809F04DFE69
:1017A8000346002B01D000F035FC00BF80BD00BF10
:1017B8002804002000580040B175703080B500AF93
:1017C800424B434A1A60414809F083FE0346002B06
:1017D80001D000F01FFC3F4B3F4A1A603D4809F01A
:1017E80078FE0346002B01D000F014FC3B4B3C4A2A
:1017F8001A603A4809F06DFE0346002B01D000F04C
:1018080009FC384B384A1A60364809F062FE03462C
:10181800002B01D000F0FEFB344B354A1A603348E8
:1018280009F057FE0346002B01D000F0F3FB314BC3
:10183800314A1A602F4809F04CFE0346002B01D0AC
:1018480000F0E8FB2D4B2E4A1A602C4809F041FEA7
:101858000346002B01D000F0DDFB2A4B2A4A1A6010
:10186800284809F036FE0346002B01D000F0D2FBD1
:10187800264B274A1A60254809F02BFE0346002B01
:1018880001D000F0C7FB234B234A1A60214809F016
:1018980020FE0346002B01D000F0BCFB1F4B204A62
:1018A8001A601E4809F015FE0346002B01D000F00F
:1018B800B1FB1C4B1C4A1A601A4809F00AFE034681
:1018C800002B01D000F0A6FB00BF80BD7C040020E7
:1018D800209000528C040020409000529C0400206C
:1018E80060900052AC04002080900052BC0400209C
:1018F800A0900052CC04002020300248DC040020D4
:1019080040300248EC04002060300248FC0400200B
:10191800803002480C050020A03002481C05002039
:10192800207002582C0500204070025880B59AB0EB
:1019380000AF07F1580300221A605A609A60DA6013
:1019480007F14C0300221A605A609A6007F13003CD
:1019580000221A605A609A60DA601A615A619A61C4
:101968003B1D2C2200211846FEF72AFE494B4A4A05
:101978001A60484B18225A60464B00229A60454B21
:1019880040F2E732DA60434B00221A61414B0022F1
:101998005A61404B80229A613E4809F0DAFD0346BD
:1019A800002B01D000F036FB4FF48053BB6507F1E4
:1019B8005803194637480AF0E9FB0346002B01D0C3
:1019C80000F028FB334809F08BFE0346002B01D0BA
:1019D80000F020FB0023FB6400233B6500237B65AC
:1019E80007F14C0319462B480BF030F90346002B3E
:1019F80001D000F00FFB60233B6300237B630023CF
:101A0800BB630023FB6300233B6400237B64002348
:101A1800BB6407F13003002219461E480AF0A2FAF7
:101A28000346002B01D000F0F5FA07F13003042239
:101A3800194618480AF096FA0346002B01D000F020
:101A4800E9FA00237B600023BB600023FB600023CE
:101A58003B6100237B614FF40053BB610023FB61B2
:101A680000233B624FF000737B620023BB620023BC
:101A7800FB623B1D194607480BF076F90346002B1D
:101A880001D000F0C7FA034800F000FD00BF683736
:101A9800BD4680BD3C0500200000014080B58CB0EB
:101AA80000AF07F10C03242200211846FEF788FD39
:101AB8003B4600221A605A609A60214B4FF08042E0
:101AC8001A601F4B00225A601D4B00229A601C4B63
:101AD8004FF0FF32DA601A4B00221A61184B0022CD
:101AE8009A610123FB6000233B6101237B61002392
:101AF800BB610023FB6100233B6201237B6200235F
:101B0800BB620023FB6207F10C0319460C4809F07D
:101B1800EDFF0346002B01D000F07CFA00233B6068
:101B28000023BB603B46194605480BF08FF8034677
:101B3800002B01D000F06EFA00BF3037BD4680BDE3
:101B48008805002080B58EB000AF07F12803002279
:101B58001A605A609A60DA6007F11C0300221A6062
:101B68005A609A603B4600221A605A609A60DA60AE
:101B78001A615A619A612E4B2E4A1A602C4B4FF407
:101B8800FA625A602A4B00229A60294B4FF6FF727C
:101B9800DA60274B4FF480721A61254B80229A61D4
:101BA800234809F0D6FC0346002B01D000F032FA96
:101BB8004FF48053BB6207F1280319461C480AF00A
:101BC800E5FA0346002B01D000F024FA184809F082
:101BD80087FD0346002B01D000F01CFA0023FB61AF
:101BE80000237B6207F11C03194611480BF02EF8FD
:101BF8000346002B01D000F00DFA70233B60002350
:101C08007B600023BB6000233B613B4608221946EA
:101C180007480AF0A7F90346002B01D000F0FAF9AB
:101C2800034800F033FC00BF3837BD4680BD00BF15
:101C3800D40500200008004080B58CB000AF07F143
:101C48000C03242200211846FEF7BAFC3B4600226A
:101C58001A605A609A60214B214A1A601F4B002271
:101C68005A601E4B00229A601C4B4FF0FF32DA601C
:101C78001A4B00221A61194B00229A610123FB605A
:101C880000233B6101237B610023BB610423FB61CB
:101C980000233B6201237B620023BB620423FB62B7
:101CA80007F10C0319460D4809F020FF0346002BE5
:101CB80001D000F0AFF900233B600023BB603B4636
:101CC800194606480AF0C2FF0346002B01D000F06F
:101CD800A1F900BF3037BD4680BD00BF20060020F7
:101CE800000C004080B584B000AF3B1D00221A6094
:101CF8005A609A60144B154A1A60134B00225A60B6
:101D0800114B00229A60104B4FF6FF72DA600E4BAF
:101D180080229A610C4809F01CFC0346002B01D074
:101D280000F078F900237B600023FB603B1D194617
:101D380005480AF08BFF0346002B01D000F06AF932
:101D480000BF1037BD4680BD6C060020001400405F
:101D580080B500AF224B234A1A60214B4FF4E13281
:101D68005A601F4B00229A601D4B0022DA601C4B00
:101D780000221A611A4B0C225A61194B00229A61EF
:101D8800174B0022DA61164B00221A62144B00220C
:101D98005A62134B00229A6211480BF081F80346ED
:101DA800002B01D000F036F900210D480DF0DFF8C6
:101DB8000346002B01D000F02DF9002108480DF052
:101DC80014F90346002B01D000F024F904480DF063
:101DD80095F80346002B01D000F01CF900BF80BD28
:101DE800B80600200048004080B582B000AF0D4B17
:101DF800D3F8D8300B4A43F00103C2F8D830094B66
:101E0800D3F8D83003F001037B607B6800220121FE
:101E18000B2009F0BCF80B2009F0D3F800BF0837F5
:101E2800BD4680BD0044025880B58CB000AF07F1B4
:101E38001C0300221A605A609A60DA601A61594BD2
:101E4800D3F8E030574A43F01003C2F8E030554B5E
:101E5800D3F8E03003F01003BB61BB69514BD3F8F2
:101E6800E030504A43F08003C2F8E0304D4BD3F8DD
:101E7800E03003F080037B617B694A4BD3F8E030A4
:101E8800484A43F00103C2F8E030464BD3F8E0304B
:101E980003F001033B613B69424BD3F8E030414A10
:101EA80043F00403C2F8E0303E4BD3F8E03003F0CF
:101EB8000403FB60FB683B4BD3F8E030394A43F03E
:101EC8000203C2F8E030374BD3F8E03003F00203E6
:101ED800BB60BB68334BD3F8E030324A43F00803A9
:101EE800C2F8E0302F4BD3F8E03003F008037B60F2
:101EF8007B68002248F2C0012B4806F0B7F80022A0
:101F08004FF47071294806F0B1F800226021284882
:101F180006F0ACF87C23FB6100233B6202237B6262
:101F280007F11C031946234805F0D8FE0C23FB6172
:101F380000233B6200237B6207F11C0319461E48FD
:101F480005F0CCFE48F2C003FB6101233B6200238D
:101F58007B620023BB6207F11C031946124805F097
:101F6800BDFE4FF47073FB6101233B6200237B626B
:101F78000023BB6207F11C0319460C4805F0AEFEAE
:101F88006023FB6101233B6200237B620023BB6269
:101F980007F11C031946064805F0A0FE00BF3037BC
:101FA800BD4680BD00440258000C02580008025883
:101FB80000040258001002580000025880B584B08E
:101FC80000AF3B4600221A605A609A60DA6009F056
:101FD80013F801233B7000237B7000237B601F23D1
:101FE8003B7287237B720023BB720023FB720123A1
:101FF8003B7301237B730023BB730023FB733B46B6
:10200800184609F031F8042009F00EF800BF10371F
:10201800BD4680BD80B400AF72B600BF00BFFDE70B
:1020280080B483B000AF0A4BD3F8F430084A43F0C9
:102038000203C2F8F430064BD3F8F43003F002037D
:102048007B607B6800BF0C37BD465DF8047B70473A
:102058000044025880B5BCB000AF786007F1DC03DB
:1020680000221A605A609A60DA601A6107F1180350
:10207800C02200211846FEF7A3FA7B681B684E4A67
:10208800934240F094804FF400224FF00003C7E9D8
:10209800062302233B620C237B620223BB620223DA
:1020A800FB6202233B63C0237B632023BB630023C3
:1020B800FB630023C7F8BC3007F11803184603F088
:1020C8000FF90346002B01D0FFF7A4FF3B4BD3F8D1
:1020D800D8303A4A43F02003C2F8D830374BD3F807
:1020E800D83003F020037B617B69344BD3F8E030B0
:1020F800324A43F00103C2F8E030304BD3F8E03005
:1021080003F001033B613B692C4BD3F8E0302B4AC9
:1021180043F00403C2F8E030284BD3F8E03003F072
:102128000403FB60FB68254BD3F8E030234A43F0F7
:102138000203C2F8E030214BD3F8E03003F0020389
:10214800BB60BB68C023C7F8DC300323C7F8E030A6
:102158000023C7F8E43007F1DC031946184805F0F6
:10216800BDFD3023C7F8DC300323C7F8E030002377
:10217800C7F8E43007F1DC031946124805F0AEFD54
:102188000223C7F8DC300323C7F8E0300023C7F880
:10219800E43007F1DC0319460B4805F09FFD0022E7
:1021A8000221122008F0F3FE122008F00AFF00BFF7
:1021B800F037BD4680BD00BF0020024000440258F1
:1021C80000000258000802580004025880B5BAB04E
:1021D80000AF786007F1D40300221A605A609A6051
:1021E800DA601A6107F11003C02200211846FEF7D1
:1021F800E7F97B681B68274A934246D14FF00802EB
:102208004FF00003C7E904230023C7F8943007F10F
:102218001003184603F064F80346002B01D0FFF7BB
:10222800F9FE1D4BD3F8E0301B4A43F00203C2F815
:10223800E030194BD3F8E03003F00203FB60FB6891
:102248004FF44063C7F8D4301223C7F8D8300023BE
:10225800C7F8DC300023C7F8E0300423C7F8E430BF
:1022680007F1D40319460D4805F038FD0A4BD3F899
:10227800E830094A43F48003C2F8E830064BD3F843
:10228800E83003F48003BB60BB6800BFE837BD4695
:1022980080BD00BF005800400044025800040258A6
:1022A80080B586B000AF78607B681B68234A93428C
:1022B8000FD1234BD3F8F030214A43F00103C2F881
:1022C800F0301F4BD3F8F03003F001037B617B69DA
:1022D80030E07B681B681B4A93420FD1184BD3F838
:1022E800E830174A43F00403C2F8E830144BD3F837
:1022F800E83003F004033B613B691BE07B681B6823
:10230800114A934216D10E4BD3F8E8300C4A43F0E9
:102318002003C2F8E8300A4BD3F8E83003F0200372
:10232800FB60FB6800220021372008F030FE3720D0
:1023380008F047FE00BF1837BD4680BD00000140C9
:1023480000440258000800400014004080B58CB0DA
:1023580000AF786007F11C0300221A605A609A6087
:10236800DA601A617B681B68B3F1804F4ED1434B2A
:10237800D3F8E830414A43F00103C2F8E8303F4B54
:10238800D3F8E83003F00103BB61BB693B4BD3F8DA
:10239800E0303A4A43F00103C2F8E030374BD3F853
:1023A800E03003F001037B617B69344BD3F8E03004
:1023B800324A43F00203C2F8E030304BD3F8E03041
:1023C80003F002033B613B694FF40043FB610223C6
:1023D8003B6200237B620023BB620123FB6207F19F
:1023E8001C031946264805F079FC0823FB610223E3
:1023F8003B6200237B620023BB620123FB6207F17F
:102408001C0319461F4805F069FC32E07B681B680D
:102418001D4A93422DD1194BD3F8E830174A43F09F
:102428000803C2F8E830154BD3F8E83003F0080386
:10243800FB60FB68114BD3F8E030104A43F001030E
:10244800C2F8E0300D4BD3F8E03003F00103BB6075
:10245800BB680323FB6102233B6200237B620023EA
:10246800BB620223FB6207F11C031946044805F00E
:1024780035FC00BF3037BD4680BD00BF0044025860
:102488000000025800040258000C004080B58AB0D1
:1024980000AF786007F1140300221A605A609A604E
:1024A800DA601A617B681B68264A934220D1264B62
:1024B800D3F8E030244A43F00103C2F8E030224B5D
:1024C800D3F8E03003F001033B613B694FF44073FC
:1024D8007B610223BB610023FB6100233B62012374
:1024E8007B6207F114031946184805F0F7FB24E04E
:1024F8007B681B68164A93421FD1134BD3F8E03010
:10250800114A43F00803C2F8E0300F4BD3F8E0302B
:1025180003F00803FB60FB684FF480437B610223F0
:10252800BB610023FB6100233B6202237B6207F14E
:1025380014031946074805F0D1FB00BF2837BD46EC
:1025480080BD00BF0000014000440258000002584E
:1025580000080040000C025880B5BAB000AF78609F
:1025680007F1D40300221A605A609A60DA601A618F
:1025780007F11003C02200211846FEF721F87B68F6
:102588001B68424A93427CD14FF002024FF000038D
:10259800C7E904230023C7F8883007F11003184659
:1025A80002F09EFE0346002B01D0FFF733FD384BA7
:1025B800D3F8E830364A43F48023C2F8E830344B85
:1025C800D3F8E83003F48023FB60FB68304BD3F882
:1025D800E0302F4A43F00803C2F8E0302C4BD3F820
:1025E800E03003F00803BB60BB684FF44073C7F8E2
:1025F800D4300223C7F8D8300023C7F8DC300023D2
:10260800C7F8E0300723C7F8E43007F1D4031946C8
:10261800204805F063FB204B204A1A601E4B2D22F0
:102628005A601D4B00229A601B4B0022DA601A4B3D
:102638004FF480621A61184B00225A61164B00222F
:102648009A61154B0022DA61134B00221A62124B71
:1026580000225A62104805F03DFD0346002B01D0C8
:10266800FFF7D8FC7B680C4AC3F880200A4A7B68CD
:10267800936300220121272008F089FC272008F015
:10268800A0FC00BFE837BD4680BD00BF0048004041
:1026980000440258000C02584C0700201000024069
:1026A80080B400AF00BFFDE780B400AF00BFFDE716
:1026B80080B400AF00BFFDE780B400AF00BFFDE706
:1026C80080B400AF00BFFDE780B400AF00BFBD46D7
:1026D8005DF8047B704780B400AF00BFBD465DF86D
:1026E800047B704780B400AF00BFBD465DF8047B33
:1026F800704780B500AF08F069FD00BF80BD0000DD
:1027080080B500AF024807F00FF800BF80BD00BFDA
:102718004C07002080B500AF024800F085FD00BFDF
:1027280080BD00BFC403002080B500AF02480AF096
:102738003FFE00BF80BD00BFB806002080B500AFD7
:10274800024809F007FB00BF80BD00BF6C060020EF
:1027580080B400AF374BD3F88830364A43F470035F
:10276800C2F88830344B1B6803F00F03062B07D8D8
:10277800314B1B6823F00F032F4A43F00703136004
:102788002E4B1B682D4A43F0010313602B4B00228C
:102798001A612A4B1A682949294B13400B60264BAA
:1027A8001B6803F00803002B07D0234B1B6823F09A
:1027B8000F03214A43F007031360204B00229A615C
:1027C8001E4B0022DA611D4B00221A621B4B1D4A68
:1027D8009A621A4B1C4ADA62184B1C4A1A63174B46
:1027E80000225A63154B194A9A63144B0022DA6384
:1027F800124B164A1A64114B00225A640F4B1B687D
:102808000E4A23F4802313600C4B00221A66104BE7
:102818001A68104B1340B3F1005F02D20E4B01222D
:102828001A600E4B43F2D2021A6000BFBD465DF833
:10283800047B704700ED00E000200052004402587D
:102848007FEDF6EA000202020000FF0180020101AA
:102858000010005C0000FFFF08810051004000529A
:1028680080B483B000AF786039607B689B6823F4DC
:102878007C123B681A437B689A6000BF0C37BD46E0
:102888005DF8047B704780B483B000AF786039602E
:102898007B689B6823F0E0723B681A437B689A6008
:1028A80000BF0C37BD465DF8047B704780B483B029
:1028B80000AF78607B689B6803F0E07318460C37BC
:1028C800BD465DF8047B704780B487B000AFF86000
:1028D800B9607A603B60FB6860331A46BB689B004E
:1028E80013447B617B691B6803F000427B6803F03B
:1028F800F8413B680B431A437B691A6000BF1C37D9
:10290800BD465DF8047B704780B485B000AFF860C1
:10291800B9607A60FB681B6923F4F042BB6803F076
:102928001F03796801FA03F31A43FB681A6100BFB1
:102938001437BD465DF8047B704780B487B000AF9C
:10294800F860B9607A60FB6860331A46BB689B0020
:1029580013447B617B691B6823F000427B681A4340
:102968007B691A6000BF1C37BD465DF8047B704761
:1029780080B483B000AF78607B68DB6803F44063A1
:10298800002B01D1012300E0002318460C37BD4677
:102998005DF8047B704780B487B000AFF860B96019
:1029A8007A60FB6830331A46BB681B0A9B0003F049
:1029B8000C0313447B617B691A68BB6803F01F032F
:1029C8001F2101FA03F3DB431A407B689B0E03F0D7
:1029D8001F01BB6803F01F0301FA03F31A437B6965
:1029E8001A6000BF1C37BD465DF8047B704780B491
:1029F80083B000AF78607B68DB6C03F4C073002B96
:102A080001D1012300E0002318460C37BD465DF8CC
:102A1800047B704780B487B000AFF860B9607A6013
:102A2800FB6814331A46BB685B0E9B0003F0040373
:102A380013447B617B691A68BB681B0D03F01F0395
:102A4800072101FA03F3DB431A40BB681B0D03F0AF
:102A58001F03796801FA03F31A437B691A6000BF00
:102A68001C37BD465DF8047B7047000080B485B014
:102A780000AFF860B9607A60FB68D3F8C020BB6823
:102A8800C3F31303DB431A407B6803F018030849B8
:102A9800D940BB680B40C3F313031A43FB68C3F860
:102AA800C02000BF1437BD465DF8047B704700BFE7
:102AB800FFFF0F0080B483B000AF78607B689B682D
:102AC80003F01F0318460C37BD465DF8047B7047BA
:102AD80080B483B000AF78607B689B6803F44043A0
:102AE80018460C37BD465DF8047B704780B483B048
:102AF80000AF78607B689A68044B13407A689360EB
:102B080000BF0C37BD465DF8047B7047C0FFFF5F10
:102B180080B483B000AF78607B689B6803F0005393
:102B2800B3F1005F01D1012300E0002318460C3700
:102B3800BD465DF8047B704780B483B000AF786011
:102B48007B689A68054B134043F080527B689A6013
:102B580000BF0C37BD465DF8047B7047C0FFFF6FB0
:102B680080B483B000AF78607B689B6803F08053C3
:102B7800B3F1805F01D1012300E0002318460C3730
:102B8800BD465DF8047B704780B483B000AF7860C1
:102B98007B689A68054B134043F001027B689A6092
:102BA80000BF0C37BD465DF8047B7047C0FFFF7F50
:102BB80080B483B000AF78607B689B6803F0010342
:102BC800012B01D1012300E0002318460C37BD4634
:102BD8005DF8047B7047000080B483B000AF786074
:102BE8007B689A68054B134043F004027B689A603F
:102BF80000BF0C37BD465DF8047B7047C0FFFF7F00
:102C080080B483B000AF78607B689B6803F00403EE
:102C1800042B01D1012300E0002318460C37BD46E0
:102C28005DF8047B704780B483B000AF78607B6840
:102C38009B6803F00803082B01D1012300E000235F
:102C480018460C37BD465DF8047B704790B589B0CF
:102C580000AF78600023FB770023BB607B68002B04
:102C680001D101238FE17B68DB68002B7B685B6DFA
:102C7800002B09D17868FFF7EDF97B6800229A6587
:102C88007B68002283F850207B681B681846FFF792
:102C98003FFF0346002B04D07B681B681846FFF7EC
:102CA80025FF7B681B681846FFF75AFF0346002B71
:102CB80014D17B681B681846FFF73EFF874B1B68DB
:102CC8009B09874AA2FB03239B090133BB6002E0EF
:102CD800BB68013BBB60BB68002BF9D17B681B68F4
:102CE8001846FFF73DFF0346002B0DD17B685B6D4F
:102CF80043F010027B685A657B689B6D43F00102C4
:102D08007B689A650123FB777B681B681846FFF789
:102D180077FF78617B685B6D03F01003002B40F050
:102D280029817B69002B40F025817B685B6D23F44A
:102D3800817343F002027B685A657B681B681846FA
:102D4800FFF736FF0346002B36D17B681B68654AC0
:102D5800934204D07B681B68634A93420ED1614852
:102D6800FFF726FF04466048FFF722FF0346234388
:102D7800002B0CBF01230023DBB208E05B48FFF700
:102D880017FF0346002B0CBF01230023DBB2002BE7
:102D980012D07B681B68534A934204D07B681B6837
:102DA800514A934201D1524A00E0524A7B685B681B
:102DB80019461046FFF754FD08F04CFA034641F255
:102DC8000302934214D97B689B68102B10D17B684F
:102DD8005B7D5A037B681B6B1A437B689B681A43AD
:102DE8007B681B7F1B04134343F00C03BB610DE09E
:102DF8007B685B7D5A037B681B6B1A437B689B6807
:102E08001A437B681B7F1B041343BB617B681B7FD2
:102E1800012B06D17B681B6A013B5B04BA6913432B
:102E2800BB617B685B6A002B09D07B685B6A03F433
:102E380078727B689B6A1343BA691343BB617B68EA
:102E48001B68DA682C4B13407A681268B9690B431F
:102E5800D3607B681B681846FFF7D2FE38617B6831
:102E68001B681846FFF7DFFEF8603B69002B5FD14F
:102E7800FB68002B5CD17B681B7D9A037B68DB6A4F
:102E88001343BB617B681B68DA681C4B13407A6884
:102E98001268B9690B43D3607B6893F83830012B0B
:102EA80030D17B685B6A002B7B681B681A69144BFE
:102EB80013407A68D26B013A11047A68126C114394
:102EC8007A68526C11437A68926C0A431A437B6899
:102ED8001B6842F001021A611CE000BFF8010020E3
:102EE800632D3E0500200240002102400060025888
:102EF800002302400063025803C0F0FFFCBFFFFF3D
:102F08001EF800FC7B681B681A697B681B6822F046
:102F180001021A617B681B681B6923F070417B689A
:102F28005A6B7B681B680A431A61786800F0B0FF27
:102F38007B68DB68012B0CD17B681B681B6B23F05B
:102F48000F017B689B695A1E7B681B680A431A63DA
:102F580007E07B681B681A6B7B681B6822F00F020E
:102F68001A637B685B6D23F0030343F001027B68FF
:102F78005A6507E07B685B6D43F010027B685A6511
:102F88000123FB77FB7F18462437BD4690BD00BF61
:102F980080B586B000AF78607B681B68924A934220
:102FA80004D07B681B68914A934201D1904B00E0A2
:102FB800904B1846FFF77EFD38617B681B68184602
:102FC800FFF71EFE0346002B40F018817B6893F83C
:102FD8005030012B01D1022313E17B68012283F8D1
:102FE8005020786800F0CAFE0346FB75FB7D002B75
:102FF80040F0F5807B685A6D7F4B134043F4807234
:103008007B685A657B681B68784A934202D07B6864
:103018001B6800E0744B7A681268934202D03B69DF
:10302800002B05D17B685B6D23F480127B685A65A1
:103038007B685B6D03F48053002B06D07B689B6D27
:1030480023F006027B689A6502E07B6800229A6595
:103058007B681B681C221A607B68002283F850205A
:103068007B681B685A687B681B6822F01C025A60E0
:103078007B681B69082B08D17B681B685A687B68CA
:103088001B6842F008025A6008E07B681B685A68AF
:103098007B681B6842F004025A6000BF7B681B6BA8
:1030A800002B07D17B681B685A687B681B6842F055
:1030B80010025A607B681B684C4A934202D07B68B6
:1030C8001B6800E0484B7A681268934208D03B6955
:1030D800002B05D03B69052B02D03B69092B3AD15F
:1030E8007B681B68DB6803F00073002B2DD07B68BE
:1030F8005B6D23F4405343F480527B685A657B68C8
:103108001B69082B10D17B681B685A687B681B6891
:1031180022F020025A607B681B685A687B681B682B
:1031280042F040025A6010E07B681B685A687B686E
:103138001B6822F040025A607B681B685A687B68EB
:103148001B6842F020025A6000BF7B681B68184663
:10315800FFF742FD54E07B685B6D43F480127B68A7
:103168005A657B681B68214A934202D07B681B68BA
:1031780000E01D4BFB60FB68DB6803F00073002B6D
:103188003ED07B685B6D23F4405343F480527B68E8
:103198005A657B681B69082B10D17B681B685A68C5
:1031A8007B681B6822F020025A607B681B685A689B
:1031B8007B681B6842F040025A6021E07B681B680C
:1031C8005A687B681B6822F040025A607B681B685B
:1031D8005A687B681B6842F020025A6010E07B68DE
:1031E800002283F850200BE000200240002102401A
:1031F8000023024000630258FEF0FFFF0223FB7524
:10320800FB7D18461837BD4680BD00BF80B483B02B
:1032180000AF78607B681B681B6C18460C37BD468E
:103228005DF8047B7047000080B58AB000AF786015
:1032380000237B627B681B681B68FB617B681B68DB
:103248005B68BB617B681B68874A934204D07B68D4
:103258001B68864A934201D1854B00E0854B18468E
:10326800FFF728FC7861FB6903F00203002B17D0F5
:10327800BB6903F00203002B12D07B685B6D03F07F
:103288001003002B05D17B685B6D43F400627B68FB
:103298005A65786800F056FF7B681B6802221A603E
:1032A800FB6903F00403002B04D0BB6903F004039B
:1032B800002B0AD1FB6903F00803002B00F0838080
:1032C800BB6903F00803002B7DD07B685B6D03F0BE
:1032D8001003002B05D17B685B6D43F400727B689B
:1032E8005A657B681B681846FFF742FB0346002BAC
:1032F80062D07B681B685D4A934202D07B681B687A
:1033080000E0594B7A681268934208D07B69002B19
:1033180005D07B69052B02D07B69092B04D17B681A
:103328001B68DB683B620CE07B681B684F4A934272
:1033380002D07B681B6800E04B4B3B613B69DB6854
:103348003B623B6A03F40053002B35D17B681B6852
:103358001B6803F00803082B2ED17B681B681846EE
:10336800FFF74EFC0346002B1AD17B681B685A688E
:103378007B681B6822F00C025A607B685B6D23F443
:1033880080727B685A657B685B6D03F48053002B01
:1033980012D17B685B6D43F001027B685A650BE0D4
:1033A8007B685B6D43F010027B685A657B689B6D98
:1033B80043F001027B689A657868FDF7E9FE7B684F
:1033C8001B680C221A60FB6903F02003002B04D051
:1033D800BB6903F02003002B0BD1FB6903F040030A
:1033E800002B00F0A080BB6903F04003002B00F025
:1033F8009A807B685B6D03F01003002B05D17B6816
:103408005B6D43F400527B685A657B681B681846FD
:10341800FFF7EDFAF8607B681B681846FFF7A8FA13
:10342800B8607B681B68114A934202D07B681B68AE
:1034380000E00D4B7A681268934208D07B69002B34
:1034480005D07B69062B02D07B69072B04D17B68EA
:103458001B68DB683B6214E07B681B68034A934285
:103468000AD07B681B6808E0002002400021024067
:103478000023024000630258844B3B613B69DB68D0
:103488003B62FB68002B47D03B6A03F00073002BBC
:1034980007D0BB68002B3FD03B6A03F40053002BD6
:1034A8003AD17B681B681B6803F04003402B33D17B
:1034B8003B6A03F40013002B2ED17B681B68184667
:1034C800FFF7B1FB0346002B1AD17B681B685A68CB
:1034D8007B681B6822F060025A607B685B6D23F48E
:1034E80080527B685A657B685B6D03F48073002BA0
:1034F80012D17B685B6D43F001027B685A650BE073
:103508007B685B6D43F010027B685A657B689B6D36
:1035180043F001027B689A65786800F0EBFD7B68F0
:103528001B6860221A60FB6903F08003002B11D02E
:10353800BB6903F08003002B0CD07B685B6D43F400
:1035480080327B685A65786800F0A8F87B681B6849
:1035580080221A60FB6903F48073002B12D0BB69C8
:1035680003F48073002B0DD07B685B6D43F400324D
:103578007B685A65786800F0D1FD7B681B684FF45A
:1035880080721A60FB6903F40073002B12D0BB69C8
:1035980003F40073002B0DD07B685B6D43F480222D
:1035A8007B685A65786800F0C3FD7B681B684FF438
:1035B80000721A60FB6903F01003002B43D0BB694B
:1035C80003F01003002B3ED07B681B6B002B02D14D
:1035D80001237B6221E07B69002B15D07B681B6887
:1035E8002A4A934204D07B681B68294A934201D136
:1035F800284B00E0284B1846FFF76AFA0346002BD1
:103608000BD001237B6208E07B681B68DB6803F052
:103618000303002B01D001237B627B6A012B0ED1AF
:103628007B685B6D43F480627B685A657B689B6D41
:1036380043F002027B689A65786800F039F87B6885
:103648001B6810221A60FB6903F48063002B18D0F2
:10365800BB6903F48063002B13D07B685B6D43F474
:1036680080427B685A657B689B6D43F008027B68E3
:103678009A657B681B684FF480621A60786800F06E
:1036880043FD00BF2837BD4680BD00BF0020024073
:1036980000210240002302400063025880B483B036
:1036A80000AF786000BF0C37BD465DF8047B7047FB
:1036B80080B483B000AF786000BF0C37BD465DF8BA
:1036C800047B704790B5A1B000AF786039600023E3
:1036D80087F87F300023BB603B68DB68654A93420C
:1036E8007B6893F85030012B01D102232EE37B68CD
:1036F800012283F850207B681B681846FFF780FA80
:103708000346002B40F013833B681B68002B2CDB1F
:103718003B681B68C3F31303002B08D13B681B6885
:103728009B0E03F01F03012202FA03F316E03B6825
:103738001B687B667B6E93FAA3F33B663B6EBB66A6
:10374800BB6E002B01D1202303E0BB6EB3FA83F3D9
:10375800DBB203F01F03012202FA03F37A6812684E
:10376800D1697A6812680B43D3617B6818683B6833
:1037780059683B681B681A46FFF70DF97B681B6898
:103788001846FFF73DFAB8677B681B681846FFF7CD
:103798004AFA7867BB6F002B40F0B8807B6F002B2C
:1037A80040F0B4807B6818683B6819683B689B6880
:1037B8001A46FFF72FF9304B1B6803F07043B3F13B
:1037C800805F0BD13B685A697B681B68DB689B0884
:1037D80003F007035B0002FA03F31DE07B681B6834
:1037E800DB6803F01003002B0BD13B685A697B6838
:1037F8001B68DB689B0803F007035B0002FA03F30E
:103808000AE03B685A697B681B68DB689B0803F021
:1038180004035B0002FA03F33B673B681B69042B54
:103828002CD07B6818683B6819693B681A683B6F3D
:10383800FFF74AF87B6818683B6819693B685B7E44
:10384800012B02D14FF0004300E000231A46FFF796
:1038580074F87B6818683B6819693B681B7E012B04
:1038680002D14FF4006300E000231A46FFF74CF83A
:103878004CE000BF0000FF470010005C7B681B683D
:103888001B6E03F0F8423B681B689B069A4207D1FF
:103898007B681B681A6E7B681B6822F000421A66F8
:1038A8007B681B685B6E03F0F8423B681B689B06ED
:1038B8009A4207D17B681B685A6E7B681B6822F0A6
:1038C80000425A667B681B689B6E03F0F8423B68AF
:1038D8001B689B069A4207D17B681B689A6E7B68B7
:1038E8001B6822F000429A667B681B68DB6E03F057
:1038F800F8423B681B689B069A4207D17B681B68A5
:10390800DA6E7B681B6822F00042DA667B681B6807
:103918001846FFF74DF90346002B40F011827B68EB
:1039280018683B6819683B68DB681A46FFF79EF819
:103938003B68DB68A14A934240F02E817B68186897
:103948003B681B68C3F31303002B0BD13B681B6850
:103958009B0E013303F01F03092B94BF012300239F
:10396800DBB219E03B681B68BB65BB6D93FAA3F338
:103978007B657B6DFB65FB6D002B01D1202303E08C
:10398800FB6DB3FA83F3DBB2013303F01F03092B9A
:1039980094BF01230023DBB2002B79D03B681B685E
:1039A800C3F31303002B07D13B681B689B0E01333D
:1039B8009B0603F0F84215E03B681B68FB64FB6C50
:1039C80093FAA3F3BB64BB6C3B653B6D002B01D141
:1039D800202303E03B6DB3FA83F3DBB201339B068C
:1039E80003F0F8423B681B68C3F31303002B09D1AB
:1039F8003B681B689B0E013303F01F03012101FA8A
:103A080003F317E03B681B683B643B6C93FAA3F332
:103A1800FB63FB6B7B647B6C002B01D1202303E0F1
:103A28007B6CB3FA83F3DBB2013303F01F0301218C
:103A380001FA03F342EA03013B681B68C3F313036B
:103A4800002B0AD13B681B689B0E013303F01F0251
:103A580013465B0013441B0518E03B681B687B6337
:103A68007B6B93FAA3F33B633B6BBB63BB6B002B92
:103A780001D1202303E0BB6BB3FA83F3DBB201333C
:103A880003F01F0213465B0013441B050B437EE043
:103A98003B681B68C3F31303002B07D13B681B6803
:103AA8009B0E01339B0603F0F84215E03B681B6848
:103AB800BB62BB6A93FAA3F37B627B6AFB62FB6A15
:103AC800002B01D1202303E0FB6AB3FA83F3DBB2B6
:103AD80001339B0603F0F8423B681B68C3F31303EA
:103AE800002B09D13B681B689B0E013303F01F03B1
:103AF800012101FA03F317E03B681B68FB61FB69CE
:103B080093FAA3F3BB61BB693B623B6A002B01D10B
:103B1800202303E03B6AB3FA83F3DBB2013303F0FB
:103B28001F03012101FA03F342EA03013B681B6802
:103B3800C3F31303002B0DD13B681B689B0E0133A5
:103B480003F01F0213465B0013441E3B1B0543F0A2
:103B580000731BE03B681B683B613B6993FAA3F366
:103B6800FB60FB687B617B69002B01D1202303E0AC
:103B78007B69B3FA83F3DBB2013303F01F02134608
:103B88005B0013441E3B1B0543F000730B433A686C
:103B980092681946FEF73EFF3B681B68002B80F2CF
:103BA800CF807B681B68064A934204D07B681B68F9
:103BB800044A93420AD1044B09E000BF0000FF47C2
:103BC800002002400021024000230240614B1846B9
:103BD800FEF76CFEF8667B681B685F4A934204D068
:103BE8007B681B685D4A93420ED15B48FEF7E0FF95
:103BF80004465A48FEF7DCFF03462343002B0CBF5C
:103C080001230023DBB208E05548FEF7D1FF034645
:103C1800002B0CBF01230023DBB2002B7DD03B68B7
:103C28001B68504A934230D1FB6E03F40003002B0B
:103C38002BD17B681B684A4A934240F081807B689D
:103C48001B68454A934204D07B681B68434A9342E9
:103C580001D1454A00E03F4AFB6E43F40003194690
:103C68001046FEF710FE414B1B689B09404AA2FB19
:103C780003239B0901335B00BB6002E0BB68013B87
:103C8800BB60BB68002BF9D15AE03B681B68394A16
:103C980093421ED1FB6E03F08073002B19D17B6811
:103CA8001B682F4A93424BD17B681B682A4A934270
:103CB80004D07B681B68294A934201D12A4A00E054
:103CC800244AFB6E43F0807319461046FEF7DBFD6D
:103CD80036E03B681B68284A934231D1FB6E03F4F7
:103CE8008003002B2CD17B681B681D4A934227D187
:103CF8007B681B68184A934204D07B681B68174A84
:103D0800934201D1184A00E0124AFB6E43F4800343
:103D180019461046FEF7B7FD12E07B685B6D43F06D
:103D280020027B685A65012387F87F3008E07B68AA
:103D38005B6D43F020027B685A65012387F87F306A
:103D48007B68002283F8502097F87F301846843724
:103D5800BD4690BD00630258002002400021024089
:103D680000600258000084CB00230240F8010020C4
:103D7800632D3E05000052C70000B8CF80B584B05F
:103D880000AF78607B681B681846FEF711FF034692
:103D9800002B6ED17B681B689A68384B1340002B48
:103DA8000DD07B685B6D43F010027B685A657B68B9
:103DB8009B6D43F001027B689A6501235AE07B689A
:103DC8001B681846FEF7E0FE07F014FAF8607B68F7
:103DD8001B682B4A934204D07B681B68294A93428C
:103DE80001D1294B00E0294B1846FEF763FEB86065
:103DF8007B681B68234A934202D07B681B6800E0FB
:103E08001F4B7A68126893422CD0BB68002B30D1C4
:103E180028E07B681B681846FEF7CAFE0346002B9D
:103E280004D17B681B681846FEF7AEFE07F0E2F97E
:103E38000246FB68D31A022B14D97B681B681B68DF
:103E480003F00103012B0DD07B685B6D43F010027A
:103E58007B685A657B689B6D43F001027B689A65B5
:103E6800012307E07B681B681B6803F00103012B33
:103E7800CFD1002318461037BD4680BD3F000080D3
:103E88000020024000210240002302400063025843
:103E980080B584B000AF78607B681B687A4A93422B
:103EA80004D07B681B68794A934209D1784B9B6898
:103EB80003F44033002B14BF01230023DBB208E0D6
:103EC800744B9B6803F44033002B14BF0123002379
:103ED800DBB2002B1CD001F0A7F9F8607B685B68A7
:103EE800B3F5403F10D0B3F5403F73D8B3F5803FEA
:103EF80002D0B3F5003F6DD17B685B681B0CFA6894
:103F0800B2FBF3F3FB6068E0FB689B08FB6064E0CE
:103F18004FF400204FF0000102F0ECFBF8607B68E2
:103F28005B68B3F5301F51D0B3F5301F54D8B3F5E3
:103F3800201F47D0B3F5201F4ED8B3F5101F3DD032
:103F4800B3F5101F48D8B3F5001F33D0B3F5001FE1
:103F580042D8B3F5E01F29D0B3F5E01F3CD8B3F53C
:103F6800C01F1AD0B3F5C01F36D8B3F5A01F14D0A0
:103F7800B3F5A01F30D8B3F5801F0ED0B3F5801F5E
:103F88002AD8B3F5402F08D0B3F5402F24D8B3F57D
:103F9800802F02D0B3F5002F1ED17B685B689B0C85
:103FA8005B00FA68B2FBF3F3FB6016E0FB681B09E1
:103FB800FB6012E0FB685B09FB600EE0FB689B0995
:103FC800FB600AE0FB68DB09FB6006E0FB681B0A94
:103FD800FB6002E000BF00E000BF07F03BF90346CA
:103FE80041F20302934215D8FB682B4A934208D941
:103FF8007B681B689A687B681B6842F480729A60C9
:104008003EE07B681B689A687B681B6822F48072B4
:104018009A6035E0FB685B08FB60FB681F4A9342C7
:1040280008D87B681B689A687B681B6822F4407212
:104038009A6025E0FB681A4A93420AD87B681B6895
:104048009B6823F440727B681B6842F480729A6014
:1040580016E0FB68134A93420AD87B681B689B6882
:1040680023F440727B681B6842F400729A6007E090
:104078007B681B689A687B681B6842F440729A6088
:1040880000BF1037BD4680BD00200240002102401D
:104098000023024000630258002D3101105E5F00CA
:1040A80020BCBE0040787D0180B483B000AF78604A
:1040B8007B689B6803F00103012B01D1012300E019
:1040C800002318460C37BD465DF8047B704780B462
:1040D80083B000AF78607B689B6803F00403042B0F
:1040E80001D1012300E0002318460C37BD465DF8D6
:1040F800047B704780B483B000AF786000BF0C3792
:10410800BD465DF8047B704780B483B000AF78602B
:1041180000BF0C37BD465DF8047B704780B483B0A0
:1041280000AF786000BF0C37BD465DF8047B704770
:1041380080B483B000AF786000BF0C37BD465DF82F
:10414800047B704780B483B000AF786000BF0C3741
:10415800BD465DF8047B704790B59FB000AF7860AE
:104168003960002387F877307B6893F85030012B4B
:1041780001D10223BEE07B68012283F8502000238E
:10418800FB6500233B667B681B685C4A934202D14F
:104198005B4BBB6001E00023BB60BB68002B0BD10D
:1041A8007B685B6D43F020027B685A657B68002260
:1041B80083F8502001239DE0BB681846FFF787FF6E
:1041C80038677B681B681846FFF781FF0346002B9A
:1041D8007FD13B6F002B7CD17B681B68474A934299
:1041E80004D07B681B68464A934201D1454B00E0E6
:1041F800454BFB663B681B68002B39D0FB6E9B6800
:1042080023F440423B685B681A43FB6E9A607B6804
:104218001B683A4A934204D07B681B68384A934229
:104228000ED13648FFF740FF04463548FFF73CFFFC
:1042380003462343002B0CBF01230023DBB208E015
:104248003248FFF731FF0346002B0CBF0123002340
:10425800DBB2002B47D0FB6E9A682D4B13403A68AF
:1042680011683A6892680A431A43FB6E9A603AE00A
:10427800FB6E9B6823F44042FB6E9A607B681B6868
:104288001E4A934204D07B681B681D4A93420ED194
:104298001A48FFF709FF04461948FFF705FF0346C8
:1042A8002343002B0CBF01230023DBB208E017488F
:1042B800FFF7FAFE0346002B0CBF01230023DBB2F5
:1042C800002B10D0FB6E9A68114B1340FA6E936066
:1042D80009E07B685B6D43F020027B685A65012327
:1042E80087F8773000E000BF7B68002283F8502011
:1042F80097F8773018467C37BD4690BD00200240BD
:104308000021024000230240006302580060025866
:10431800E0F0FFFF80B58CB000AF78607B68002BC1
:1043280002D1012300F048BC7B681B6803F001033D
:10433800002B00F08880994B1B6903F03803FB625F
:10434800964B9B6ABB62FB6A102B07D0FB6A182B43
:1043580011D1BB6A03F00303022B0CD18F4B1B68EE
:1043680003F40033002B6DD07B685B68002B69D1A8
:10437800012300F021BC7B685B68B3F5803F06D160
:10438800864B1B68854A43F4803313602EE07B68B4
:104398005B68002B0CD1814B1B68804A23F4803367
:1043A80013607E4B1B687D4A23F4802313601DE055
:1043B8007B685B68B3F5A02F0CD1784B1B68774AF4
:1043C80043F480231360754B1B68744A43F48033AD
:1043D80013600BE0714B1B68704A23F48033136041
:1043E8006E4B1B686D4A23F4802313607B685B68FF
:1043F800002B13D006F0FEFE786208E006F0FAFE05
:1044080002467B6AD31A642B01D90323D4E3634B96
:104418001B6803F40033002BF0D014E006F0EAFE2A
:10442800786208E006F0E6FE02467B6AD31A642B3F
:1044380001D90323C0E3594B1B6803F40033002B55
:10444800F0D100E000BF7B681B6803F00203002B7B
:1044580000F0CA80514B1B6903F038033B624F4B95
:104468009B6AFB613B6A002B07D03B6A182B56D12D
:10447800FB6903F00303002B51D1484B1B6803F081
:104488000403002B05D07B68DB68002B01D10123D6
:1044980092E3424B1B6823F019027B68DB683F49B3
:1044A80013430B6006F0A6FE786208E006F0A2FE51
:1044B80002467B6AD31A022B01D903237CE3374BCC
:1044C8001B6803F00403002BF0D006F0C3FE03467C
:1044D80041F20302934217D87B681B69402B08D12D
:1044E8002E4B5B6823F47C332C4A43F4003353602F
:1044F8007AE02A4B5B6823F47C327B681B691B03D8
:10450800264913434B606FE0244B5B6823F0FE425F
:104518007B681B691B06214913434B6064E07B6879
:10452800DB68002B47D01D4B1B6823F019027B6802
:10453800DB681A4913430B6006F05CFE786208E0FA
:1045480006F058FE02467B6AD31A022B01D90323D0
:1045580032E3124B1B6803F00403002BF0D006F083
:1045680079FE034641F20302934219D87B681B691E
:10457800402B08D1094B5B6823F47C33074A43F48A
:104588000033536030E0054B5B6823F47C327B6872
:104598001B691B03014913434B6025E00044025883
:1045A8009A4B5B6823F0FE427B681B691B069749A0
:1045B80013434B6018E0954B1B68944A23F00103A2
:1045C800136006F017FE786208E006F013FE024654
:1045D8007B6AD31A022B01D90323EDE28B4B1B68AC
:1045E80003F00403002BF0D17B681B6803F0100371
:1045F800002B00F0A980854B1B6903F03803BB61D1
:10460800824B9B6A7B61BB69082B07D0BB69182B5F
:104618003AD17B6903F00303012B35D17B4B1B682F
:1046280003F48073002B05D07B68DB69802B01D0F5
:104638000123C1E206F00EFE034641F20302934253
:1046480017D87B681B6A202B08D1704B5B6823F056
:10465800F8436E4A43F08043536075E06B4B5B68E8
:1046680023F0F8427B681B6A9B06684913434B603A
:104678006AE0664BDB6823F07C527B681B6A1B068A
:1046880062491343CB605FE07B68DB69002B42D053
:104698005E4B1B685D4A43F08003136006F0AAFD79
:1046A800786208E006F0A6FD02467B6AD31A022B60
:1046B80001D9032380E2554B1B6803F48073002B58
:1046C800F0D006F0C7FD034641F20302934217D823
:1046D8007B681B6A202B08D14C4B5B6823F0F8439E
:1046E8004A4A43F0804353602EE0484B5B6823F00E
:1046F800F8427B681B6A9B06444913434B6023E0DE
:10470800424BDB6823F07C527B681B6A1B063F49DF
:104718001343CB6018E03D4B1B683C4A23F08003F1
:10472800136006F067FD786208E006F063FD024654
:104738007B6AD31A022B01D903233DE2334B1B6852
:1047480003F48073002BF0D17B681B6803F0080327
:10475800002B36D07B685B69002B19D02B4B5B6F25
:104768002A4A43F00103536706F044FD786208E0E3
:1047780006F040FD02467B6AD31A022B01D90323B7
:104788001AE2224B5B6F03F00203002BF0D018E013
:104798001E4B5B6F1D4A23F00103536706F02AFD89
:1047A800786208E006F026FD02467B6AD31A022BDF
:1047B80001D9032300E2154B5B6F03F00203002BC2
:1047C800F0D17B681B6803F02003002B39D07B688D
:1047D8009B69002B1CD00D4B1B680C4A43F480537B
:1047E800136006F007FD786208E006F003FD024654
:1047F8007B6AD31A022B01D90323DDE1034B1B6823
:1048080003F40053002BF0D01BE000BF0044025813
:104818009B4B1B689A4A23F48053136006F0EAFC0A
:10482800786208E006F0E6FC02467B6AD31A022B9F
:1048380001D90323C0E1924B1B6803F40053002BFA
:10484800F0D17B681B6803F00403002B00F0818023
:104858008C4B1B688B4A43F48073136006F0CAFCC8
:10486800786208E006F0C6FC02467B6AD31A642B1D
:1048780001D90323A0E1834B1B6803F48073002B49
:10488800F0D07B689B68012B06D17D4B1B6F7C4A5F
:1048980043F0010313672DE07B689B68002B0CD164
:1048A800774B1B6F764A23F001031367744B1B6F1A
:1048B800734A23F0040313671CE07B689B68052B8D
:1048C8000CD16F4B1B6F6E4A43F0040313676C4B9C
:1048D8001B6F6B4A43F0010313670BE0684B1B6FB8
:1048E800674A23F001031367654B1B6F644A23F083
:1048F800040313677B689B68002B15D006F07AFCCD
:1049080078620AE006F076FC02467B6AD31A41F226
:104918008832934201D903234EE1594B1B6F03F0B0
:104928000203002BEED014E006F064FC78620AE083
:1049380006F060FC02467B6AD31A41F28832934241
:1049480001D9032338E14E4B1B6F03F00203002B00
:10495800EED17B685B6A002B00F02D81484B1B6908
:1049680003F03803182B00F0BD807B685B6A022BCC
:1049780040F09E80424B1B68414A23F080731360CD
:1049880006F038FC786208E006F034FC02467B6AE0
:10499800D31A022B01D903230EE1394B1B6803F00C
:1049A8000073002BF0D1364B9A6A374B13407A6864
:1049B800916A7A68D26A12010A43314913438B62B9
:1049C8007B681B6B013BC3F308027B685B6B013B95
:1049D8005B029BB21A437B689B6B013B1B0403F48D
:1049E800FE031A437B68DB6B013B1B0603F0FE43A7
:1049F800234913430B63224BDB6A214A23F001034B
:104A0800D3621F4B5A6B214B13407A68926CD200C9
:104A18001B4913434B631A4BDB6A23F00C027B6878
:104A28001B6C17491343CB62154BDB6A23F0020258
:104A38007B685B6C12491343CB62114BDB6A104AEB
:104A480043F48033D3620E4BDB6A0D4A43F40033E0
:104A5800D3620B4BDB6A0A4A43F48023D362084BC8
:104A6800DB6A074A43F00103D362054B1B68044A1B
:104A780043F08073136006F0BDFB786211E000BF5D
:104A880000440258004802580CFCFFFF0700FFFFD3
:104A980006F0B0FB02467B6AD31A022B01D9032326
:104AA8008AE0474B1B6803F00073002BF0D082E0CC
:104AB800434B1B68424A23F08073136006F09AFB4D
:104AC800786208E006F096FB02467B6AD31A022B4E
:104AD80001D9032370E03A4B1B6803F00073002BE5
:104AE800F0D168E0364B9B6A3B61354B1B6BFB6032
:104AF8007B685B6A012B31D03B6903F003027B685A
:104B08009B6A9A422AD13B691B0903F03F027B68E2
:104B1800DB6A9A4222D1FB68C3F308027B681B6BED
:104B2800013B9A421AD1FB685B0A03F07F027B685B
:104B38005B6B013B9A4211D1FB681B0C03F07F02AF
:104B48007B689B6B013B9A4208D1FB681B0E03F004
:104B58007F027B68DB6B013B9A4201D001232BE08B
:104B6800174B5B6BDB08C3F30C033B617B689B6CE7
:104B78003A699A421FD0124BDB6A114A23F00103AB
:104B8800D36206F037FB786200BF06F033FB0246BB
:104B98007B6A9342F9D00A4B5A6B0A4B13407A68E6
:104BA800926CD200064913434B63054BDB6A044AF7
:104BB80043F00103D362002318463037BD4680BD59
:104BC800004402580700FFFF80B586B000AF786048
:104BD80039607B68002B01D101239CE18A4B1B685B
:104BE80003F00F033A689A4210D9874B1B6823F0E9
:104BF8000F0285493B6813430B60834B1B6803F026
:104C08000F033A689A4201D0012384E17B681B684C
:104C180003F00403002B10D07B681A697B4B9B6957
:104C280003F070039A4208D9784B9B6923F070020D
:104C38007B681B69754913438B617B681B6803F0AC
:104C48000803002B10D07B685A69704BDB6903F0AE
:104C580070039A4208D96D4BDB6923F070027B68B8
:104C68005B696A491343CB617B681B6803F01003D7
:104C7800002B10D07B689A69644BDB6903F4E0630E
:104C88009A4208D9614BDB6923F4E0627B689B692F
:104C98005E491343CB617B681B6803F02003002B3C
:104CA80010D07B68DA69594B1B6A03F070039A428B
:104CB80008D9564B1B6A23F070027B68DB6953499D
:104CC80013430B627B681B6803F00203002B10D0B0
:104CD8007B68DA684D4B9B6903F00F039A4208D949
:104CE8004A4B9B6923F00F027B68DB6847491343F3
:104CF8008B617B681B6803F00103002B55D0434B85
:104D08009B6923F470627B689B68404913438B61FD
:104D18007B685B68022B07D13C4B1B6803F40033AC
:104D2800002B21D10123F6E07B685B68032B07D1B8
:104D3800364B1B6803F00073002B15D10123EAE002
:104D48007B685B68012B07D1304B1B6803F48073C9
:104D5800002B09D10123DEE02C4B1B6803F0040370
:104D6800002B01D10123D6E0284B1B6923F0070251
:104D78007B685B68254913430B6106F03BFA786151
:104D88000AE006F037FA02467B69D31A41F2883204
:104D9800934201D90323BEE01C4B1B6903F0380280
:104DA8007B685B68DB009A42EBD17B681B6803F089
:104DB8000203002B10D07B68DA68144B9B6903F060
:104DC8000F039A4208D2114B9B6923F00F027B68AC
:104DD800DB680E4913438B610B4B1B6803F00F0311
:104DE8003A689A4214D2084B1B6823F00F0206490E
:104DF8003B6813430B60044B1B6803F00F033A68CE
:104E08009A4205D0012386E000200052004402584F
:104E18007B681B6803F00403002B10D07B681A69B9
:104E28003F4B9B6903F070039A4208D23C4B9B6945
:104E380023F070027B681B69394913438B617B68D7
:104E48001B6803F00803002B10D07B685A69344BA9
:104E5800DB6903F070039A4208D2314BDB6923F017
:104E680070027B685B692E491343CB617B681B68C2
:104E780003F01003002B10D07B689A69284BDB697C
:104E880003F4E0639A4208D2254BDB6923F4E0621D
:104E98007B689B6922491343CB617B681B6803F0DD
:104EA8002003002B10D07B68DA691D4B1B6A03F0C6
:104EB80070039A4208D21A4B1B6A23F070027B686F
:104EC800DB69174913430B6200F034F80246144BB0
:104ED8009B691B0A03F00F031249CB5C03F01F0305
:104EE80022FA03F33B610E4B9B6903F00F030D4A53
:104EF800D35C03F01F033A6922FA03F30A4A1360EA
:104F08000A4A3B6913600A4B1B68184606F028F9E1
:104F18000346FB73FB7B18461837BD4680BD00BFB0
:104F28000044025878F70008FC010020F80100202E
:104F38000002002080B489B000AFB34B1B6903F0B6
:104F48003803182B00F2558101A252F823F000BF54
:104F5800BD4F0008FB510008FB510008FB51000839
:104F6800FB510008FB510008FB510008FB510008E9
:104F7800E34F0008FB510008FB510008FB510008F3
:104F8800FB510008FB510008FB510008FB510008C9
:104F9800E94F0008FB510008FB510008FB510008CD
:104FA800FB510008FB510008FB510008FB510008A9
:104FB800EF4F0008944B1B6803F02003002B09D027
:104FC800914B1B68DB0803F00303904A22FA03F3B2
:104FD800BB6111E18D4BBB610EE18D4BBB610BE1F8
:104FE8008C4BBB6108E1884B9B6A03F003037B6130
:104FF800854B9B6A1B0903F03F033B61824BDB6ACD
:1050080003F00103FB60804B5B6BDB08C3F30C030D
:10501800FA6802FB03F307EE903AF8EE677AC7EDF9
:10502800027A3B69002B00F0E1807B69022B00F0DB
:1050380083807B69022B00F2A1807B69002B03D05F
:105048007B69012B56D099E06F4B1B6803F0200356
:10505800002B2DD06C4B1B68DB0803F003036B4A55
:1050680022FA03F37B607B6807EE903AF8EE676AF2
:105078003B6907EE903AF8EE677A86EEA77A624BBC
:105088001B6BC3F3080307EE903AF8EE676A97EDD7
:10509800026ADFED615AC6EE257A76EEA77AF7EE58
:1050A800006A77EEA67A67EE277AC7ED077A87E077
:1050B8003B6907EE903AF8EE677ADFED586A86EEBC
:1050C800A77A514B1B6BC3F3080307EE903AF8EE2F
:1050D800676A97ED026ADFED505AC6EE257A76EEDA
:1050E800A77AF7EE006A77EEA67A67EE277AC7ED19
:1050F800077A65E03B6907EE903AF8EE677ADFEDEC
:10510800486A86EEA77A404B1B6BC3F3080307EE89
:10511800903AF8EE676A97ED026ADFED3F5AC6EEFD
:10512800257A76EEA77AF7EE006A77EEA67A67EE2A
:10513800277AC7ED077A43E03B6907EE903AF8EE25
:10514800677ADFED386A86EEA77A2F4B1B6BC3F3BD
:10515800080307EE903AF8EE676A97ED026ADFED0A
:105168002E5AC6EE257A76EEA77AF7EE006A77EE23
:10517800A67A67EE277AC7ED077A21E03B6907EE42
:10518800903AF8EE677ADFED266A86EEA77A1E4B2C
:105198001B6BC3F3080307EE903AF8EE676A97EDC6
:1051A800026ADFED1D5AC6EE257A76EEA77AF7EE8B
:1051B800006A77EEA67A67EE277AC7ED077A00BF0E
:1051C800114B1B6B5B0A03F07F0301333B603B68A9
:1051D80007EE903AB8EE677AD7ED076AC6EE877A97
:1051E800FCEEE77A17EE903ABB6105E00023BB615D
:1051F80002E0074BBB6100BFBB6918462437BD46B8
:105208005DF8047B704700BF004402580090D0034B
:1052180000093D0040787D01000000460024744CE0
:105228000024744A20BCBE4B80B582B000AFFFF7A3
:1052380081FE0246104B9B691B0A03F00F030F49BE
:10524800CB5C03F01F0322FA03F37B600A4B9B69D4
:1052580003F00F03094AD35C03F01F037A6822FAAC
:1052680003F3074A1360074A7B681360044B1B6803
:1052780018460837BD4680BD0044025878F7000834
:10528800FC010020F801002080B500AFFFF7CCFF3B
:105298000246064BDB691B0903F007030449CB5C94
:1052A80003F01F0322FA03F3184680BD0044025896
:1052B80078F7000880B500AFFFF7B6FF0246064B47
:1052C800DB691B0A03F007030449CB5C03F01F03E7
:1052D80022FA03F3184680BD0044025878F7000804
:1052E8002DE9B04FCAB000AFC7F81401002387F802
:1052F8002731002387F82631D7F81431D3E9002362
:1053080002F00064002554EA050349D0D7F81431A7
:105318009B6EB3F5401F2FD0B3F5401F28D8B3F5C7
:10532800001F1AD0B3F5001F22D8002B03D0B3F505
:10533800801F07D01CE0B84BDB6AB74A43F4003340
:10534800D3621AE0D7F8143108330221184602F064
:1053580061FB034687F827310FE0D7F8143128336B
:105368000221184602F008FC034687F8273104E0BA
:10537800012387F8273100E000BF97F82731002B79
:105388000AD1A54B1B6D23F44011D7F814319B6E3D
:10539800A14A0B43136503E097F8273187F82631B4
:1053A800D7F81431D3E9002302F480784FF00009CC
:1053B80058EA090347D0D7F814319B6D042B2AD833
:1053C80001A252F823F000BFE5530008F353000888
:1053D8000954000827540008275400088E4BDB6A3C
:1053E8008D4A43F40033D3621AE0D7F814310833F6
:1053F8000021184602F00EFB034687F827310FE01C
:10540800D7F8143128330021184602F0B5FB0346BB
:1054180087F8273104E0012387F8273100E000BF2F
:1054280097F82731002B0AD17B4B1B6D23F007011E
:10543800D7F814319B6D784A0B43136503E097F84E
:10544800273187F82631D7F81431D3E9002302F43D
:10545800007A4FF0000B5AEA0B034CD0D7F81431FE
:10546800DB6DB3F5807F30D0B3F5807F29D8C02BB2
:105478002DD0C02B25D8802B18D0802B21D8002BDD
:1054880002D0402B07D01CE0634BDB6A624A43F42E
:105498000033D3621CE0D7F81431083300211846D2
:1054A80002F0B8FA034687F8273111E0D7F814312B
:1054B80028330021184602F05FFB034687F827319E
:1054C80006E0012387F8273102E000BF00E000BFB3
:1054D80097F82731002B0AD14F4B1B6D23F4E0714D
:1054E800D7F81431DB6D4C4A0B43136503E097F88A
:1054F800273187F82631D7F81431D3E9002302F48D
:105508008063C7F808310023C7F80C31D7E9421285
:105518000B46134353D0D7F81431D3F8A830B3F55A
:10552800000F35D0B3F5000F2ED8B3F5C00F31D02A
:10553800B3F5C00F28D8B3F5800F1AD0B3F5800F94
:1055480022D8002B03D0B3F5001F07D01CE0324B44
:10555800DB6A314A43F40033D3621CE0D7F81431D4
:1055680008330021184602F055FA034687F8273118
:1055780011E0D7F8143128330021184602F0FCFA5C
:10558800034687F8273106E0012387F8273102E030
:1055980000BF00E000BF97F82731002B0BD11E4B4E
:1055A8009B6D23F46001D7F81431D3F8A8301A4A58
:1055B8000B43936503E097F8273187F82631D7F82E
:1055C8001431D3E9002302F40063C7F80031002343
:1055D800C7F80431D7E940120B46134356D0D7F821
:1055E8001431D3F8AC30B3F1806F38D0B3F1806F99
:1055F80031D8B3F1407F34D0B3F1407F2BD8B3F129
:10560800007F1DD0B3F1007F25D8002B06D0B3F161
:10561800807F0AD01FE000BF00440258A24BDB6A1B
:10562800A14A43F40033D3621CE0D7F8143108339D
:105638000021184602F0EEF9034687F8273111E0F9
:10564800D7F8143128330021184602F095FA03469A
:1056580087F8273106E0012387F8273102E000BFE9
:1056680000E000BF97F82731002B0BD18E4B9B6DC4
:1056780023F0E061D7F81431D3F8AC308A4A0B43F1
:10568800936503E097F8273187F82631D7F8143166
:10569800D3E9002302F00073C7F8F8300023C7F8F5
:1056A800FC30D7E93E120B4613433AD0D7F81431F1
:1056B800DB6C302B1FD0302B19D8202B0CD0202B93
:1056C80015D8002B19D0102B11D1774BDB6A764AED
:1056D80043F40033D36211E0D7F8143108330221C0
:1056E800184602F097F9034687F8273106E00123A8
:1056F80087F8273102E000BF00E000BF97F82731A4
:10570800002B0AD1684BDB6C23F03001D7F8143139
:10571800DB6C654A0B43D36403E097F8273187F8BD
:105728002631D7F81431D3E9002302F48053C7F89F
:10573800F0300023C7F8F430D7E93C120B46134386
:1057480051D0D7F814311B6EB3F5804F35D0B3F56F
:10575800804F2ED8B3F5405F31D0B3F5405F28D8DD
:10576800B3F5005F1AD0B3F5005F22D8002B03D041
:10577800B3F5805F07D01CE04B4BDB6A4A4A43F421
:105788000033D3621CE0D7F81431083300211846DF
:1057980002F040F9034687F8273111E0D7F81431B1
:1057A80028330021184602F0E7F9034687F8273125
:1057B80006E0012387F8273102E000BF00E000BFC0
:1057C80097F82731002B0AD1374B1B6D23F4E041A2
:1057D800D7F814311B6E344A0B43136503E097F86E
:1057E800273187F82631D7F81431D3E9002302F49A
:1057F8000053C7F8E8300023C7F8EC30D7E93A126D
:105808000B46134356D0D7F814315B6EB3F5A02F6F
:1058180033D0B3F5A02F2CD8B3F5802F2FD0B3F504
:10582800802F26D8B3F5403F2BD0B3F5403F20D882
:10583800B3F5003F12D0B3F5003F1AD8002B22D0A1
:10584800B3F5803F15D1D7F8143108330121184634
:1058580002F0E0F8034687F8273115E0D7F814314D
:1058680028330121184602F087F9034687F82731C3
:105878000AE0012387F8273106E000BF04E000BFF3
:1058880002E000BF00E000BF97F82731002B0DD1E0
:10589800054B1B6D23F4E021D7F814315B6E024AE7
:1058A8000B43136506E000BF0044025897F8273100
:1058B80087F82631D7F81431D3E9002302F480435E
:1058C800C7F8E0300023C7F8E430D7E938120B46B0
:1058D800134355D0D7F81431D3F8B030B3F1A04FF3
:1058E80033D0B3F1A04F2CD8B3F1804F2FD0B3F100
:1058F800804F26D8B3F1405F2BD0B3F1405F20D85A
:10590800B3F1005F12D0B3F1005F1AD8002B22D098
:10591800B3F1805F15D1D7F8143108330121184647
:1059280002F078F8034687F8273115E0D7F81431E4
:1059380028330121184602F01FF9034687F827315A
:105948000AE0012387F8273106E000BF04E000BF22
:1059580002E000BF00E000BF97F82731002B0BD111
:10596800A34B9B6D23F0E041D7F81431D3F8B03046
:105978009F4A0B43936503E097F8273187F8263150
:10598800D7F81431D3E9002302F40043C7F8D8301C
:105998000023C7F8DC30D7E936120B46134337D05B
:1059A800D7F814311B6FB3F1005F0ED0B3F1005F6D
:1059B80016D8002B18D0B3F1805F11D18C4BDB6A5D
:1059C8008B4A43F40033D3620FE0D7F8143108331D
:1059D8000121184602F01EF8034687F8273104E033
:1059E800012387F8273100E000BF97F82731002B03
:1059F8000AD17F4B1B6D23F04051D7F814311B6F30
:105A08007B4A0B43136503E097F8273187F8263163
:105A1800D7F81431D3E9002302F08073C7F8D030E7
:105A28000023C7F8D430D7E934120B46134339D0D2
:105A3800D7F814319B6C032B1CD801A252F823F021
:105A4800855A0008595A0008675A0008855A0008FC
:105A5800674BDB6A664A43F40033D3620FE0D7F83A
:105A6800143108330221184601F0D4FF034687F8A1
:105A7800273104E0012387F8273100E000BF97F8B9
:105A88002731002B0AD15A4BDB6C23F00301D7F8DE
:105A980014319B6C564A0B43D36403E097F82731C3
:105AA80087F82631D7F81431D3E9002302F48003AC
:105AB800C7F8C8300023C7F8CC30D7E932120B46F4
:105AC800134300F09F804B4B1B684A4A43F4807392
