:020000040800F2
:10000000A809002439030008033A0008E534000871
:10001000013A000839060008C9480008000000003D
:10002000000000000000000000000000493C000843
:100030003B06000800000000053A00084B3C0008A1
:100040005303000853030008530300085303000838
:100050005303000853030008530300085303000828
:100060005303000853030008530300085303000818
:100070005303000853030008530300085303000808
:1000800053030008530300085303000853030008F8
:1000900053030008530300085303000853030008E8
:1000A00053030008530300085303000853030008D8
:1000B00053030008530300085303000853030008C8
:1000C00053030008530300085303000853030008B8
:1000D00053030008530300085303000853030008A8
:1000E00053030008530300080000000053030008F6
:1000F0005303000853030008530300085303000888
:100100005303000853030008530300085303000877
:100110005303000853030008530300085303000867
:100120005303000853030008530300085303000857
:100130005303000853030008530300085303000847
:1001400000000000000000000000000000000000AF
:100150005303000853030008530300085303000827
:100160005303000853030008530300085303000817
:100170005303000853030008530300080000000065
:1001800053030008530300085303000853030008F7
:1001900053030008530300085303000853030008E7
:1001A00053030008530300085303000853030008D7
:1001B00053030008530300085303000853030008C7
:1001C00053030008530300085303000853030008B7
:1001D00053030008530300085303000853030008A7
:1001E0005303000853030008530300085303000897
:1001F0005303000853030008530300085303000887
:100200005303000853030008530300085303000876
:100210005303000853030008530300085303000866
:1002200053030008530300085303000800000000B4
:1002300053030008530300080000000053030008A4
:100240005303000853030008530300085303000836
:100250005303000853030008530300085303000826
:100260005303000853030008530300085303000816
:100270005303000853030008530300080000000064
:100280005303000853030008530300080000000054
:10029000000000005303000800F002F800F03CF8F2
:1002A0000AA090E8000C82448344AAF10107DA45D1
:1002B00001D100F031F8AFF2090EBAE80F0013F0E7
:1002C000010F18BFFB1A43F0010318471047000045
:1002D00030470000103A24BF78C878C1FAD85207D6
:1002E00024BF30C830C144BF04680C6070470000B0
:1002F0000023002400250026103A28BF78C1FBD82F
:10030000520728BF30C148BF0B6070471FB504F0CB
:1003100043FB1FBD10B510BD00F0DBF81146FFF721
:10032000F5FF04F0E3FA00F0F9F803B4FFF7F2FF89
:1003300003BC00F0C3F800000948804709480047A3
:10034000FEE7FEE7FEE7FEE7FEE7FEE7FEE7FEE785
:10035000FEE7FEE704480549054A064B70470000E2
:100360002D3D000899020008A8030024A8090024D4
:10037000A8050024A805002453EA020C00F06980B7
:100380002DE9F04B4FF00006002B1FBFB3FA83F5A9
:1003900003FA05F424FA05F65E4012BF1643B2FADA
:1003A00082F502FA05F4C5F120051EBF22FA05FC0C
:1003B00044EA0C04203556EA044C4FEA144418BFB2
:1003C000641C4FF000084FF00009904271EB030CE1
:1003D00039D3002919BFB1FA81F701FA07F6B0FA4B
:1003E00080F700FA07F6C7F120071EBF20FA07FCC6
:1003F00046EA0C062037B6FBF4FCA7EB0507103FD6
:1004000007F01F0BCBF120060CFA0BFB2CFA06F6BB
:1004100044BFB3460026202FA4BF5E464FF0000B1A
:100420005BEA060C08BF4FF0010B19EB0B09ABFBA5
:10043000027C48EB0608C01B06FB02CC0BFB03CC7E
:1004400071EB0C01C1E70B46024641464846BDE848
:10045000F08B13B54FF000004FF00001AFF30080B8
:10046000BDE81C4070474FF0000200B513469446AB
:100470009646203922BFA0E80C50A0E80C50B1F1FC
:100480002001BFF4F7AF090728BFA0E80C5048BF10
:100490000CC05DF804EB890028BF40F8042B08BFAE
:1004A000704748BF20F8022B11F0804F18BF00F8AA
:1004B000012B7047704770477047000001491820B2
:1004C000ABBEFEE72600020000487047440300244C
:1004D00070477546FFF7F8FFAE460500694653467C
:1004E00020F00700854618B020B5FFF733FFBDE8C0
:1004F00020404FF000064FF000074FF000084FF08B
:10050000000B21F00701AC46ACE8C009ACE8C0091B
:10051000ACE8C009ACE8C0098D46704710B5044688
:10052000AFF300802046BDE81040FFF7FEBE00009C
:1005300070B53A4905460068884202D0384A904270
:1005400002D1D1F8080302E03648D0F8080310F4CD
:10055000403F11D001F0E6FF04466868B0F5803FE7
:1005600006D0B0F5003F03D0B0F5403F27D101E001
:10057000000C18E0A40822E000214FF4002001F054
:1005800069F8044668688103890B18D181140C2925
:1005900015D2DFE801F0140606060606060B0D0F5D
:1005A0001113800C4000B4FBF0F408E0240906E0CD
:1005B000640904E0A40902E0E40900E0240A00F070
:1005C0005FFD41F20301884208D817488442286839
:1005D000816813D821F48071816070BD134960086F
:1005E000884204D82868816821F44071F4E71049F2
:1005F000884206D82868816821F4407141F48071EE
:10060000EAE70C4988422868816804D821F44071DF
:1006100041F40071E0E741F44071DDE70020024061
:100620000021024000600258002D3101105E5F0081
:1006300020BCBE0040787D01FEE7704772B6FEE741
:100640002DE9F0470F4690F850109AB00446012962
:100650004FF0000915D00026DFF8F880012084F85B
:10066000500015961696216841450ED13A4D0095D9
:10067000284602F040FF8246206802F03CFF60B14D
:100680000EE002201AB0BDE8F087606D84F850607B
:1006900040F0200060650120F4E7BAF1000F09D0B6
:1006A000616D4FF0010941F020006065484684F813
:1006B0005060E7E720684146884201D0A84201D156
:1006C000264800E0264840F61F72D7F800C0254BA8
:1006D000BCF1000F23D0D0F808C0D7F804802CF468
:1006E000404C4CEA080CC0F808C0D4F800C08C4557
:1006F00001D0AC4507D18968AB6801F0010103F076
:100700000103194302E0996801F001010029CDD1EC
:10071000BD683968836829439343194317E08768A4
:1007200027F44047876027688F4201D0AF4207D146
:100730008968AB6801F0010103F00103194302E08D
:10074000996801F001010029B0D18168914381606D
:10075000ACE70000002002400021024000230240DC
:1007600000630258006002582DE9F84F4FF0000B6B
:100770000D46E54F0446CDF800B0D94690F850102C
:10078000DFF888A3012907D0012684F8506020688B
:1007900002F0ADFE18B168E10220BDE8F88F2868CC
:1007A00000280DDB21680303CA6927D090FAA0F066
:1007B000B0FA80F000F01F0006FA00F00243CA61B0
:1007C000D5E900124FF00C0C20681F23C1F384619F
:1007D0000CEA921C02F01F02604493409140026BAD
:1007E0009A430A430263206802F081FE8046206833
:1007F00002F079FE58EA000003D07FE0C0F3846085
:10080000D8E72068AA68296802F079FEC048006825
:10081000B6EB107F06D121686869C968C1F382010F
:10082000490008E02068C168C906C1686869F5D553
:1008300001F0100149088840296904292ED0236855
:100840002A6803EB810102F0F8420B6E024303F0C9
:10085000004010430866697E22682869012917D084
:100860005FF0000102EB8000026E22F000420A43BA
:100870000266297E20682A6901290CD000210369BB
:1008800002F01F02914023F4F0420A43026135E076
:100890004FF00041E6E74FF40061F0E72068297867
:1008A000026E02F0F842B2EB816F03D1016E21F0CB
:1008B0000041016620682978426E02F0F842B2EBEE
:1008C000816F03D1416E21F0004141662068297893
:1008D000826E02F0F842B2EB816F03D1816E21F09B
:1008E0000041816620682978C26E02F0F842B2EBBE
:1008F000816F03D1C16E21F00041C166206881681B
:1009000011F0010F76D150F8C02F95F80CC0814B33
:1009100029680CF0180823FA08F3C1F3130C0B40F4
:1009200022EA0C021A4302607B48E968814277D1CF
:10093000286801031BD090FAA0F1B1FA81F1491C9B
:1009400001F01F0109294FEA003131D8002911D0E7
:1009500090FAA0F1B1FA81F101F1010101F01F015A
:1009600006FA01F609D100BFC0F3846109E0C0F3C3
:100970008461E4E7C0F38461EEE790FAA0F1B1FA94
:1009800081F101F1010101F01F0146EA816102D10B
:10099000C0F3846003E090FAA0F0B0FA80F000F1B8
:1009A000010000F01F0000EB400041EA005133E07D
:1009B00000290ED090FAA0F1B1FA81F101F1010104
:1009C00001F01F0106FA01F606D100BFC0F38461F1
:1009D00006E0C0F38461F1E790FAA0F1B1FA81F189
:1009E00001F1010101F01F0146EA816103D1C0F369
:1009F000846004E03FE090FAA0F0B0FA80F0474A4B
:100A000000F1010000F01F0000EB400002EB00507D
:100A100041EA000141F00071AA68206802F06FFD10
:100A20002E68002E27DA3E4A20683E49DFF8F8C0DB
:100A3000904201D0B84201D10B4600E063469B686A
:100A4000904203F0E07301D0B84209D19568D7F81D
:100A5000088005F0010508F0010845EA080503E0F3
:100A6000DAF8085005F001054DB1616D4FF001094C
:100A700041F020006065484684F850B08DE62B4D6B
:100A8000AE421CD11D021AD45045F4D1904202D07E
:100A9000B84200D061468A6843F4000022F0E07258
:100AA00002438A60234922480968B1FBF0F0400004
:100AB000801C00E0401E00900028FBD1DBE71E4DAB
:100AC000AE420CD1DD010AD45045D4D1904202D0BF
:100AD000B84200D061468A6843F080700EE0174D3E
:100AE000AE42C8D15D02C6D45045C4D1904202D0B6
:100AF000B84200D061468A6843F4800022F0E07278
:100B000002438A60B7E700000021024000600258FB
:100B10000010005CFFFF0F000000FF47000020FEF8
:100B2000002002400023024000630258000084CBF2
:100B3000400D03000C000024000052C70000B8CF95
:100B4000F8B54FF0000604003546009602D0606DFF
:100B500010B107E00120F8BD204600F005F9A665B8
:100B600084F8506020688168C1F3407119B18168D0
:100B7000704A1140816020688168C1F3007181B9B9
:100B800081686D4A114041F0805181606C496B4829
:100B90000968B1FBF0F0401C00E0401E0090002806
:100BA000FBD120688168C1F3007141B9616D0125F5
:100BB00041F010016165A16D41F00101A16502F0F4
:100BC00096FC616DC90600D420B1606D012540F02E
:100BD000100093E0606D20F4807040F002006065CA
:100BE0002068816811F0010F1FD1564A564B904280
:100BF00001D0984207D191689E6801F0010106F08A
:100C00000106314303E05149896801F0010161B9EE
:100C1000904201D0984201D14D4800E04D48826891
:100C2000616822F47C120A43826000F029FA41F2E2
:100C30000301884202D9A06810280CD0617D227F70
:100C4000A368206B490341EA024118430843217F0E
:100C500001290CD010E0607D227F216B400340EA27
:100C6000024241F01000104340F00C00EFE7218CED
:100C7000394A02EB41410843616A29B1A26A01F491
:100C80007871014342EA01002168344BCA681A4076
:100C90000243CA60206802F02AFC0646206802F07F
:100CA00022FC30431DD1216844F20303267DE26A11
:100CB000C86842EA863298431043C86094F8380006
:100CC00001281ED02068016921F00101016120681E
:100CD000626B016921F07041114301612046FFF709
:100CE00027FCE068012820681CD0016B21F00F016F
:100CF0000163606D20F0020040F00100606528464D
:100D0000F8BD2068A28F164FD4E9101C154E07EBD2
:100D10000247A36C026941EA0C013B43324019438C
:100D20001143D3E7A269016B521E21F00F01114359
:100D3000DEE70000C0FFFF5FC0FFFF7F400D030044
:100D40000C000024002002400021024000600258F4
:100D500000230240006302580000FEFF03C0F0FFC2
:100D60000100FFFF1EF800FCF0B5B7B004461421E7
:100D700030A8FFF778FBC0216846FFF774FB2D49C8
:100D80002068884253D1002104220C464FF40020F1
:100D900002258DE80700C02609233001CDE903357F
:100DA00020272991CDE90870CDE9065668460595BA
:100DB00000F0B4FD08B1FFF741FC1F48016841F0A5
:100DC00020010160006800F0200035901A480830CA
:100DD000016841F001010160016801F001013591F4
:100DE000016841F004010160016801F004013591DE
:100DF000016841F00201016000680327309630A9C4
:100E000000F0020035900D48CDE9317400F01CF877
:100E100030203294CDE93007094830A900F014F8A9
:100E2000309530A90748CDE9317400F00DF837B09E
:100E3000F0BD000000200240D844025800000258D3
:100E400000080258000402582DE9F84F03247D4D94
:100E500000234FF001094FF0B04B4FF00F0AE9E0CB
:100E600009FA03F73A4076D00E7906F00306012E10
:100E700001D0022E18D1D0F808C04FEA430ECE6838
:100E800004FA0EF82CEA080C06FA0EF646EA0C06EE
:100E90008660D0F804C00E792CEA070CC6F3001661
:100EA0009E4046EA0C0646600E79F643B6070BD024
:100EB000C6684FEA43088F6804FA08FC26EA0C0665
:100EC00007FA08F73743C7600E7906F00306022ECB
:100ED00012D1DE080F694FEA437C00EB8606B64666
:100EE000366A4FEADC6C0AFA0CF807FA0CF726EAC5
:100EF00008063743CEF820700F7906684FEA43089A
:100F000007F0030704FA08FC07FA08F726EA0C06BC
:100F1000374307604E6816F4403F1CD04A4E37688E
:100F200047F00207376036689F0706F00206009612
:100F300023F0030606F1B046B6463F0FD6F8086424
:100F4000DFF808810AFA07FC404526EA0C0603D1BF
:100F50004FF0000C41E06CE0DFF8F4C0604502D1D6
:100F60004FF0010C39E0DFF8ECC0604502D14FF0E2
:100F7000020C32E0DFF8E0C0604502D14FF0030C14
:100F80002BE0DFF8D8C0604502D14FF0040C24E01C
:100F9000DFF8CCC0604502D14FF0050C1DE0DFF852
:100FA000C4C0604502D14FF0060C16E0DFF8B8C0AF
:100FB000604502D14FF0070C0FE0DFF8B0C060458C
:100FC00002D14FF0080C08E0DFF8A4C0604502D160
:100FD0004FF0090C01E04FF00A0C0CFA07FC4CEA48
:100FE000060CCEF808C44F68DBF80060FF0226EA62
:100FF000020600D516435F46CBF80060D1F804C066
:10100000DBF804605FEA8C2C26EA020600D5164362
:101010007E606E684F6826EA0206BF0300D516435D
:101020006E602E684F6826EA0206FF0300D516435D
:101030002E605B1C0A6832FA03F67FF411AFBDE83C
:10104000F88F000080000058F44402580000025855
:101050000004025800080258000C02580010025800
:101060000014025800180258001C025800200258B0
:10107000002402580AB1816170470904FBE70000AF
:1010800001480068000C70470010005C014880684F
:101090007047000000000024024881680278114473
:1010A0008160704700000024032010B500F078F83C
:1010B00001F07EFA0F4A104914681368C4F3032242
:1010C00003F00F038A5CC95C02F01F0201F01F01EC
:1010D000D0400A4A20FA01F11160094908600F2046
:1010E00000F010F808B1012010BD00F02BF800202E
:1010F00010BD000018440258CA490008100000241E
:101100000C00002470B50D4D04462878A0B14FF4B2
:101110007A71B1FBF0F00A490968B1FBF0F001F017
:10112000A4FD48B9102C07D200222146501E00F021
:1011300017F800206C6070BD012070BD0000002415
:101140000C000024054808B5016841F00201016067
:10115000006800F00200009008BD0000F44402584E
:101160000E4BF0B41B680D46C3F30223C3F1070610
:10117000042E00D90426191D072901D2002300E0FE
:10118000DB1E012404FA06F19C40491E2940641E1E
:10119000994014402143F0BC03F097BB0CED00E0F4
:1011A000064900F0070210B54FF6FF040868044B2B
:1011B000204040EA02201843086010BD0CED00E01A
:1011C0000000FA05134970B50A68D243520705D5E5
:1011D000096801F00701814213D118E00A6822F082
:1011E000070202430A60FFF751FF0A4D4FF47A7677
:1011F0000446083D07E000BFFFF748FF001BB04270
:1012000001D9012070BD2868C0438004F4D40020B7
:1012100070BD00000C48025810B5F0B102210171F8
:101220000022016801230C6824F020040C6001688E
:1012300021F0FF010C6824F00F040C6001680C68B9
:1012400024F01C040C6001684C6824F007044C6016
:101250008260C2600371002010BD012010BD00003B
:1012600010B501F05FF905490968054AC1F302119B
:10127000515C01F01F01C84010BD0000204402581D
:10128000CA4900084A4930B5494C0B1D0A680C345C
:1012900009681D68246802F0030305F00102C1F328
:1012A0000511C4F3CC04002914FB02F200EE102A4D
:1012B000F8EE400A76D0414A9FED3E1ADFED3E1A25
:1012C000B7EE000A23B1012B5AD0022B18D15CE0F3
:1012D000374C283C23689B0612D5394B246801EE15
:1012E000901A1168C4F3C104F8EE612AE34001EEDC
:1012F000903AC1F30801F8EE611A81EEA22A07E0E4
:1013000002EE101A1168F8EE422A81EEA22A45E098
:1013100001EE901A1168F8EE611A40EE811A71EE32
:10132000800A62EE200AC1F3462101EE101AB8EEDF
:10133000411A31EE001AC0EE811ABCEEE11A80EDBE
:10134000001A1168C1F3064101EE101AB8EE411AF5
:1013500031EE001AC0EE811ABCEEE11A80ED011ADE
:101360001168C1F3066101EE101AB8EE411A31EEB0
:10137000000A80EE801ABCEEC10A80ED020A30BD80
:1013800001EE901ADFED0F2A03E001EE901ADFED77
:101390000E2A1168F8EE611A82EEA12AC1F3080143
:1013A000B6E7FFE7002101604160816030BD0000C9
:1013B00028440258000000390024744C304402587C
:1013C0000090D0030024744A20BCBE4B494930B57C
:1013D000484C0B1D0A68143409681D68246802F023
:1013E0000303C5F30012C1F30531C4F3CC04002993
:1013F00014FB02F200EE102AF8EE400A75D03F4AC4
:101400009FED3D1AB7EE000A6BB1DFED3D1A012BDF
:1014100001D0022B64D002EE101A1168F8EE422AB5
:1014200081EEA22A21E0334C283C23689B0612D58A
:10143000344B246801EE901A1168C4F3C104F8EE2D
:10144000612AE34001EE903AC1F30801F8EE611A17
:1014500081EEA22A0BE001EE901ADFED2B2A00BFED
:10146000F8EE611A116882EEA12AC1F3080101EEBB
:10147000901A1168F8EE611A40EE811A71EE800A36
:1014800062EE200AC1F3462101EE101AB8EE411AAD
:1014900031EE001AC0EE811ABCEEE11A80ED001A9E
:1014A0001168C1F3064101EE101AB8EE411A31EE8F
:1014B000001AC0EE811ABCEEE11A80ED011A116823
:1014C000C1F3066101EE101AB8EE411A31EE000ABE
:1014D00080EE801ABCEEC10A80ED020A30BD04E045
:1014E00001EE901ADFED092ABAE7002101604160A0
:1014F0008160F3E72844025800000039384402585C
:101500000024744A0090D0030024744C20BCBE4BCD
:10151000494930B5484C0B1D0A681C3409681D68E0
:10152000246802F00303C5F30022C1F30551C4F39C
:10153000CC04002914FB02F200EE102AF8EE400A57
:1015400075D03F4A9FED3D1AB7EE000A6BB1DFED53
:101550003D1A012B01D0022B64D002EE101A116843
:10156000F8EE422A81EEA22A21E0334C283C23687F
:101570009B0612D5344B246801EE901A1168C4F30F
:10158000C104F8EE612AE34001EE903AC1F308018C
:10159000F8EE611A81EEA22A0BE001EE901ADFED5F
:1015A0002B2A00BFF8EE611A116882EEA12AC1F35E
:1015B000080101EE901A1168F8EE611A40EE811AE6
:1015C00071EE800A62EE200AC1F3462101EE101A84
:1015D000B8EE411A31EE001AC0EE811ABCEEE11AE3
:1015E00080ED001A1168C1F3064101EE101AB8EE41
:1015F000411A31EE001AC0EE811ABCEEE11A80EDFC
:10160000011A1168C1F3066101EE101AB8EE411A11
:1016100031EE000A80EE801ABCEEC10A80ED020AAB
:1016200030BD04E001EE901ADFED092ABAE700218F
:10163000016041608160F3E72844025800000039EE
:10164000404402580024744A0090D0030024744C93
:1016500020BCBE4B2DE9F04FAC4A0546DFF8A8A2EE
:1016600080F48070DFF8AC9289B01311AA4C084363
:10167000A748AAF104064FF0805C4FF000582CD028
:1016800085F400770F4357D0DFF87CB285F480678C
:101690000F430BF1080B61D085F400670F4374D042
:1016A00085F480570F436ED085F400570F434FF4F5
:1016B00080394FF4003E67D085F400270F4371D086
:1016C00085F480370F436ED085F480460E436BD08F
:1016D00085F400420A4368D02AE0DAF8001001F0ED
:1016E0000701052924D2DFE801F075BC7D25B10092
:1016F00006A8FFF7C7FD079809B0BDE8F08F684658
:10170000FFF764FE0098F7E703A8FFF701FF0398CF
:10171000F2E72068C0F3C10022FA00F0ECE722688B
:10172000D20571D561456FD11846E5E74145E3D053
:101730000020E1E74846DFE7DAF8001001F4E07145
:1017400080294FD004DC002944D04029F0D188E022
:10175000C029EFD0B1F5807FEAD177E0DBF8001047
:1017600001F46001B1F5800F3CD004DC91B3B1F518
:10177000001FDDD175E0B1F5C00FDBD0B1F5000F72
:10178000D6D163E001E018E030E0DBF8001001F0B2
:10179000E061B1F1007F25D008DCD9B1B1F1807FE3
:1017A000C6D15EE049E06CE079E09CE0B1F1407FB9
:1017B000C0D0B1F1806FBBD148E0DAF8001001F47D
:1017C000E041B1F5005F0DD005DC19B1B1F5805FE6
:1017D000AED146E094E0B1F5405FABD0B1F5804FBB
:1017E000A6D133E020688000A2D58DE7DAF800109A
:1017F00001F4E021B1F5403F6CD006DC61B1494510
:101800007AD0714594D157E037E0B1F5802F65D09B
:10181000B1F5A02F8CD10CE000F0A6FE6CE7684675
:10182000FFF7D4FD019867E703A8FFF771FE04985E
:1018300062E721688903F1D47AE7DBF8001011F43C
:1018400040310ED0494510D07145F5D13168256839
:1018500001F040516D077FF562AF00297FF45FAF63
:1018600057E720680001E7D549E720688000E3D505
:1018700003A8FFF74DFE05983EE722689203DBD5EB
:1018800054E7306810F480303AD04845D4D120680D
:101890000001D1D56846FFF799FD02982CE7DBF8E7
:1018A000001001F0E041B1F1405F13D008DC71B1EC
:1018B000614521D04145BFD120688000B4D437E7CD
:1018C000B1F1804F0AD0B1F1A04FB2D030E7FFF7AD
:1018D000C7FC11E720684007AED51AE72068C005AD
:1018E000AAD521E708E0DAF8001011F04051A0D0A5
:1018F000614505D041459FD1206800018FD417E78D
:101900002068800198D5F3E6504402580090D00337
:1019100040787D010080BB00004402582DE9FE4F55
:101920000546DFF8E48350F8081B0024F64FC9434E
:10193000019005F12800264608F1240800900801CE
:101940001DD4A86E50B1B0F5801F0CD0B0F5001FAB
:101950000ED0B0F5401F1ED001240FE0386840F4CF
:101960000030386017E00198022102F04DF803E0E2
:101970000098022102F0D8F804000CD026462888EE
:10198000C043C00523D4A86D05281ED2DFE800F0AF
:101990000C11161B1B00AA6ED8F8001021F4401180
:1019A0001143C8F80010EAE7386840F400303860A6
:1019B00009E00198002102F027F803E000980021D7
:1019C00002F0B2F8044674B100E0012426462888EB
:1019D000C043800528D4E86D80281ED00CDC90B16F
:1019E00040280ED114E0AA6DD8F8001021F00701AC
:1019F0001143C8F80010EAE7C02813D0B0F5807F83
:101A000010D001240FE0386840F40030386009E05D
:101A10000198002101F0F8FF03E00098002102F096
:101A200083F804469CB126462888DFF8DC92C04340
:101A300009F12C0940052CD4D5F8A800B0F5800F89
:101A400020D00DDCA0B1B0F5001F0FD115E0EA6D7C
:101A5000D8F8001021F4E0711143C8F80010E3E752
:101A6000B0F5C00F13D0B0F5000F10D001240FE077
:101A7000386840F40030386009E00198002101F036
:101A8000C3FF03E00098002102F04EF804467CB149
:101A900026462888C04300052DD4D5F8AC00B0F107
:101AA000007F21D00EDCA8B1B0F1807F10D116E00C
:101AB000D5F8A820D9F8001021F460011143C9F825
:101AC0000010E6E7B0F1407F13D0B0F1806F10D086
:101AD00001240FE0386840F40030386009E00198D4
:101AE000002101F091FF03E00098002102F01CF8B2
:101AF000044674B126462868C04380011FD4E86CB0
:101B0000D8B110280FD0202812D0302815D00124A9
:101B100014E0D5F8AC20D9F8001021F0E0611143B1
:101B2000C9F80010E7E7386840F40030386004E096
:101B30000198022101F068FF044674B12646288806
:101B4000C043C0042BD4286EB0F5005F20D00DDC5C
:101B5000A0B1B0F5805F0FD115E06B48EA6C203082
:101B6000016821F0300111430160E8E7B0F5405F02
:101B700013D0B0F5804F10D001240FE0386840F446
:101B80000030386009E00198002101F03DFF03E0DA
:101B90000098002101F0C8FF04468CB12646288831
:101BA000C043800429D4686EB0F5403F23D010DCD8
:101BB00008B3B0F5803F14D0B0F5003F0FD115E069
:101BC0002A6ED8F8001021F4E0411143C8F8001043
:101BD000E5E7B0F5802F0ED0B0F5A02F0BD0012493
:101BE0000AE00198012101F00FFF03E000980121B4
:101BF00001F09AFF044694B126462888C043400469
:101C00002AD4D5F8B000B0F1405F23D010DC08B37F
:101C1000B0F1805F14D0B0F1005F0FD115E06A6EB3
:101C2000D8F8001021F4E0211143C8F80010E4E7CF
:101C3000B0F1804F0ED0B0F1A04F0BD001240AE0DC
:101C40000198012101F0E0FE03E00098012101F07C
:101C50006BFF044674B126462888C04300041FD495
:101C6000286FD8B1B0F1805F0ED0B0F1005F10D016
:101C7000012414E0D5F8B020D9F8001021F0E0419B
:101C80001143C9F80010E7E7386840F400303860C5
:101C900004E00198012101F0B7FE044674B1264624
:101CA0002868C043C0011ED4A86CD0B101280ED052
:101CB000022811D0032814D0012413E02A6FD8F889
:101CC000001021F040511143C8F80010E8E73868CF
:101CD00040F40030386004E00198022101F094FEE5
:101CE0000446ACB126462868DFF81CB0C043ABF10F
:101CF0001C0B400252D40548016841F48071016018
:101D0000FFF7C4F9824611E02C44025800480258FB
:101D1000FA48AA6C016821F0030111430160E2E76F
:101D2000FFF7B4F9A0EB0A00642835D8F44800683E
:101D3000C005F5D58CBBDFF8C4A3B5F8B4100AF123
:101D4000240ADAF8000001F4407100F4407088427F
:101D500011D0DAF80010DAF8002021F4407142F4D2
:101D60008032CAF80020DAF8002022F48032CAF863
:101D70000020CAF80010D5F8B400B0F5807F1AD161
:101D8000FFF784F9029012E0FFF780F90299411AF7
:101D900041F2883081420AD9032426462878DFF8A8
:101DA0005CA3C0430AF1080AC00721D03CE0DAF87E
:101DB00000008007E8D5D5F8B410C1F3012003284E
:101DC00058460DD0016821F47C510160B5F8B4206B
:101DD000DAF80010C2F30B021143CAF80010DDE775
:101DE000C84A036802EA111223F47C511143ECE75C
:101DF000E86F182816D005DCA0B1082808D01028F4
:101E000004D10AE020280DD028280BD001240AE0B4
:101E10000198012101F0F8FD03E00098012101F093
:101E200083FE044664B126462878C04380071ED44A
:101E3000A86F062819D2DFE800F0160C1116161646
:101E4000EA6FDAF8001021F038011143CAF80010E7
:101E5000EAE70198012101F0D7FD03E00098012194
:101E600001F062FE04467CB100E001242646287899
:101E7000C04340071FD4D5F89400062819D2DFE8E4
:101E800000F0160C11161616AA6FDAF8001021F0E1
:101E900007011143CAF80010E9E70198012101F098
:101EA000B3FD03E00098012101F03EFE0446A4B119
:101EB00000E0012426462878C04380062BD4D5F8BC
:101EC0009000B0F1405F24D011DC10B3B0F1805F1E
:101ED00015D0B0F1005F10D116E0D5F89420D9F8F4
:101EE000001021F007011143C9F80010E3E7B0F139
:101EF000804F0ED0B0F1A04F0BD001240AE0019822
:101F0000002101F081FD03E00098022101F00CFEA8
:101F1000044694B126462878C04340062BD4D5F811
:101F20009C00B0F5406F24D011DC10B3B0F5806F89
:101F300015D0B0F5006F10D116E0D5F89020DAF882
:101F4000001021F0E0411143CAF80010E3E7B0F5BA
:101F5000805F0ED0B0F5A05F0BD001240AE001989D
:101F6000002101F051FD03E00098022101F0DCFDA9
:101F7000044694B126462878C04300062BD4D5F8F1
:101F8000A000B0F5C04F24D011DC10B3B0F5005F55
:101F900015D0B0F5804F10D116E0D5F89C20D9F8B7
:101FA000001021F4E0511143C9F80010E3E7B0F547
:101FB000004F0ED0B0F5204F0BD001240AE001985D
:101FC000002101F021FD03E00098022101F0ACFDA9
:101FD000044654B126462878C04300071ED4D5F8DD
:101FE0008400B0F5805F0AD00FE0D5F8A020D9F8C2
:101FF000001021F460411143C9F80010EBE700988C
:10200000022101F091FD00B10126D5F88420DAF813
:10201000001021F440511143CAF800102878C04341
:10202000C00613D4D5F89800B0F5807F05D100988C
:10203000022101F079FD00B10126D5F89820D9F8E8
:10204000001021F440711143C9F800102868C04302
:10205000000316D4D5F8A40038B1B0F5803F09D0FC
:10206000B0F5003F0BD001240AE00198002101F0F7
:10207000CBFC03E00098022101F056FD04468CB130
:1020800026462868C043400322D4D5F88800B0F51E
:10209000801F11D0B0F5001F13D0B0F5401F15D030
:1020A000012414E0D5F8A420D9F8001021F440311F
:1020B0001143C9F80010E4E7386840F40030386094
:1020C00004E00098012101F02FFD04465CB1264692
:1020D0002868C043C00323D4286DA8B1B0F5803F61
:1020E00017D001241BE0D5F88820DAF8001021F47D
:1020F00040111143CAF80010EAE700004C440258AE
:1021000000480258CFFFFF00386840F400303860C4
:1021100004E00198022101F077FC0446E4B1264670
:102120002868C043800005D40098022101F0FCFC1F
:1021300000B101262868C04380031BD4D5F8800075
:10214000B0B1B0F5807F0FD0B0F5007F10D0B0F502
:10215000407F0DD001240CE05A482A6D016821F41B
:10216000803111430160DBE7386840F400303860AB
:10217000ECB326462868C043C00207D46A6FD8F87B
:10218000001021F000411143C8F800102868C04336
:10219000C00008D4D5F8B820DBF8001021F4804145
:1021A0001143CBF800102868C043800207D4EA6EC0
:1021B000D8F8001021F080711143C8F80010286889
:1021C000C04340000CD4DBF8001021F40041CBF8F0
:1021D0000010DBF80010D5F8BC201143CBF800103C
:1021E0002868C04308D437486A6D016800E018E0E9
:1021F00021F04051114301602868C043000208D417
:10220000D5F88C20DAF8001021F440011143CAF807
:10221000001028790024C04300F0010020430AD0B8
:102220000FE0D5F88020DAF8001021F44071114356
:10223000CAF800109EE70198002101F0E5FB00B10B
:1022400006462879C04300F00200204305D10198DA
:10225000012101F0D9FB00B106462879C04300F006
:102260000400204305D10198022101F0CDFB00B10B
:1022700006462879C04300F00800204305D10098A5
:10228000002101F051FC00B106462879C04300F05E
:102290001000204305D10098012101F045FC00B158
:1022A00006462879C04300F02000044304D100987A
:1022B000022101F039FC00B916B10120BDE8FE8F02
:1022C0000020FBE74C4402582DE9F05F04000F4664
:1022D0007ED0DFF83882D8F8000000F00F00B84256
:1022E0000CD2D8F8001021F00F013943C8F80010C3
:1022F000D8F8000000F00F00B84269D12078844D72
:1023000040070AD52069296801F07001884204D984
:10231000296821F070010143296020787C4E361D28
:1023200000070AD56069316801F07001884204D95C
:10233000316821F07001014331602078C0060AD570
:10234000A069316801F4E061884204D9316821F460
:10235000E061014331602078DFF8B4B180060BF111
:10236000080B0CD5E1695846DBF8002002F070023A
:10237000914204D9026822F070020A430260207878
:1023800080070AD5E068296801F00F01884204D966
:10239000296821F00F01014329602078C0073ED051
:1023A0005B49A2682868183920F4706010432860DF
:1023B0006068022818D0032819D00968012819D0AC
:1023C000490700294ADADFF848A1AAF1080A00E023
:1023D00044E0DAF8002022F007020243CAF80020A5
:1023E000FEF754FE814612E009688903E9E70968AF
:1023F0008901E6E7C905E4E7FEF748FEA0EB09011D
:1024000041F28830814202D90320BDE8F09F616823
:10241000DAF8000000F03800B0EBC10FECD1207802
:1024200080070AD5E068296801F00F01884204D2CC
:10243000296821F00F0101432960D8F800104046B7
:1024400001F00F01B9420BD9016821F00F013943A6
:102450000160006800F00F00B84201D00120D4E70D
:10246000207840070AD52069296801F07001884268
:1024700004D2296821F07001014329602078000707
:102480000AD56069316801F07001884204D2316870
:1024900021F07001014331602078C0060AD5A0699F
:1024A000316801F4E061884204D2316821F4E061CE
:1024B00001433160207880060CD5E1695846DBF88D
:1024C000002002F07002914204D2026822F07002F1
:1024D0000A43026000F06CF80E492A682B68C2F3C8
:1024E000032203F00F038A5CC95C02F01F0201F0B3
:1024F0001F01D040084A20FA01F111600749086025
:1025000007480068BDE8F05FFEF7FCBD0020005200
:1025100018440258CA490008100000240C00002486
:102520000400002430B500F043F80B4A0B490C4B73
:1025300015681468C5F3032204F00F048A5C095D72
:1025400002F01F0201F01F01D040064A20FA01F1FB
:1025500019601060084630BD18440258CA49000886
:10256000100000240C00002400B5FFF7DBFF054934
:102570000968054AC1F30211515C01F01F01C8400E
:1025800000BD00001C440258CA49000800B5FFF70E
:10259000C9FF05490968054AC1F30221515C01F0F0
:1025A0001F01C84000BD00001C440258CA49000871
:1025B000454970B545480968434B103B11F0380256
:1025C00008D00111082A03D0102A0BD0182A0BD0EA
:1025D000084670BD19688906FBD51968C1F3C101A9
:1025E000C84070BD3A4870BD3749374D18310C1D91
:1025F00024350A68096826682D6802F0030406F08D
:102600000102C1F30511C5F3CC0515FB02F200EE82
:10261000102AB8EE400AE9B32F4ADFED2E0AB7EED2
:10262000001A6CB1DFED2D1A012C01D0022C43D021
:1026300002EE101A1068F8EE422A81EEA22A1EE07D
:102640001C68A40611D51B6801EE901A1168C3F32B
:10265000C103F8EE612AD84001EE900AC1F30800E8
:10266000F8EE611A81EEA22A0BE001EE901ADFED7E
:102670001C2A00BFF8EE611A106882EEA12AC0F38E
:10268000080001EE900AF8EE611A40EE201A31EED1
:10269000810A00E015E022EE000A1068C0F346202F
:1026A000401C00EE900AF8EE600A80EE201ABCEEA4
:1026B000C10A10EE100A70BD01EE901ADFED092A72
:1026C000D8E7002070BD0000104402580090D003ED
:1026D00040787D0100000039304402580024744ADB
:1026E0000024744C20BCBE4B2DE9F05F04007DD06B
:1026F000FF4F2078FE4D1837DFF8F493103DC007E8
:1027000048D0D9F80000396800F03800102815D0FA
:10271000182803D101F0030002280FD06068B0F53B
:10272000803F12D010B1B0F5A02F18D0286820F447
:1027300080302860286820F4802009E02868800321
:1027400028D560680028D2D024E0286840F4803082
:102750002860606888B1FEF799FC064609E02868A1
:1027600040F480202860F0E7FEF790FC801B64288E
:102770006FD828688003F7D50CE0FEF787FC064683
:1027800005E000BFFEF782FC801B6428F0D82868B3
:102790008003F7D4207841F20308D54E0C3E800721
:1027A00069D5D9F80000396810F038000ED0182823
:1027B00001D188070AD0E06890B3296821F0190197
:1027C00001432960FEF762FC824631E02868400739
:1027D00002D5E06800288AD0E168286820F0190056
:1027E00008432860FEF752FC824607E0DFE000BFA6
:1027F000FEF74CFCA0EB0A000228B9D82868400775
:10280000F6D500BFFEF73CFC40451BD820694028A8
:1028100012D0316821F47C3141EA003030602AE086
:1028200018E000BFFEF732FCA0EB0A0002289FD898
:1028300028684007F6D5E5E7306820F47C3040F49E
:102840000030EBE7207C316821F0FE4141EA006076
:10285000E4E70DE1286820F001002860FEF716FC8F
:10286000824605E0FEF712FCA0EB0A0002288DD894
:1028700028684007F6D42078C0065DD5D9F8000056
:10288000DFF86CB2396800F03800ABF1040B0828AF
:1028900010D0182803D101F0030001280AD0E06904
:1028A0000028286838D040F080002860FEF7EEFB52
:1028B000824623E02868C00523D5E069802876D1C8
:1028C0001FE0206A202821D0316821F0F84141EA38
:1028D0008060306030E000BF94F82010DBF800200A
:1028E00022F07C5242EA0161CBF8001024E000BFE4
:1028F000FEF7CCFBA0EB0A00022898D82868C00598
:10290000F6D5FEF7BDFB4045E6D8DAE7306820F0A3
:10291000F84040F08040DCE720F080002860FEF7BF
:10292000B5FB064605E000BFFEF7B0FB801B0228A2
:102930009DD82868C005F7D42078000729D56C48B1
:102940006169643000298046016811D041F00101BD
:102950000160FEF79BFB064605E000BFFEF796FB15
:10296000801B0228C9D8D8F800008007F6D510E0EF
:1029700021F001010160FEF789FB064605E000BF7A
:10298000FEF784FB801B022872D8D8F8000080076D
:10299000F6D42078800623D5A0690028286810D0B6
:1029A00040F480502860FEF771FB064605E036E1F2
:1029B000FEF76CFB801B02285AD828688004F7D5E4
:1029C0000EE020F480502860FEF760FB064604E02D
:1029D000FEF75CFB801B02284AD828688004F7D4E5
:1029E000207840074FD5DFF80C81D8F8001041F46B
:1029F0008071C8F80010FEF749FB064605E000BFED
:102A0000FEF744FB801B642832D8D8F80000C005CC
:102A1000F6D5374EA068603601280AD008B10528DF
:102A200013D0306820F001003060306820F00400DE
:102A300002E0306840F001003060A06841F2883A5E
:102A400090B1FEF723FB80460AE0306840F00400B6
:102A50003060EEE7FEF71AFBA0EB0801514507D8FE
:102A600030688007F6D50EE0FEF710FB804607E0E1
:102A700084E000BFFEF70AFBA0EB080151457DD8BA
:102A800030688007F6D4606AB0B3DFF86480D9F8A4
:102A9000001008F120084FF6F87B08F10409C1F393
:102AA000C2010329A8F1040A69D00228286820F08D
:102AB0008070286003D0FEF7E9FA044684E0FEF750
:102AC000E5FA064605E000BFFEF7E0FA801B0228A3
:102AD00077D828688001F7D4E26A40F2F331386889
:102AE00054F8283F884340EA02101843386004E055
:102AF0001044025800480258B5E0217B4346228921
:102B00004FF4FE0C208A4FF0FE474902267D521EEC
:102B1000401EA1F50071C2F308088AB2761E0CEAC5
:102B2000004042EA08020243504607EA06610A43AF
:102B30001A60DAF8002022F00102CAF80020D9F861
:102B40000020266A22EA0B0242EAC602C9F80020E7
:102B5000DAF80010A26921F00C011143CAF8001044
:102B60000168E26921F0020111430160016841F44A
:102B700080310160016841F4003101E021E027E08B
:102B80000160016841F480210160016841F00101A8
:102B90000160286840F080702860FEF777FA0446EC
:102BA00005E000BFFEF772FA001B022809D828686A
:102BB0008001F7D557E000BFFEF768FA001B022836
:102BC00002D90320BDE8F09F28688001F4D44AE0D0
:102BD00039680128D8F8000021D0A26A01F0030367
:102BE00093421CD1E26AC1F305118A4217D1216BCD
:102BF000C0F30802491E8A4211D1616BC0F346221C
:102C0000491E91420BD1A16BC0F30642491E91426D
:102C100005D1E16BC0F30660491E814201D001205D
:102C2000D0E7A16C4E46D9F80000C0F3CC00814239
:102C300019D0DAF80000554620F00100CAF800006B
:102C4000FEF724FA4FEA0007FEF720FAB842FBD05D
:102C5000A26C306820EA0B0040EAC20030602868AD
:102C600040F0010028600020ACE7401EB0F1807FFA
:102C700010B501D3012010BD4FF0E02460610F2199
:102C8000601701F022FE0020A0610721216110BD24
:102C90002DE9F04390F83C20012A42D0012280F82F
:102CA0003C2051F80C4BDFF880804FF0000991E890
:102CB000680051E9022723F44073B1F80CC03B438C
:102CC000CF6923F480631343026823F40063234332
:102CD00023F4805343EA050323F4005343EA060335
:102CE00023F4804343EA07030C3923F4702342455D
:102CF00043EA0C4302D00D4CA2420CD18D8C23F43C
:102D00007006D1E9073446EA055121F08071194374
:102D100021F000732343536480F83C900020BDE809
:102D2000F0830220FBE700000000014000040140A6
:102D3000F0B590F83C20012A3BD01F4E012480F8CA
:102D40003C40022280F83D2002681C4D5368B2428C
:102D5000D2F808C001D0AA4203D14F6823F470030F
:102D60003B430F6823F070031F4357600268B24271
:102D700013D0B2F1804F10D0114B9A420DD0114BAD
:102D80009A420AD0104B9A4207D0AA4205D00F4B64
:102D90009A4202D00E4B9A4204D189682CF08003EB
:102DA00019439160002180F83D4080F83C100846AE
:102DB000F0BD0220F0BD0000000001400004014011
:102DC0000004004000080040000C004000180040D3
:102DD0000040014010B5040003D094F83D0010B14C
:102DE00007E0012010BD002084F83C00204600F0E0
:102DF00023F8022084F83D002068211D01F004F82A
:102E0000012084F8480084F83E0084F83F0084F8EC
:102E1000400084F8410084F8420084F8430084F8BC
:102E2000440084F8450084F8460084F8470084F89C
:102E30003D00002010BD000008B50068064988422A
:102E400008D10648016841F001010160006800F006
:102E50000100009008BD000000000140F04402584D
:102E600070B5044690F83C000025012814D03A4B78
:102E7000012684F83C60022084F83D0022689068B6
:102E8000184020F47F409060086870282FD010DC34
:102E900010F00F0F03D022E04FF0020070BD4FEA98
:102EA0002012072A1BD2DFE802F0535353534B3949
:102EB0004100B0F1101F4BD009DCB0F5805F0FD09E
:102EC000B0F5005F1ED0B0F5801F08D140E0A0F53E
:102ED000801120393CD010293AD0202938D0012542
:102EE00084F83D60002084F83C00284670BD4A68A4
:102EF0002068D1E9021300F0EFFF2068816841F0FB
:102F0000770109E04A682068D1E9021300F0E4FF84
:102F10002068816841F480418160E1E7CA684968BE
:102F2000206801F087F92068502106E0CA684968E6
:102F3000206801F090F92068602100F0D7FFCFE70A
:102F4000CA684968206801F075F920684021F4E7F3
:102F5000226801461046F0E788FFCEFF2DE9F041D8
:102F600004000D4603D094F83D0018B108E001209C
:102F7000BDE8F081002084F83C00204600F04CF8C9
:102F8000244A022084F83D00206881681140816055
:102F90002068211D00F038FF226840F20336AF6937
:102FA00040F60C4C2B684FF2F00EA86891680B436A
:102FB0009169B14341EA07210843D5E9031720EAA3
:102FC0000C00D5E9076C20EA0E00D2F820E03F01A2
:102FD00040EA062668686D69314347EA0C3793601A
:102FE00023680F4301219F612EF0AA0242EA0513D4
:102FF00022681843106284F8481084F83E1084F860
:103000003F1084F8441084F8451084F83D100020E7
:10301000AEE70000F8BFFEFF70B586B0054614218C
:103020006846FDF720FA2A4900242B680225284A21
:1030300008392848B3F1804F1ED0274EB34219D12A
:10304000136843F008031360126802F00802059247
:103050000A6842F001020A60096801F00101059165
:1030600003210091CDE90154CDE90345694600BF34
:10307000FDF7EAFE06B070BD136843F0010313606C
:10308000126802F0010205920A6842F001020A6029
:103090000A6802F0010205920A6842F002020A6020
:1030A0000968012601F00201059120210091CDE976
:1030B0000154CDE903466946FDF7C6FE082000909D
:1030C000CDE9015405486946CDE90346D0E7000043
:1030D000E844025800000258000C00400004025866
:1030E00010B586B0044614216846FDF7BCF90E49B8
:1030F0002068884216D10D48016841F01001016036
:1031000000680123022200F01000059000204FF417
:10311000206100916946CDE90120CDE9030304480F
:10312000FDF792FE06B010BD00000140E0440258D9
:103130000010025870B5044690F83C0000260D4679
:1031400001280BD0012084F83C000C2A4AD007DC6F
:1031500082B1042A20D0082A06D131E0022070BDB5
:10316000102A53D0142A63D00126002084F83C0092
:10317000304670BD206800F0C3FE2068816941F0D0
:10318000080181612068816921F004018161206862
:103190002A698169114311E0206800F003FF20686B
:1031A000816941F4006181612068816921F4806155
:1031B000816120682969826942EA01218161D4E73D
:1031C000206800F03BFF2068C16941F00801C1613F
:1031D0002068C16921F00401C16120682A69C169C0
:1031E000114311E0206800F075FF2068C16941F4C7
:1031F0000061C1612068C16921F48061C1612068FA
:103200002969C26942EA0121C161AEE7206800F084
:103210009DFF2068416D41F0080141652068416DC6
:1032200021F00401416520682A69416D114311E0D4
:10323000206800F0C5FF2068416D41F400614165E0
:103240002068416D21F48061416520682969426DE3
:1032500042EA0121416588E710B5040003D094F8E3
:103260003D0010B107E0012010BD002084F83C00B3
:10327000204600F022F8022084F83D002068211D3D
:1032800000F0C2FD012084F8480084F83E0084F874
:103290003F0084F8400084F8410084F8420084F83C
:1032A000430084F8440084F8450084F8460084F81C
:1032B000470084F83D00002010BD704730B590F8FD
:1032C0008410012918D0012280F884202421C0F81C
:1032D00088100022202401680B680D6823F0005339
:1032E00025F001050D60426601680B60C0F888405A
:1032F00080F88420104630BD022030BD70B50446F1
:1033000090F8840001281DD0012284F88420242014
:10331000C4F8880020680568026822F00102026093
:103320002068826822F060620A438260204600F0D2
:10333000A5FF2268202100201560C4F8881084F8B9
:10334000840070BD022070BD70B5044690F8840002
:1033500001281DD0012284F884202420C4F888008C
:1033600020680568026822F0010202602068826815
:1033700022F060420A438260204600F07FFF22680C
:10338000202100201560C4F8881084F8840070BDE6
:10339000022070BD10B5040003D0D4F8880010B12D
:1033A00007E0012010BD002084F88400204600F0D2
:1033B00027F82420C4F888002068016821F0010162
:1033C0000160A06A10B1204600F07AFF204601F0AB
:1033D0005BF80128E6D02068416821F49041416003
:1033E0002068816821F02A0181602068016841F02D
:1033F000010101602046BDE8104000F0C5BF00009B
:1034000070B5B6B00446142130A8FDF72CF8C021E1
:103410006846FDF728F82E490226206800252D4C25
:10342000884227D100201F950121CDE90010684670
:10343000FEF774FA08B1FDF701F92648103001686B
:1034400041F010010160006800F010003590206824
:1034500040F0020020602068042100F00200359056
:103460004FF440403090CDE93165CDE933511A48F1
:1034700030A928E01949884227D100201E95022151
:10348000CDE900106846FEF749FA08B1FDF7D6F815
:1034900010480830016841F400310160006800F410
:1034A00000303590206840F001002060206807213E
:1034B00000F0010035900C203090CDE93165CDE968
:1034C0003351074830A9FDF7BFFC36B070BD00008E
:1034D00000100140E044025800040258004400403B
:1034E00000000258FEE78068C0F3C00070478068A3
:1034F000C0F3800070478068C0F38000704710B54B
:10350000042404EAD1540723C1F3045120448B401E
:103510008A40416999431143416110BD30B58BB078
:10352000002468461C21079408940994FCF79BFF2B
:103530001D4808211B4B0122C0E90034846002238E
:10354000C0E903410475490244758261047744620D
:10355000C0E90A43C0E90C1480F83840FDF7F0FADE
:1035600008B172B6FEE7104807A90794FDF768F89E
:1035700008B172B6FEE70D480425062140F2FF733C
:103580000322CDE904548DE80F00074869468DF801
:103590001940FDF7E9F8002801D072B6FEE70BB03C
:1035A00030BD0000002002401400002400018021F2
:1035B000F0B587B014216846FCF755FF294801682B
:1035C00041F080010160016801F08001059101680E
:1035D00041F001010160016801F0010105910168FC
:1035E00041F004010160016801F0040105910168E6
:1035F00041F002010160016801F0020105910168DA
:1036000041F010010160016801F0100105910168AD
:1036100041F00801016000680022134EE02100F033
:10362000080005903046FDF725FD104F002260216F
:103630003846FDF71FFD002469460125E020009073
:10364000CDE9015430460394FDF7FEFB6020009065
:10365000CDE90154694638460394FDF7F5FB07B000
:10366000F0BD0000E0440258000C0258000402586B
:103670004249414810B508600846FDF7CDFD08B144
:1036800072B6FEE73D493C481031203008600846DC
:10369000FDF7C2FD08B172B6FEE738493648203161
:1036A000403008600846FDF7B7FD08B172B6FEE786
:1036B000324931483031603008600846FDF7ACFDD2
:1036C00008B172B6FEE72D492B48403180300860C2
:1036D0000846FDF7A1FD08B172B6FEE72749284864
:1036E000503108600846FDF797FD08B172B6FEE755
:1036F000224923486031203008600846FDF78CFDE0
:1037000008B172B6FEE71D491D48703140300860AF
:103710000846FDF781FD08B172B6FEE71749184863
:103720008031603008600846FDF776FD08B172B65A
:10373000FEE7124912489031803008600846FDF7D4
:103740006BFD08B172B6FEE70C490E48A031086067
:103750000846FDF761FD08B172B6FEE70749094862
:10376000B031203008600846FDF756FD002801D032
:1037700072B6FEE710BD00002090005278000024D1
:10378000203002482070025810B59AB000241C2145
:10379000009412A80194029403940494059406944E
:1037A000FCF761FE2C2107A8FCF75DFE2E484FF6C2
:1037B000FF722C49C0E90014C0E90242046144616F
:1037C0008461FFF707FB08B172B6FEE74FF4805043
:1037D000009025486946FFF743FB08B172B6FEE743
:1037E0002148FFF739FD08B172B6FEE71E4804A96B
:1037F000049405940694FFF79BFA08B172B6FEE7AD
:1038000060201494CDE912041748002212A91594DF
:10381000169417941894FFF78DFC08B172B6FEE762
:103820001148042212A9FFF785FC08B172B6FEE721
:103830004FF4005007940894099401030A94CDE9C9
:103840000B40CDE90E41084807A90D94109411943E
:10385000FFF71EFA08B172B6FEE70348FFF740FC17
:103860001AB010BD000001403801002430B58DB001
:1038700024216846FCF7F7FD14480024012109942F
:103880008B1E0A948D070B94C0E90054C0E90243D3
:10389000046104228461CDE90014CDE9021404928C
:1038A000CDE90541CDE907426946FFF757FB08B16D
:1038B00072B6FEE7054809A909940B94FFF738FA98
:1038C000002801D072B6FEE70DB030BD840100249F
:1038D00030B58DB024216846FCF7C5FD154800249D
:1038E0000121134D8B1E09940A9404220B94C0E904
:1038F0000054C0E9024304618461CDE90014CDE9BC
:1039000002140492CDE90541CDE907426946FFF76B
:1039100025FB08B172B6FEE7064809A909940B9485
:10392000FFF706FA002801D072B6FEE70DB030BDF1
:10393000000C0040D00100241748002110B5154CA0
:103940000C224FF4E1330460C0E90131C160C0E9E9
:1039500004128161C161016241628162FFF71AFD57
:1039600008B172B6FEE70C480021FFF7EDFC08B184
:1039700072B6FEE708480021FFF7C0FC08B172B636
:10398000FEE70548FFF79AFC002801D072B6FEE773
:1039900010BD0000001001401C0200241748002147
:1039A00010B5154C0C224FF4E1330460C0E901312D
:1039B000C160C0E904128161C1610162416281623A
:1039C000FFF7E8FC08B172B6FEE70C480021FFF7EC
:1039D000BBFC08B172B6FEE708480021FFF78EFC79
:1039E00008B172B6FEE70548FFF768FC002801D071
:1039F00072B6FEE710BD000000440040B002002493
:103A0000FEE7FEE7704700002DE9F047454D04460C
:103A100089464FF0000A2868C04380070AD0414E0B
:103A2000283E306820F080603060FDF72FFB0746AD
:103A3000B04608E00120BDE8F08700BFFDF726FB97
:103A4000C01B022867D8D8F800000001F6D420680F
:103A500029684FF4FE0721F47C313E0241EA003030
:103A60002860207AA389B4F804C040022D4D2D4966
:103A70005B1E227CACF1010C1035091DA0F5007015
:103A800080B2521ECCF3080C07EA034340EA0C0054
:103A9000184306EA0262104328600868626920F051
:103AA000C000104308600A68A06922F020020243A7
:103AB0000A60281D0A6822F010020A6002684FF6A8
:103AC000F873E4699A4342EAC40202600868B9F1F3
:103AD000000F40F010020A6011D00868B9F1010F20
:103AE00011D040F400100860D8F80000444640F0BF
:103AF0008060C8F80000FDF7C9FA05460DE00868C7
:103B000040F40020EFE740F48010ECE7FDF7BEFA48
:103B1000401B022801D903208DE720680001F5D55C
:103B2000504688E7284402582DE9F047454D0446A1
:103B300089464FF0000A2868C04380070AD0414EEA
:103B4000283E306820F080503060FDF79FFA07462D
:103B5000B04608E00120BDE8F08700BFFDF796FA07
:103B6000C01B022867D8D8F800008000F6D420884F
:103B700029684FF4FE0721F07C713E0241EA0050B3
:103B80002860207AA389B4F804C040022D4D2D4945
:103B90005B1E227CACF1010C1835091DA0F50070EC
:103BA00080B2521ECCF3080C07EA034340EA0C0033
:103BB000184306EA0262104328600868626920F42C
:103BC0004060104308600A68A06922F40072024352
:103BD0000A60281D0A6822F480720A6002684FF6A3
:103BE000F873E4699A4342EAC40202600868B9F1D2
:103BF000000F40F480720A6011D00868B9F1010F1B
:103C000011D040F080700860D8F80000444640F0C1
:103C10008050C8F80000FDF739FA05460DE0086845
:103C200040F48000EFE740F40000ECE7FDF72EFAE7
:103C3000401B022801D903208DE720688000F5D5BC
:103C4000504688E7284402587047FDF725BA00001F
:103C500030B59DB04C216846FCF705FC202113A827
:103C6000FCF701FC0220FDF7ADFA2D4900242D4898
:103C70000A6822F001020A600A68026842F44042BF
:103C80000260026802F440421B9202689204FCD572
:103C9000254A136843F002031360126802F002021F
:103CA0001B92026842F44042026002680A6842F0D5
:103CB00001020A60096801F001011B910168890491
:103CC000FCD5022000904025049501210391042297
:103CD0000B923C23CDE90904CDE90C300FAB0E90DB
:103CE0000C2183E8130068461294FEF7FDFC08B12E
:103CF00072B6FEE708221A95CDE91625D30113AA5C
:103D00003F200321CDE9185382E81300042113A8B2
:103D1000FEF7DAFA002801D072B6FEE71DB030BD1A
:103D20002C04005818480258F44402582C48F0B5A6
:103D30002C4A016841F470010160106800F00F0026
:103D4000072804D2106820F00F00C01D106026491B
:103D50000020254C10340B68244D43F001030B6008
:103D600020600B682B400B60136803F00F03072BD8
:103D700004D9136823F00F03DB1D13601A4C1C4A8F
:103D800018341C4B261D371D2060174C1A4D283443
:103D90003060261D3860371D23603B1D35601C1DBB
:103DA0003A60251D2E1D1860331D22602860326088
:103DB00018600A680C4B114C22F4802260330A60B0
:103DC000186020686FF30F00B0F1005F03D20C4958
:103DD0000120C1F8080143F2D2000A490860F0BD91
:103DE00088ED00E000200052004402587FEDF6EA22
:103DF00080020101000202020000FF010010005CCD
:103E000000800051004000522DE9F0472A4B4FF04E
:103E1000804A2A4D02689842294E2A4F2A4C09D0DE
:103E2000504507D0A84205D0B04203D0B84201D0D7
:103E3000A04205D1D1F804C022F070024CEA02027F
:103E4000DFF888C0DFF888809842DFF888900FD0CC
:103E500050450DD0A8420BD0B04209D0B84207D08F
:103E6000A04205D0604503D0404501D0484503D16C
:103E7000CD6822F440722A434D6922F080022A4321
:103E8000026098428A68C2620A68826207D0A042D1
:103E900005D0604503D0404501D0484501D10969AE
:103EA0000163012141610169C90703D0016921F062
:103EB00001010161BDE8F0870000014000040040FD
:103EC00000080040000C0040000401400040014098
:103ED000004401400048014042EA032283680A434B
:103EE00023F47F410A43826070470000034B8268DD
:103EF0001A400A4342F00701816070478FFFCFFFED
:103F00002DE9F04FDFF88480214EDFF88890DFF84C
:103F100088B0026A036AB042DFF880A022F0020C87
:103F20001F4F23F001020262426885698B680C68AA
:103F300005EA080525F0030543EA0C0344EA0504F5
:103F400007D0484505D0584503D0504501D0B84268
:103F500005D1CD6823F008031D4325F00403B042CA
:103F600007D0484505D0584503D0504501D0B84248
:103F700005D122F44076D1E9055235432A43426007
:103F80008461496841630362BDE8F08F8FFFFEFFE3
:103F90000000014000040140004001400044014095
:103FA00000480140F0B5DFF87CE01F4C1F4D026A6D
:103FB000036AA04222F0200623F010030362426845
:103FC0008369D1F808C00F6803EA0E0323F4407E2A
:103FD00046EA0C134EEA072601D0A84206D1CF6864
:103FE00023F0800343EA071323F04003A0420AD0E2
:103FF000A84208D00E4CA04205D00E4CA04202D0E0
:104000000D4CA04207D1D1E9054522F4406242EAB5
:10401000840242EA850242608661496881630362E4
:10402000F0BD0000FF8FFFFE0000014000040140D2
:10403000004001400044014000480140F0B5DFF875
:104040007CE01F4D1F4E026A036AA84222F40077EB
:1040500023F4807303624368C269D1F808C002EA9E
:104060000E020C6822F0030E47EA0C2244EA0E040A
:1040700001D0B04206D1CF6822F4006242EA0722A2
:1040800022F48062A8420AD0B04208D00E4DA84265
:1040900005D00E4DA84202D00D4DA84207D1D1E95E
:1040A000055623F4405343EA051343EA06134360DD
:1040B000C4614968C1630262F0BD00008FFFFEFF6A
:1040C0000000014000040140004001400044014064
:1040D00000480140F0B5046A026A22F4805202628C
:1040E0004268C36924F40054DFF848C08E680D6844
:1040F00003EA0C03104F23F4407344EA0634B84239
:1041000043EA05230BD00D4DA84208D00C4DA84220
:1041100005D00C4DA84202D00B4DA84204D14D69E8
:1041200022F4804242EA85124260C3614968016418
:104130000462F0BDFF8FFFFE00000140000401405B
:10414000004001400044014000480140F0B5164FD6
:10415000164B026A046A984222F4003524F4803334
:1041600003624268436D0E890C6803EA070344EA60
:10417000030445EA06430BD00D4DA84208D00D4D6F
:10418000A84205D00C4DA84202D00C4DA84204D143
:104190004D6922F4803242EA052242604465496852
:1041A00081650362F0BD00008FFFFEFF000001404B
:1041B000000401400040014000440140004801402B
:1041C000F0B5164F164B026A046A984224F4801325
:1041D000036222F400144268436D0E890D6803EAFD
:1041E000070344EA065443EA05230BD00D4DA842C9
:1041F00008D00D4DA84205D00C4DA84202D00C4D60
:10420000A84204D14D6922F4802242EA852242600C
:1042100043654968C1650462F0BD0000FF8FFFFE81
:104220000000014000040140004001400044014002
:104230000048014010B5036A046A23F00A0324F021
:104240000104046284690B4324F0F00141EA021185
:104250008161036210BD10B5036A046A23F0A003F4
:1042600024F010040462846943EA011124F47043C9
:1042700043EA02328261016210BD000030B5416E36
:10428000B9B101680D4B03F108048A688968C2F36B
:104290004262490F5D5C615C2D01B5FBF1F1A0F854
:1042A0006A10995CA25C0901B1FBF2F1A0F86810F8
:1042B00030BD0121A0F86A10F8E70000BA490008F3
:1042C00090F82810090706D50168836B4A6822F424
:1042D00000421A434A6090F82810C90706D00168C6
:1042E000C36A4A6822F400321A434A6090F82810E0
:1042F000890706D50168036B4A6822F480321A43A5
:104300004A6090F82810490706D50168436B4A684F
:1043100022F480221A434A6090F82810C90606D574
:104320000168C36B8A6822F480521A438A6090F84D
:104330002810890606D50168036C8A6822F40052A9
:104340001A438A6090F82810490611D50168436C19
:104350004A6822F480121A434A60416CB1F5801F0A
:1043600006D10168836C4A6822F4C0021A434A608D
:1043700090F82810090606D50168C26C486820F438
:1043800000201043486070472DE9F843002504469B
:10439000C0F89050FCF77AFE8046206820266FF027
:1043A0007E470068000713D50022434631042046AB
:1043B000009700F03FFA58B1216851E8000F20F053
:1043C000800041E80002002AF6D1C4F8886021E0AC
:1043D00020680068400722D5002243464FF4800140
:1043E0002046009700F026FAC8B1206850E8001F68
:1043F00021F4907140E80012002AF6D120680830BC
:1044000050E8001F21F0010140E80012002AF5D118
:10441000C4F88C60032084F88450BDE8F883C4F8A5
:104420008860C4F88C60E5662567002084F88450B5
:10443000F3E7000010B5026852E8001F21F4907104
:1044400042E80013002BF6D10E4B0268083252E806
:10445000001F194042E80014002CF6D1C16E01295A
:1044600008D1026852E8001F21F0100142E8001351
:10447000002BF6D100212022C0F88C20C1664167B4
:1044800010BD0000FEFFFFEF2DE9F04304468068F9
:10449000D84E87B0D84B2168D4E90427D4F81CC083
:1044A00010430A68002547EA0C07384332400243AC
:1044B0000A602068E268416821F44051114341607C
:1044C0002268A1699A4201D0206A01439768DFF807
:1044D0002CC3CB4ECB4807EA0C070F4397602168EB
:1044E000676ACA6A22F00F023A43CA622268B2427D
:1044F0000ED1006800F03800182873D047DCB8B33C
:10450000082879D010286FD178E028287ED17BE068
:10451000BD498A4209D1006800F00700062875D21B
:10452000DFE800F0546A6C6E7072B8498A4209D1B3
:10453000006800F00700062868D2DFE800F0475D59
:104540005F616365B2498A4209D1006800F00700E3
:1045500006285BD2DFE800F03A5052545658AD4975
:104560008A420BD1006800F0070006284ED200E016
:1045700010E0DFE800F02B4143454749A6498A4255
:104580000AD1006800F03800182839D0B7DD20289B
:10459000BBD13CE001203AE0A0498A4209D1006841
:1045A00000F00700062831D2DFE800F01026282AA4
:1045B0002C2E9B498A420BD1006800F00700062888
:1045C00024D2DFE800F003191B1D1F2100201EE08C
:1045D0009A421BD18B48001D006800F00700062896
:1045E00014D202E00CE007E010E0DFE800F0030581
:1045F00007090B0D02200AE0042008E0082006E06D
:10460000102004E0202002E0402000E080208549C6
:10461000DFF814829A42854A4FF400434FEA21178B
:104620004FF000064ED110281AD006DC022809D01F
:1046300004280BD008287CD10DE020283ED040284B
:1046400077D13DE0FCF70CFE014610E06846FCF730
:10465000BDFE01990BE003A8FCF75AFF049906E0A0
:104660001068800605D51068C0F3C100C14000295C
:1046700070D0606A676838F8102007EB4703B1FB19
:10468000F2F0834255D8B0EB073F52D800230846DA
:104690001946FBF771FE02467808130E120243EA30
:1046A000012110183A4671410023FBF765FE604A6C
:1046B000A0F5407191423CD821688FE03946D8E797
:1046C0001946D6E7D4F81CC04FF6EF799C4546D181
:1046D000082819D005DC58B101280CD0042875D160
:1046E0000DE0102815D0202835D040286ED134E0B8
:1046F000FDF73AFF01E0FDF749FF014610E068468B
:10470000FCF764FE01990BE003A8FCF701FF049994
:1047100006E01068800604D51068C0F3C100C140EF
:10472000C1B1636A606838F81330B1FBF3F1490036
:1047300000E04BE001EB5001B1FBF0F0A0F1100103
:10474000494543D84FF6F0732168C0F34202184040
:10475000104343E043E03946E3E71946E1E7082820
:1047600019D005DC58B101280CD004282ED10DE059
:10477000102815D020282BD0402827D12AE0FDF77B
:10478000F3FE01E0FDF702FF014610E06846FCF78A
:104790001DFE01990BE003A8FCF7BAFE049906E0A0
:1047A0001068800604D51068C0F3C100C140B1B1E3
:1047B000636A606838F81330B1FBF3F101EB500124
:1047C000B1FBF0F0A0F11001494505D9012506E043
:1047D0003946EDE71946EBE7216880B2C860012051
:1047E000A4F86A00A4F8680028466667A66707B0C0
:1047F000BDE8F083F369FFCF000C0058FFF4FF1110
:104800000010014054440258004400400048004059
:10481000004C00400050004000140140007800406F
:10482000007C00400090D003A249000800440258D8
:10483000FFFC0F002DE9F047994617460D46044648
:10484000089E4FF0000833E0701C31D0FCF71EFCCE
:10485000A0EB0900B04218D8BEB120680168490732
:1048600026D5802D24D0402D22D0C169C943090707
:104870000DD4082505622046FFF7DCFDC4F89050F2
:10488000012084F88480BDE8F0870320FBE7C0693D
:10489000C04300050CD421684FF400600862204634
:1048A000FFF7C8FD2021C4F8901084F88480ECE75D
:1048B0002068C06935EA000004D00020B842C3D0A7
:1048C0000020E0E70120F9E7FEE7090700284FEAAA
:1048D000116104DB00F1E02080F80014704700F063
:1048E0000F0000F1E02080F8141D7047284B0020D5
:1048F0001968890311D4BFF34F8FBFF36F8F254918
:104900000860BFF34F8FBFF36F8F196841F4003118
:104910001960BFF34F8FBFF36F8F1968C90322D49B
:104920001B4970310860BFF34F8F081F43F6FF74B7
:104930000068184D1035C0F34E31C0F3C90204EAC7
:104940004116104646EA80772F60401EFAD2491E73
:10495000F5D2BFF34F8F186840F480301860BFF372
:104960004F8FBFF36F8FFCF79FFBFFF771F9FEF7D7
:104970001FFEFEF77DFEFEF7D1FDFEF705FFFEF7F9
:10498000DBFFFEF773FFFEF7A3FFFFF707F8FEE775
:1049900014ED00E050EF00E04FF04070E1EE100A3F
:1049A0007047010002000400060008000A000C0025
:1049B00010002000400080000001010101030701F8
:1049C00000000804020408010101000000000102C7
:1049D000030401020304060708090000FC4900085B
:1049E0000000002414000000D4020008104A00084F
:1049F0001400002494090000F002000801000000E7
:104A000010000000000000000090D0030090D003D0
:040000050800029954
:00000001FF
